{
  "_format": "hh-sol-artifact-1",
  "contractName": "ERC1155PresetMinterPauser",
  "sourceName": "contracts/ERC1155PresetMinterPauser.sol",
  "abi": [
    {
      "inputs": [
        {
          "internalType": "string",
          "name": "uri",
          "type": "string"
        }
      ],
      "stateMutability": "nonpayable",
      "type": "constructor"
    },
    {
      "anonymous": false,
      "inputs": [
        {
          "indexed": true,
          "internalType": "address",
          "name": "account",
          "type": "address"
        },
        {
          "indexed": true,
          "internalType": "address",
          "name": "operator",
          "type": "address"
        },
        {
          "indexed": false,
          "internalType": "bool",
          "name": "approved",
          "type": "bool"
        }
      ],
      "name": "ApprovalForAll",
      "type": "event"
    },
    {
      "anonymous": false,
      "inputs": [
        {
          "indexed": false,
          "internalType": "address",
          "name": "account",
          "type": "address"
        }
      ],
      "name": "Paused",
      "type": "event"
    },
    {
      "anonymous": false,
      "inputs": [
        {
          "indexed": true,
          "internalType": "bytes32",
          "name": "role",
          "type": "bytes32"
        },
        {
          "indexed": true,
          "internalType": "bytes32",
          "name": "previousAdminRole",
          "type": "bytes32"
        },
        {
          "indexed": true,
          "internalType": "bytes32",
          "name": "newAdminRole",
          "type": "bytes32"
        }
      ],
      "name": "RoleAdminChanged",
      "type": "event"
    },
    {
      "anonymous": false,
      "inputs": [
        {
          "indexed": true,
          "internalType": "bytes32",
          "name": "role",
          "type": "bytes32"
        },
        {
          "indexed": true,
          "internalType": "address",
          "name": "account",
          "type": "address"
        },
        {
          "indexed": true,
          "internalType": "address",
          "name": "sender",
          "type": "address"
        }
      ],
      "name": "RoleGranted",
      "type": "event"
    },
    {
      "anonymous": false,
      "inputs": [
        {
          "indexed": true,
          "internalType": "bytes32",
          "name": "role",
          "type": "bytes32"
        },
        {
          "indexed": true,
          "internalType": "address",
          "name": "account",
          "type": "address"
        },
        {
          "indexed": true,
          "internalType": "address",
          "name": "sender",
          "type": "address"
        }
      ],
      "name": "RoleRevoked",
      "type": "event"
    },
    {
      "anonymous": false,
      "inputs": [
        {
          "indexed": true,
          "internalType": "address",
          "name": "operator",
          "type": "address"
        },
        {
          "indexed": true,
          "internalType": "address",
          "name": "from",
          "type": "address"
        },
        {
          "indexed": true,
          "internalType": "address",
          "name": "to",
          "type": "address"
        },
        {
          "indexed": false,
          "internalType": "uint256[]",
          "name": "ids",
          "type": "uint256[]"
        },
        {
          "indexed": false,
          "internalType": "uint256[]",
          "name": "values",
          "type": "uint256[]"
        }
      ],
      "name": "TransferBatch",
      "type": "event"
    },
    {
      "anonymous": false,
      "inputs": [
        {
          "indexed": true,
          "internalType": "address",
          "name": "operator",
          "type": "address"
        },
        {
          "indexed": true,
          "internalType": "address",
          "name": "from",
          "type": "address"
        },
        {
          "indexed": true,
          "internalType": "address",
          "name": "to",
          "type": "address"
        },
        {
          "indexed": false,
          "internalType": "uint256",
          "name": "id",
          "type": "uint256"
        },
        {
          "indexed": false,
          "internalType": "uint256",
          "name": "value",
          "type": "uint256"
        }
      ],
      "name": "TransferSingle",
      "type": "event"
    },
    {
      "anonymous": false,
      "inputs": [
        {
          "indexed": false,
          "internalType": "string",
          "name": "value",
          "type": "string"
        },
        {
          "indexed": true,
          "internalType": "uint256",
          "name": "id",
          "type": "uint256"
        }
      ],
      "name": "URI",
      "type": "event"
    },
    {
      "anonymous": false,
      "inputs": [
        {
          "indexed": false,
          "internalType": "address",
          "name": "account",
          "type": "address"
        }
      ],
      "name": "Unpaused",
      "type": "event"
    },
    {
      "inputs": [],
      "name": "DEFAULT_ADMIN_ROLE",
      "outputs": [
        {
          "internalType": "bytes32",
          "name": "",
          "type": "bytes32"
        }
      ],
      "stateMutability": "view",
      "type": "function"
    },
    {
      "inputs": [],
      "name": "MINTER_ROLE",
      "outputs": [
        {
          "internalType": "bytes32",
          "name": "",
          "type": "bytes32"
        }
      ],
      "stateMutability": "view",
      "type": "function"
    },
    {
      "inputs": [],
      "name": "PAUSER_ROLE",
      "outputs": [
        {
          "internalType": "bytes32",
          "name": "",
          "type": "bytes32"
        }
      ],
      "stateMutability": "view",
      "type": "function"
    },
    {
      "inputs": [
        {
          "internalType": "address",
          "name": "account",
          "type": "address"
        },
        {
          "internalType": "uint256",
          "name": "id",
          "type": "uint256"
        }
      ],
      "name": "balanceOf",
      "outputs": [
        {
          "internalType": "uint256",
          "name": "",
          "type": "uint256"
        }
      ],
      "stateMutability": "view",
      "type": "function"
    },
    {
      "inputs": [
        {
          "internalType": "address[]",
          "name": "accounts",
          "type": "address[]"
        },
        {
          "internalType": "uint256[]",
          "name": "ids",
          "type": "uint256[]"
        }
      ],
      "name": "balanceOfBatch",
      "outputs": [
        {
          "internalType": "uint256[]",
          "name": "",
          "type": "uint256[]"
        }
      ],
      "stateMutability": "view",
      "type": "function"
    },
    {
      "inputs": [
        {
          "internalType": "address",
          "name": "account",
          "type": "address"
        },
        {
          "internalType": "uint256",
          "name": "id",
          "type": "uint256"
        },
        {
          "internalType": "uint256",
          "name": "value",
          "type": "uint256"
        }
      ],
      "name": "burn",
      "outputs": [],
      "stateMutability": "nonpayable",
      "type": "function"
    },
    {
      "inputs": [
        {
          "internalType": "address",
          "name": "account",
          "type": "address"
        },
        {
          "internalType": "uint256[]",
          "name": "ids",
          "type": "uint256[]"
        },
        {
          "internalType": "uint256[]",
          "name": "values",
          "type": "uint256[]"
        }
      ],
      "name": "burnBatch",
      "outputs": [],
      "stateMutability": "nonpayable",
      "type": "function"
    },
    {
      "inputs": [
        {
          "internalType": "bytes32",
          "name": "role",
          "type": "bytes32"
        }
      ],
      "name": "getRoleAdmin",
      "outputs": [
        {
          "internalType": "bytes32",
          "name": "",
          "type": "bytes32"
        }
      ],
      "stateMutability": "view",
      "type": "function"
    },
    {
      "inputs": [
        {
          "internalType": "bytes32",
          "name": "role",
          "type": "bytes32"
        },
        {
          "internalType": "uint256",
          "name": "index",
          "type": "uint256"
        }
      ],
      "name": "getRoleMember",
      "outputs": [
        {
          "internalType": "address",
          "name": "",
          "type": "address"
        }
      ],
      "stateMutability": "view",
      "type": "function"
    },
    {
      "inputs": [
        {
          "internalType": "bytes32",
          "name": "role",
          "type": "bytes32"
        }
      ],
      "name": "getRoleMemberCount",
      "outputs": [
        {
          "internalType": "uint256",
          "name": "",
          "type": "uint256"
        }
      ],
      "stateMutability": "view",
      "type": "function"
    },
    {
      "inputs": [
        {
          "internalType": "bytes32",
          "name": "role",
          "type": "bytes32"
        },
        {
          "internalType": "address",
          "name": "account",
          "type": "address"
        }
      ],
      "name": "grantRole",
      "outputs": [],
      "stateMutability": "nonpayable",
      "type": "function"
    },
    {
      "inputs": [
        {
          "internalType": "bytes32",
          "name": "role",
          "type": "bytes32"
        },
        {
          "internalType": "address",
          "name": "account",
          "type": "address"
        }
      ],
      "name": "hasRole",
      "outputs": [
        {
          "internalType": "bool",
          "name": "",
          "type": "bool"
        }
      ],
      "stateMutability": "view",
      "type": "function"
    },
    {
      "inputs": [
        {
          "internalType": "address",
          "name": "account",
          "type": "address"
        },
        {
          "internalType": "address",
          "name": "operator",
          "type": "address"
        }
      ],
      "name": "isApprovedForAll",
      "outputs": [
        {
          "internalType": "bool",
          "name": "",
          "type": "bool"
        }
      ],
      "stateMutability": "view",
      "type": "function"
    },
    {
      "inputs": [
        {
          "internalType": "address",
          "name": "to",
          "type": "address"
        },
        {
          "internalType": "uint256",
          "name": "id",
          "type": "uint256"
        },
        {
          "internalType": "uint256",
          "name": "amount",
          "type": "uint256"
        },
        {
          "internalType": "bytes",
          "name": "data",
          "type": "bytes"
        }
      ],
      "name": "mint",
      "outputs": [],
      "stateMutability": "nonpayable",
      "type": "function"
    },
    {
      "inputs": [
        {
          "internalType": "address",
          "name": "to",
          "type": "address"
        },
        {
          "internalType": "uint256[]",
          "name": "ids",
          "type": "uint256[]"
        },
        {
          "internalType": "uint256[]",
          "name": "amounts",
          "type": "uint256[]"
        },
        {
          "internalType": "bytes",
          "name": "data",
          "type": "bytes"
        }
      ],
      "name": "mintBatch",
      "outputs": [],
      "stateMutability": "nonpayable",
      "type": "function"
    },
    {
      "inputs": [],
      "name": "pause",
      "outputs": [],
      "stateMutability": "nonpayable",
      "type": "function"
    },
    {
      "inputs": [],
      "name": "paused",
      "outputs": [
        {
          "internalType": "bool",
          "name": "",
          "type": "bool"
        }
      ],
      "stateMutability": "view",
      "type": "function"
    },
    {
      "inputs": [
        {
          "internalType": "bytes32",
          "name": "role",
          "type": "bytes32"
        },
        {
          "internalType": "address",
          "name": "account",
          "type": "address"
        }
      ],
      "name": "renounceRole",
      "outputs": [],
      "stateMutability": "nonpayable",
      "type": "function"
    },
    {
      "inputs": [
        {
          "internalType": "bytes32",
          "name": "role",
          "type": "bytes32"
        },
        {
          "internalType": "address",
          "name": "account",
          "type": "address"
        }
      ],
      "name": "revokeRole",
      "outputs": [],
      "stateMutability": "nonpayable",
      "type": "function"
    },
    {
      "inputs": [
        {
          "internalType": "address",
          "name": "from",
          "type": "address"
        },
        {
          "internalType": "address",
          "name": "to",
          "type": "address"
        },
        {
          "internalType": "uint256[]",
          "name": "ids",
          "type": "uint256[]"
        },
        {
          "internalType": "uint256[]",
          "name": "amounts",
          "type": "uint256[]"
        },
        {
          "internalType": "bytes",
          "name": "data",
          "type": "bytes"
        }
      ],
      "name": "safeBatchTransferFrom",
      "outputs": [],
      "stateMutability": "nonpayable",
      "type": "function"
    },
    {
      "inputs": [
        {
          "internalType": "address",
          "name": "from",
          "type": "address"
        },
        {
          "internalType": "address",
          "name": "to",
          "type": "address"
        },
        {
          "internalType": "uint256",
          "name": "id",
          "type": "uint256"
        },
        {
          "internalType": "uint256",
          "name": "amount",
          "type": "uint256"
        },
        {
          "internalType": "bytes",
          "name": "data",
          "type": "bytes"
        }
      ],
      "name": "safeTransferFrom",
      "outputs": [],
      "stateMutability": "nonpayable",
      "type": "function"
    },
    {
      "inputs": [
        {
          "internalType": "address",
          "name": "operator",
          "type": "address"
        },
        {
          "internalType": "bool",
          "name": "approved",
          "type": "bool"
        }
      ],
      "name": "setApprovalForAll",
      "outputs": [],
      "stateMutability": "nonpayable",
      "type": "function"
    },
    {
      "inputs": [
        {
          "internalType": "bytes4",
          "name": "interfaceId",
          "type": "bytes4"
        }
      ],
      "name": "supportsInterface",
      "outputs": [
        {
          "internalType": "bool",
          "name": "",
          "type": "bool"
        }
      ],
      "stateMutability": "view",
      "type": "function"
    },
    {
      "inputs": [],
      "name": "unpause",
      "outputs": [],
      "stateMutability": "nonpayable",
      "type": "function"
    },
    {
      "inputs": [
        {
          "internalType": "uint256",
          "name": "",
          "type": "uint256"
        }
      ],
      "name": "uri",
      "outputs": [
        {
          "internalType": "string",
          "name": "",
          "type": "string"
        }
      ],
      "stateMutability": "view",
      "type": "function"
    },
    {
      "inputs": [
        {
          "internalType": "uint256",
          "name": "tokenId",
          "type": "uint256"
        },
        {
          "internalType": "uint256",
          "name": "composableId",
          "type": "uint256"
        }
      ],
      "name": "uri",
      "outputs": [
        {
          "internalType": "string",
          "name": "",
          "type": "string"
        }
      ],
      "stateMutability": "view",
      "type": "function"
    }
  ],
  "bytecode": "0x60a06040819052600060808190526200001b9160079162000243565b503480156200002957600080fd5b5060405162002f8338038062002f838339810160408190526200004c91620002ff565b806200005881620000cf565b506005805460ff1916905562000070600033620000e8565b6200009c7f9f2df0fed2c77648de5860a4cc508cd0818c85b8b8a1ab4ceeef8d981c8956a633620000e8565b620000c87f65d7a28e3265b37a6474929f336521b332c1681b933f6cb9f3376673440d862a33620000e8565b5062000418565b8051620000e490600490602084019062000243565b5050565b620000e482826200010582826200013160201b62000bed1760201c565b60008281526001602090815260409091206200012c91839062000c71620001d1821b17901c565b505050565b6000828152602081815260408083206001600160a01b038516845290915290205460ff16620000e4576000828152602081815260408083206001600160a01b03851684529091529020805460ff191660011790556200018d3390565b6001600160a01b0316816001600160a01b0316837f2f8788117e7eff1d82e926ec794901d17c78024a50270940304540a733656f0d60405160405180910390a45050565b6000620001e8836001600160a01b038416620001f1565b90505b92915050565b60008181526001830160205260408120546200023a57508154600181810184556000848152602080822090930184905584548482528286019093526040902091909155620001eb565b506000620001eb565b8280546200025190620003db565b90600052602060002090601f016020900481019282620002755760008555620002c0565b82601f106200029057805160ff1916838001178555620002c0565b82800160010185558215620002c0579182015b82811115620002c0578251825591602001919060010190620002a3565b50620002ce929150620002d2565b5090565b5b80821115620002ce5760008155600101620002d3565b634e487b7160e01b600052604160045260246000fd5b600060208083850312156200031357600080fd5b82516001600160401b03808211156200032b57600080fd5b818501915085601f8301126200034057600080fd5b815181811115620003555762000355620002e9565b604051601f8201601f19908116603f01168101908382118183101715620003805762000380620002e9565b8160405282815288868487010111156200039957600080fd5b600093505b82841015620003bd57848401860151818501870152928501926200039e565b82841115620003cf5760008684830101525b98975050505050505050565b600181811c90821680620003f057607f821691505b602082108114156200041257634e487b7160e01b600052602260045260246000fd5b50919050565b612b5b80620004286000396000f3fe608060405234801561001057600080fd5b506004361061018d5760003560e01c80638456cb59116100de578063ca15c87311610097578063e63ab1e911610071578063e63ab1e914610386578063e985e9c5146103ad578063f242432a146103e9578063f5298aca146103fc57600080fd5b8063ca15c87314610339578063d53913931461034c578063d547741f1461037357600080fd5b80638456cb59146102c55780639010d07c146102cd57806391d14854146102f8578063a217fddf1461030b578063a22cb46514610313578063be234d421461032657600080fd5b80632f2ff15d1161014b5780634e1273f4116101255780634e1273f4146102745780635c975abb146102945780636b20c4541461029f578063731133e9146102b257600080fd5b80632f2ff15d1461024657806336568abe146102595780633f4ba83a1461026c57600080fd5b8062fdd58e1461019257806301ffc9a7146101b85780630e89341c146101db5780631f7fdffa146101fb578063248a9ca3146102105780632eb2c2d614610233575b600080fd5b6101a56101a0366004611e3a565b61040f565b6040519081526020015b60405180910390f35b6101cb6101c6366004611e7a565b6104ab565b60405190151581526020016101af565b6101ee6101e9366004611e97565b6104b6565b6040516101af9190611f08565b61020e610209366004612067565b61054a565b005b6101a561021e366004611e97565b60009081526020819052604090206001015490565b61020e610241366004612100565b6105a2565b61020e6102543660046121aa565b610639565b61020e6102673660046121aa565b610663565b61020e6106e1565b6102876102823660046121d6565b610787565b6040516101af91906122dc565b60055460ff166101cb565b61020e6102ad3660046122ef565b6108b1565b61020e6102c0366004612363565b6108f4565b61020e610946565b6102e06102db3660046123b8565b6109ea565b6040516001600160a01b0390911681526020016101af565b6101cb6103063660046121aa565b610a09565b6101a5600081565b61020e6103213660046123da565b610a32565b6101ee6103343660046123b8565b610a3d565b6101a5610347366004611e97565b610b29565b6101a57f9f2df0fed2c77648de5860a4cc508cd0818c85b8b8a1ab4ceeef8d981c8956a681565b61020e6103813660046121aa565b610b40565b6101a57f65d7a28e3265b37a6474929f336521b332c1681b933f6cb9f3376673440d862a81565b6101cb6103bb366004612416565b6001600160a01b03918216600090815260036020908152604080832093909416825291909152205460ff1690565b61020e6103f7366004612440565b610b65565b61020e61040a3660046124a5565b610baa565b60006001600160a01b0383166104805760405162461bcd60e51b815260206004820152602b60248201527f455243313135353a2062616c616e636520717565727920666f7220746865207a60448201526a65726f206164647265737360a81b60648201526084015b60405180910390fd5b5060008181526002602090815260408083206001600160a01b03861684529091529020545b92915050565b60006104a582610c86565b6060600480546104c5906124d8565b80601f01602080910402602001604051908101604052809291908181526020018280546104f1906124d8565b801561053e5780601f106105135761010080835404028352916020019161053e565b820191906000526020600020905b81548152906001019060200180831161052157829003601f168201915b50505050509050919050565b6105747f9f2df0fed2c77648de5860a4cc508cd0818c85b8b8a1ab4ceeef8d981c8956a633610a09565b6105905760405162461bcd60e51b815260040161047790612513565b61059c84848484610cc6565b50505050565b6001600160a01b0385163314806105be57506105be85336103bb565b6106255760405162461bcd60e51b815260206004820152603260248201527f455243313135353a207472616e736665722063616c6c6572206973206e6f74206044820152711bdddb995c881b9bdc88185c1c1c9bdd995960721b6064820152608401610477565b6106328585858585610e21565b5050505050565b60008281526020819052604090206001015461065481610fce565b61065e8383610fdb565b505050565b6001600160a01b03811633146106d35760405162461bcd60e51b815260206004820152602f60248201527f416363657373436f6e74726f6c3a2063616e206f6e6c792072656e6f756e636560448201526e103937b632b9903337b91039b2b63360891b6064820152608401610477565b6106dd8282610ffd565b5050565b61070b7f65d7a28e3265b37a6474929f336521b332c1681b933f6cb9f3376673440d862a33610a09565b61077d5760405162461bcd60e51b815260206004820152603b60248201527f455243313135355072657365744d696e7465725061757365723a206d7573742060448201527f686176652070617573657220726f6c6520746f20756e706175736500000000006064820152608401610477565b61078561101f565b565b606081518351146107ec5760405162461bcd60e51b815260206004820152602960248201527f455243313135353a206163636f756e747320616e6420696473206c656e677468604482015268040dad2e6dac2e8c6d60bb1b6064820152608401610477565b6000835167ffffffffffffffff81111561080857610808611f1b565b604051908082528060200260200182016040528015610831578160200160208202803683370190505b50905060005b84518110156108a95761087c85828151811061085557610855612570565b602002602001015185838151811061086f5761086f612570565b602002602001015161040f565b82828151811061088e5761088e612570565b60209081029190910101526108a28161259c565b9050610837565b509392505050565b6001600160a01b0383163314806108cd57506108cd83336103bb565b6108e95760405162461bcd60e51b8152600401610477906125b7565b61065e8383836110b2565b61091e7f9f2df0fed2c77648de5860a4cc508cd0818c85b8b8a1ab4ceeef8d981c8956a633610a09565b61093a5760405162461bcd60e51b815260040161047790612513565b61059c84848484611251565b6109707f65d7a28e3265b37a6474929f336521b332c1681b933f6cb9f3376673440d862a33610a09565b6109e25760405162461bcd60e51b815260206004820152603960248201527f455243313135355072657365744d696e7465725061757365723a206d7573742060448201527f686176652070617573657220726f6c6520746f207061757365000000000000006064820152608401610477565b61078561133c565b6000828152600160205260408120610a0290836113b7565b9392505050565b6000918252602082815260408084206001600160a01b0393909316845291905290205460ff1690565b6106dd3383836113c3565b6000818152600660209081526040808320858452909152812080546060929190610a66906124d8565b80601f0160208091040260200160405190810160405280929190818152602001828054610a92906124d8565b8015610adf5780601f10610ab457610100808354040283529160200191610adf565b820191906000526020600020905b815481529060010190602001808311610ac257829003601f168201915b505050505090506000815111610afd57610af8846104b6565b610b21565b600781604051602001610b1192919061261c565b6040516020818303038152906040525b949350505050565b60008181526001602052604081206104a5906114a4565b600082815260208190526040902060010154610b5b81610fce565b61065e8383610ffd565b6001600160a01b038516331480610b815750610b8185336103bb565b610b9d5760405162461bcd60e51b8152600401610477906125b7565b61063285858585856114ae565b6001600160a01b038316331480610bc65750610bc683336103bb565b610be25760405162461bcd60e51b8152600401610477906125b7565b61065e8383836115ea565b610bf78282610a09565b6106dd576000828152602081815260408083206001600160a01b03851684529091529020805460ff19166001179055610c2d3390565b6001600160a01b0316816001600160a01b0316837f2f8788117e7eff1d82e926ec794901d17c78024a50270940304540a733656f0d60405160405180910390a45050565b6000610a02836001600160a01b038416611706565b60006001600160e01b03198216636cdb3d1360e11b1480610cb757506001600160e01b031982166303a24d0760e21b145b806104a557506104a582611755565b6001600160a01b038416610cec5760405162461bcd60e51b8152600401610477906126c3565b8151835114610d0d5760405162461bcd60e51b815260040161047790612704565b33610d1d8160008787878761177a565b60005b8451811015610db957838181518110610d3b57610d3b612570565b602002602001015160026000878481518110610d5957610d59612570565b602002602001015181526020019081526020016000206000886001600160a01b03166001600160a01b031681526020019081526020016000206000828254610da1919061274c565b90915550819050610db18161259c565b915050610d20565b50846001600160a01b031660006001600160a01b0316826001600160a01b03167f4a39dc06d4c0dbc64b70af90fd698a233a518aa5d07e595d983b8c0526c8f7fb8787604051610e0a929190612764565b60405180910390a461063281600087878787611788565b8151835114610e425760405162461bcd60e51b815260040161047790612704565b6001600160a01b038416610e685760405162461bcd60e51b815260040161047790612789565b33610e7781878787878761177a565b60005b8451811015610f60576000858281518110610e9757610e97612570565b602002602001015190506000858381518110610eb557610eb5612570565b60209081029190910181015160008481526002835260408082206001600160a01b038e168352909352919091205490915081811015610f065760405162461bcd60e51b8152600401610477906127ce565b60008381526002602090815260408083206001600160a01b038e8116855292528083208585039055908b16825281208054849290610f4590849061274c565b9250508190555050505080610f599061259c565b9050610e7a565b50846001600160a01b0316866001600160a01b0316826001600160a01b03167f4a39dc06d4c0dbc64b70af90fd698a233a518aa5d07e595d983b8c0526c8f7fb8787604051610fb0929190612764565b60405180910390a4610fc6818787878787611788565b505050505050565b610fd881336118e4565b50565b610fe58282610bed565b600082815260016020526040902061065e9082610c71565b6110078282611948565b600082815260016020526040902061065e90826119ad565b60055460ff166110685760405162461bcd60e51b815260206004820152601460248201527314185d5cd8589b194e881b9bdd081c185d5cd95960621b6044820152606401610477565b6005805460ff191690557f5db9ee0a495bf2e6ff9c91a7834c1ba4fdd244a5e8aa4e537bd38aeae4b073aa335b6040516001600160a01b03909116815260200160405180910390a1565b6001600160a01b0383166110d85760405162461bcd60e51b815260040161047790612818565b80518251146110f95760405162461bcd60e51b815260040161047790612704565b600033905061111c8185600086866040518060200160405280600081525061177a565b60005b83518110156111e457600084828151811061113c5761113c612570565b60200260200101519050600084838151811061115a5761115a612570565b60209081029190910181015160008481526002835260408082206001600160a01b038c1683529093529190912054909150818110156111ab5760405162461bcd60e51b81526004016104779061285b565b60009283526002602090815260408085206001600160a01b038b16865290915290922091039055806111dc8161259c565b91505061111f565b5060006001600160a01b0316846001600160a01b0316826001600160a01b03167f4a39dc06d4c0dbc64b70af90fd698a233a518aa5d07e595d983b8c0526c8f7fb8686604051611235929190612764565b60405180910390a460408051602081019091526000905261059c565b6001600160a01b0384166112775760405162461bcd60e51b8152600401610477906126c3565b336000611283856119c2565b90506000611290856119c2565b90506112a18360008985858961177a565b60008681526002602090815260408083206001600160a01b038b168452909152812080548792906112d390849061274c565b909155505060408051878152602081018790526001600160a01b03808a1692600092918716917fc3d58168c5ae7397731d063d5bbf3d657854427343f4c083240f7aacaa2d0f62910160405180910390a461133383600089898989611a0d565b50505050505050565b60055460ff16156113825760405162461bcd60e51b815260206004820152601060248201526f14185d5cd8589b194e881c185d5cd95960821b6044820152606401610477565b6005805460ff191660011790557f62e78cea01bee320cd4e420270b5ea74000d11b0c9f74754ebdbfc544b05a2586110953390565b6000610a028383611ac8565b816001600160a01b0316836001600160a01b031614156114375760405162461bcd60e51b815260206004820152602960248201527f455243313135353a2073657474696e6720617070726f76616c20737461747573604482015268103337b91039b2b63360b91b6064820152608401610477565b6001600160a01b03838116600081815260036020908152604080832094871680845294825291829020805460ff191686151590811790915591519182527f17307eab39ab6107e8899845ad3d59bd9653f200f220920489ca2b5937696c31910160405180910390a3505050565b60006104a5825490565b6001600160a01b0384166114d45760405162461bcd60e51b815260040161047790612789565b3360006114e0856119c2565b905060006114ed856119c2565b90506114fd83898985858961177a565b60008681526002602090815260408083206001600160a01b038c168452909152902054858110156115405760405162461bcd60e51b8152600401610477906127ce565b60008781526002602090815260408083206001600160a01b038d8116855292528083208985039055908a1682528120805488929061157f90849061274c565b909155505060408051888152602081018890526001600160a01b03808b16928c821692918816917fc3d58168c5ae7397731d063d5bbf3d657854427343f4c083240f7aacaa2d0f62910160405180910390a46115df848a8a8a8a8a611a0d565b505050505050505050565b6001600160a01b0383166116105760405162461bcd60e51b815260040161047790612818565b33600061161c846119c2565b90506000611629846119c2565b90506116498387600085856040518060200160405280600081525061177a565b60008581526002602090815260408083206001600160a01b038a1684529091529020548481101561168c5760405162461bcd60e51b81526004016104779061285b565b60008681526002602090815260408083206001600160a01b038b81168086529184528285208a8703905582518b81529384018a90529092908816917fc3d58168c5ae7397731d063d5bbf3d657854427343f4c083240f7aacaa2d0f62910160405180910390a4604080516020810190915260009052611333565b600081815260018301602052604081205461174d575081546001818101845560008481526020808220909301849055845484825282860190935260409020919091556104a5565b5060006104a5565b60006001600160e01b03198216635a05180f60e01b14806104a557506104a582611af2565b610fc6868686868686611b27565b6001600160a01b0384163b15610fc65760405163bc197c8160e01b81526001600160a01b0385169063bc197c81906117cc908990899088908890889060040161289f565b6020604051808303816000875af1925050508015611807575060408051601f3d908101601f19168201909252611804918101906128fd565b60015b6118b45761181361291a565b806308c379a0141561184d5750611828612936565b80611833575061184f565b8060405162461bcd60e51b81526004016104779190611f08565b505b60405162461bcd60e51b815260206004820152603460248201527f455243313135353a207472616e7366657220746f206e6f6e20455243313135356044820152732932b1b2b4bb32b91034b6b83632b6b2b73a32b960611b6064820152608401610477565b6001600160e01b0319811663bc197c8160e01b146113335760405162461bcd60e51b8152600401610477906129c0565b6118ee8282610a09565b6106dd57611906816001600160a01b03166014611b8f565b611911836020611b8f565b604051602001611922929190612a08565b60408051601f198184030181529082905262461bcd60e51b825261047791600401611f08565b6119528282610a09565b156106dd576000828152602081815260408083206001600160a01b0385168085529252808320805460ff1916905551339285917ff6391f5c32d9c69d2a47ea670b442974b53935d1edc7fd64eb21e047a839171b9190a45050565b6000610a02836001600160a01b038416611d2b565b604080516001808252818301909252606091600091906020808301908036833701905050905082816000815181106119fc576119fc612570565b602090810291909101015292915050565b6001600160a01b0384163b15610fc65760405163f23a6e6160e01b81526001600160a01b0385169063f23a6e6190611a519089908990889088908890600401612a7d565b6020604051808303816000875af1925050508015611a8c575060408051601f3d908101601f19168201909252611a89918101906128fd565b60015b611a985761181361291a565b6001600160e01b0319811663f23a6e6160e01b146113335760405162461bcd60e51b8152600401610477906129c0565b6000826000018281548110611adf57611adf612570565b9060005260206000200154905092915050565b60006001600160e01b03198216637965db0b60e01b14806104a557506301ffc9a760e01b6001600160e01b03198316146104a5565b60055460ff1615610fc65760405162461bcd60e51b815260206004820152602c60248201527f455243313135355061757361626c653a20746f6b656e207472616e736665722060448201526b1dda1a5b19481c185d5cd95960a21b6064820152608401610477565b60606000611b9e836002612ac2565b611ba990600261274c565b67ffffffffffffffff811115611bc157611bc1611f1b565b6040519080825280601f01601f191660200182016040528015611beb576020820181803683370190505b509050600360fc1b81600081518110611c0657611c06612570565b60200101906001600160f81b031916908160001a905350600f60fb1b81600181518110611c3557611c35612570565b60200101906001600160f81b031916908160001a9053506000611c59846002612ac2565b611c6490600161274c565b90505b6001811115611cdc576f181899199a1a9b1b9c1cb0b131b232b360811b85600f1660108110611c9857611c98612570565b1a60f81b828281518110611cae57611cae612570565b60200101906001600160f81b031916908160001a90535060049490941c93611cd581612ae1565b9050611c67565b508315610a025760405162461bcd60e51b815260206004820181905260248201527f537472696e67733a20686578206c656e67746820696e73756666696369656e746044820152606401610477565b60008181526001830160205260408120548015611e14576000611d4f600183612af8565b8554909150600090611d6390600190612af8565b9050818114611dc8576000866000018281548110611d8357611d83612570565b9060005260206000200154905080876000018481548110611da657611da6612570565b6000918252602080832090910192909255918252600188019052604090208390555b8554869080611dd957611dd9612b0f565b6001900381819060005260206000200160009055905585600101600086815260200190815260200160002060009055600193505050506104a5565b60009150506104a5565b80356001600160a01b0381168114611e3557600080fd5b919050565b60008060408385031215611e4d57600080fd5b611e5683611e1e565b946020939093013593505050565b6001600160e01b031981168114610fd857600080fd5b600060208284031215611e8c57600080fd5b8135610a0281611e64565b600060208284031215611ea957600080fd5b5035919050565b60005b83811015611ecb578181015183820152602001611eb3565b8381111561059c5750506000910152565b60008151808452611ef4816020860160208601611eb0565b601f01601f19169290920160200192915050565b602081526000610a026020830184611edc565b634e487b7160e01b600052604160045260246000fd5b601f8201601f1916810167ffffffffffffffff81118282101715611f5757611f57611f1b565b6040525050565b600067ffffffffffffffff821115611f7857611f78611f1b565b5060051b60200190565b600082601f830112611f9357600080fd5b81356020611fa082611f5e565b604051611fad8282611f31565b83815260059390931b8501820192828101915086841115611fcd57600080fd5b8286015b84811015611fe85780358352918301918301611fd1565b509695505050505050565b600082601f83011261200457600080fd5b813567ffffffffffffffff81111561201e5761201e611f1b565b604051612035601f8301601f191660200182611f31565b81815284602083860101111561204a57600080fd5b816020850160208301376000918101602001919091529392505050565b6000806000806080858703121561207d57600080fd5b61208685611e1e565b9350602085013567ffffffffffffffff808211156120a357600080fd5b6120af88838901611f82565b945060408701359150808211156120c557600080fd5b6120d188838901611f82565b935060608701359150808211156120e757600080fd5b506120f487828801611ff3565b91505092959194509250565b600080600080600060a0868803121561211857600080fd5b61212186611e1e565b945061212f60208701611e1e565b9350604086013567ffffffffffffffff8082111561214c57600080fd5b61215889838a01611f82565b9450606088013591508082111561216e57600080fd5b61217a89838a01611f82565b9350608088013591508082111561219057600080fd5b5061219d88828901611ff3565b9150509295509295909350565b600080604083850312156121bd57600080fd5b823591506121cd60208401611e1e565b90509250929050565b600080604083850312156121e957600080fd5b823567ffffffffffffffff8082111561220157600080fd5b818501915085601f83011261221557600080fd5b8135602061222282611f5e565b60405161222f8282611f31565b83815260059390931b850182019282810191508984111561224f57600080fd5b948201945b838610156122745761226586611e1e565b82529482019490820190612254565b9650508601359250508082111561228a57600080fd5b5061229785828601611f82565b9150509250929050565b600081518084526020808501945080840160005b838110156122d1578151875295820195908201906001016122b5565b509495945050505050565b602081526000610a0260208301846122a1565b60008060006060848603121561230457600080fd5b61230d84611e1e565b9250602084013567ffffffffffffffff8082111561232a57600080fd5b61233687838801611f82565b9350604086013591508082111561234c57600080fd5b5061235986828701611f82565b9150509250925092565b6000806000806080858703121561237957600080fd5b61238285611e1e565b93506020850135925060408501359150606085013567ffffffffffffffff8111156123ac57600080fd5b6120f487828801611ff3565b600080604083850312156123cb57600080fd5b50508035926020909101359150565b600080604083850312156123ed57600080fd5b6123f683611e1e565b91506020830135801515811461240b57600080fd5b809150509250929050565b6000806040838503121561242957600080fd5b61243283611e1e565b91506121cd60208401611e1e565b600080600080600060a0868803121561245857600080fd5b61246186611e1e565b945061246f60208701611e1e565b93506040860135925060608601359150608086013567ffffffffffffffff81111561249957600080fd5b61219d88828901611ff3565b6000806000606084860312156124ba57600080fd5b6124c384611e1e565b95602085013595506040909401359392505050565b600181811c908216806124ec57607f821691505b6020821081141561250d57634e487b7160e01b600052602260045260246000fd5b50919050565b60208082526038908201527f455243313135355072657365744d696e7465725061757365723a206d7573742060408201527f68617665206d696e74657220726f6c6520746f206d696e740000000000000000606082015260800190565b634e487b7160e01b600052603260045260246000fd5b634e487b7160e01b600052601160045260246000fd5b60006000198214156125b0576125b0612586565b5060010190565b60208082526029908201527f455243313135353a2063616c6c6572206973206e6f74206f776e6572206e6f7260408201526808185c1c1c9bdd995960ba1b606082015260800190565b60008151612612818560208601611eb0565b9290920192915050565b600080845481600182811c91508083168061263857607f831692505b602080841082141561265857634e487b7160e01b86526022600452602486fd5b81801561266c576001811461267d576126aa565b60ff198616895284890196506126aa565b60008b81526020902060005b868110156126a25781548b820152908501908301612689565b505084890196505b5050505050506126ba8185612600565b95945050505050565b60208082526021908201527f455243313135353a206d696e7420746f20746865207a65726f206164647265736040820152607360f81b606082015260800190565b60208082526028908201527f455243313135353a2069647320616e6420616d6f756e7473206c656e677468206040820152670dad2e6dac2e8c6d60c31b606082015260800190565b6000821982111561275f5761275f612586565b500190565b60408152600061277760408301856122a1565b82810360208401526126ba81856122a1565b60208082526025908201527f455243313135353a207472616e7366657220746f20746865207a65726f206164604082015264647265737360d81b606082015260800190565b6020808252602a908201527f455243313135353a20696e73756666696369656e742062616c616e636520666f60408201526939103a3930b739b332b960b11b606082015260800190565b60208082526023908201527f455243313135353a206275726e2066726f6d20746865207a65726f206164647260408201526265737360e81b606082015260800190565b60208082526024908201527f455243313135353a206275726e20616d6f756e7420657863656564732062616c604082015263616e636560e01b606082015260800190565b6001600160a01b0386811682528516602082015260a0604082018190526000906128cb908301866122a1565b82810360608401526128dd81866122a1565b905082810360808401526128f18185611edc565b98975050505050505050565b60006020828403121561290f57600080fd5b8151610a0281611e64565b600060033d11156129335760046000803e5060005160e01c5b90565b600060443d10156129445790565b6040516003193d81016004833e81513d67ffffffffffffffff816024840111818411171561297457505050505090565b828501915081518181111561298c5750505050505090565b843d87010160208285010111156129a65750505050505090565b6129b560208286010187611f31565b509095945050505050565b60208082526028908201527f455243313135353a204552433131353552656365697665722072656a656374656040820152676420746f6b656e7360c01b606082015260800190565b7f416363657373436f6e74726f6c3a206163636f756e7420000000000000000000815260008351612a40816017850160208801611eb0565b7001034b99036b4b9b9b4b733903937b6329607d1b6017918401918201528351612a71816028840160208801611eb0565b01602801949350505050565b6001600160a01b03868116825285166020820152604081018490526060810183905260a060808201819052600090612ab790830184611edc565b979650505050505050565b6000816000190483118215151615612adc57612adc612586565b500290565b600081612af057612af0612586565b506000190190565b600082821015612b0a57612b0a612586565b500390565b634e487b7160e01b600052603160045260246000fdfea26469706673582212200b22794ca98df48c62a02a766ad2ef8bf12462d0e839a27fef861131b8444e2c64736f6c634300080c0033",
  "linkReferences": {},
  "deployedLinkReferences": {}
}