{
  "_format": "hh-sol-artifact-1",
  "contractName": "ERC1155TopDown",
  "sourceName": "contracts/ERC1155TopDown.sol",
  "abi": [
    {
      "inputs": [
        {
          "internalType": "string",
          "name": "_name",
          "type": "string"
        },
        {
          "internalType": "string",
          "name": "_symbol",
          "type": "string"
        }
      ],
      "stateMutability": "nonpayable",
      "type": "constructor"
    },
    {
      "anonymous": false,
      "inputs": [
        {
          "indexed": true,
          "internalType": "address",
          "name": "owner",
          "type": "address"
        },
        {
          "indexed": true,
          "internalType": "address",
          "name": "approved",
          "type": "address"
        },
        {
          "indexed": true,
          "internalType": "uint256",
          "name": "tokenId",
          "type": "uint256"
        }
      ],
      "name": "Approval",
      "type": "event"
    },
    {
      "anonymous": false,
      "inputs": [
        {
          "indexed": true,
          "internalType": "address",
          "name": "owner",
          "type": "address"
        },
        {
          "indexed": true,
          "internalType": "address",
          "name": "operator",
          "type": "address"
        },
        {
          "indexed": false,
          "internalType": "bool",
          "name": "approved",
          "type": "bool"
        }
      ],
      "name": "ApprovalForAll",
      "type": "event"
    },
    {
      "anonymous": false,
      "inputs": [
        {
          "indexed": true,
          "internalType": "address",
          "name": "from",
          "type": "address"
        },
        {
          "indexed": true,
          "internalType": "uint256",
          "name": "toTokenId",
          "type": "uint256"
        },
        {
          "indexed": true,
          "internalType": "address",
          "name": "childContract",
          "type": "address"
        },
        {
          "indexed": false,
          "internalType": "uint256",
          "name": "childTokenId",
          "type": "uint256"
        },
        {
          "indexed": false,
          "internalType": "uint256",
          "name": "amount",
          "type": "uint256"
        }
      ],
      "name": "ReceivedChild",
      "type": "event"
    },
    {
      "anonymous": false,
      "inputs": [
        {
          "indexed": true,
          "internalType": "address",
          "name": "from",
          "type": "address"
        },
        {
          "indexed": true,
          "internalType": "address",
          "name": "to",
          "type": "address"
        },
        {
          "indexed": true,
          "internalType": "uint256",
          "name": "tokenId",
          "type": "uint256"
        }
      ],
      "name": "Transfer",
      "type": "event"
    },
    {
      "anonymous": false,
      "inputs": [
        {
          "indexed": true,
          "internalType": "uint256",
          "name": "fromTokenId",
          "type": "uint256"
        },
        {
          "indexed": true,
          "internalType": "address",
          "name": "to",
          "type": "address"
        },
        {
          "indexed": true,
          "internalType": "address",
          "name": "childContract",
          "type": "address"
        },
        {
          "indexed": false,
          "internalType": "uint256[]",
          "name": "childTokenIds",
          "type": "uint256[]"
        },
        {
          "indexed": false,
          "internalType": "uint256[]",
          "name": "amounts",
          "type": "uint256[]"
        }
      ],
      "name": "TransferBatchChild",
      "type": "event"
    },
    {
      "anonymous": false,
      "inputs": [
        {
          "indexed": true,
          "internalType": "uint256",
          "name": "fromTokenId",
          "type": "uint256"
        },
        {
          "indexed": true,
          "internalType": "address",
          "name": "to",
          "type": "address"
        },
        {
          "indexed": true,
          "internalType": "address",
          "name": "childContract",
          "type": "address"
        },
        {
          "indexed": false,
          "internalType": "uint256",
          "name": "childTokenId",
          "type": "uint256"
        },
        {
          "indexed": false,
          "internalType": "uint256",
          "name": "amount",
          "type": "uint256"
        }
      ],
      "name": "TransferSingleChild",
      "type": "event"
    },
    {
      "inputs": [
        {
          "internalType": "address",
          "name": "to",
          "type": "address"
        },
        {
          "internalType": "uint256",
          "name": "tokenId",
          "type": "uint256"
        }
      ],
      "name": "approve",
      "outputs": [],
      "stateMutability": "nonpayable",
      "type": "function"
    },
    {
      "inputs": [
        {
          "internalType": "address",
          "name": "owner",
          "type": "address"
        }
      ],
      "name": "balanceOf",
      "outputs": [
        {
          "internalType": "uint256",
          "name": "",
          "type": "uint256"
        }
      ],
      "stateMutability": "view",
      "type": "function"
    },
    {
      "inputs": [
        {
          "internalType": "uint256",
          "name": "composableId",
          "type": "uint256"
        },
        {
          "internalType": "address",
          "name": "childContract",
          "type": "address"
        },
        {
          "internalType": "uint256",
          "name": "tierId",
          "type": "uint256"
        }
      ],
      "name": "childBalance",
      "outputs": [
        {
          "internalType": "uint256",
          "name": "",
          "type": "uint256"
        }
      ],
      "stateMutability": "view",
      "type": "function"
    },
    {
      "inputs": [
        {
          "internalType": "uint256",
          "name": "composableId",
          "type": "uint256"
        }
      ],
      "name": "childContractsFor",
      "outputs": [
        {
          "internalType": "address[]",
          "name": "",
          "type": "address[]"
        }
      ],
      "stateMutability": "view",
      "type": "function"
    },
    {
      "inputs": [
        {
          "internalType": "uint256",
          "name": "composableId",
          "type": "uint256"
        },
        {
          "internalType": "address",
          "name": "childContract",
          "type": "address"
        }
      ],
      "name": "childIdsForOn",
      "outputs": [
        {
          "internalType": "uint256[]",
          "name": "",
          "type": "uint256[]"
        }
      ],
      "stateMutability": "view",
      "type": "function"
    },
    {
      "inputs": [
        {
          "internalType": "uint256",
          "name": "tokenId",
          "type": "uint256"
        }
      ],
      "name": "getApproved",
      "outputs": [
        {
          "internalType": "address",
          "name": "",
          "type": "address"
        }
      ],
      "stateMutability": "view",
      "type": "function"
    },
    {
      "inputs": [
        {
          "internalType": "address",
          "name": "owner",
          "type": "address"
        },
        {
          "internalType": "address",
          "name": "operator",
          "type": "address"
        }
      ],
      "name": "isApprovedForAll",
      "outputs": [
        {
          "internalType": "bool",
          "name": "",
          "type": "bool"
        }
      ],
      "stateMutability": "view",
      "type": "function"
    },
    {
      "inputs": [],
      "name": "name",
      "outputs": [
        {
          "internalType": "string",
          "name": "",
          "type": "string"
        }
      ],
      "stateMutability": "view",
      "type": "function"
    },
    {
      "inputs": [
        {
          "internalType": "address",
          "name": "operator",
          "type": "address"
        },
        {
          "internalType": "address",
          "name": "from",
          "type": "address"
        },
        {
          "internalType": "uint256[]",
          "name": "ids",
          "type": "uint256[]"
        },
        {
          "internalType": "uint256[]",
          "name": "values",
          "type": "uint256[]"
        },
        {
          "internalType": "bytes",
          "name": "data",
          "type": "bytes"
        }
      ],
      "name": "onERC1155BatchReceived",
      "outputs": [
        {
          "internalType": "bytes4",
          "name": "",
          "type": "bytes4"
        }
      ],
      "stateMutability": "nonpayable",
      "type": "function"
    },
    {
      "inputs": [
        {
          "internalType": "address",
          "name": "operator",
          "type": "address"
        },
        {
          "internalType": "address",
          "name": "from",
          "type": "address"
        },
        {
          "internalType": "uint256",
          "name": "id",
          "type": "uint256"
        },
        {
          "internalType": "uint256",
          "name": "amount",
          "type": "uint256"
        },
        {
          "internalType": "bytes",
          "name": "data",
          "type": "bytes"
        }
      ],
      "name": "onERC1155Received",
      "outputs": [
        {
          "internalType": "bytes4",
          "name": "",
          "type": "bytes4"
        }
      ],
      "stateMutability": "nonpayable",
      "type": "function"
    },
    {
      "inputs": [
        {
          "internalType": "uint256",
          "name": "tokenId",
          "type": "uint256"
        }
      ],
      "name": "ownerOf",
      "outputs": [
        {
          "internalType": "address",
          "name": "",
          "type": "address"
        }
      ],
      "stateMutability": "view",
      "type": "function"
    },
    {
      "inputs": [
        {
          "internalType": "address",
          "name": "from",
          "type": "address"
        },
        {
          "internalType": "address",
          "name": "to",
          "type": "address"
        },
        {
          "internalType": "uint256",
          "name": "tokenId",
          "type": "uint256"
        }
      ],
      "name": "safeTransferFrom",
      "outputs": [],
      "stateMutability": "nonpayable",
      "type": "function"
    },
    {
      "inputs": [
        {
          "internalType": "address",
          "name": "from",
          "type": "address"
        },
        {
          "internalType": "address",
          "name": "to",
          "type": "address"
        },
        {
          "internalType": "uint256",
          "name": "tokenId",
          "type": "uint256"
        },
        {
          "internalType": "bytes",
          "name": "_data",
          "type": "bytes"
        }
      ],
      "name": "safeTransferFrom",
      "outputs": [],
      "stateMutability": "nonpayable",
      "type": "function"
    },
    {
      "inputs": [
        {
          "internalType": "address",
          "name": "operator",
          "type": "address"
        },
        {
          "internalType": "bool",
          "name": "approved",
          "type": "bool"
        }
      ],
      "name": "setApprovalForAll",
      "outputs": [],
      "stateMutability": "nonpayable",
      "type": "function"
    },
    {
      "inputs": [
        {
          "internalType": "bytes4",
          "name": "interfaceId",
          "type": "bytes4"
        }
      ],
      "name": "supportsInterface",
      "outputs": [
        {
          "internalType": "bool",
          "name": "",
          "type": "bool"
        }
      ],
      "stateMutability": "view",
      "type": "function"
    },
    {
      "inputs": [],
      "name": "symbol",
      "outputs": [
        {
          "internalType": "string",
          "name": "",
          "type": "string"
        }
      ],
      "stateMutability": "view",
      "type": "function"
    },
    {
      "inputs": [
        {
          "internalType": "uint256",
          "name": "tokenId",
          "type": "uint256"
        }
      ],
      "name": "tokenURI",
      "outputs": [
        {
          "internalType": "string",
          "name": "",
          "type": "string"
        }
      ],
      "stateMutability": "view",
      "type": "function"
    },
    {
      "inputs": [
        {
          "internalType": "address",
          "name": "from",
          "type": "address"
        },
        {
          "internalType": "address",
          "name": "to",
          "type": "address"
        },
        {
          "internalType": "uint256",
          "name": "tokenId",
          "type": "uint256"
        }
      ],
      "name": "transferFrom",
      "outputs": [],
      "stateMutability": "nonpayable",
      "type": "function"
    }
  ],
  "bytecode": "0x60806040523480156200001157600080fd5b50604051620020a3380380620020a38339810160408190526200003491620001e1565b8151829082906200004d9060009060208501906200006e565b508051620000639060019060208401906200006e565b505050505062000288565b8280546200007c906200024b565b90600052602060002090601f016020900481019282620000a05760008555620000eb565b82601f10620000bb57805160ff1916838001178555620000eb565b82800160010185558215620000eb579182015b82811115620000eb578251825591602001919060010190620000ce565b50620000f9929150620000fd565b5090565b5b80821115620000f95760008155600101620000fe565b634e487b7160e01b600052604160045260246000fd5b600082601f8301126200013c57600080fd5b81516001600160401b038082111562000159576200015962000114565b604051601f8301601f19908116603f0116810190828211818310171562000184576200018462000114565b81604052838152602092508683858801011115620001a157600080fd5b600091505b83821015620001c55785820183015181830184015290820190620001a6565b83821115620001d75760008385830101525b9695505050505050565b60008060408385031215620001f557600080fd5b82516001600160401b03808211156200020d57600080fd5b6200021b868387016200012a565b935060208501519150808211156200023257600080fd5b5062000241858286016200012a565b9150509250929050565b600181811c908216806200026057607f821691505b602082108114156200028257634e487b7160e01b600052602260045260246000fd5b50919050565b611e0b80620002986000396000f3fe608060405234801561001057600080fd5b50600436106101165760003560e01c806370a08231116100a2578063b88d4fde11610071578063b88d4fde1461028a578063bc197c811461029d578063c87b56dd146102c9578063e985e9c5146102dc578063f23a6e611461031857600080fd5b806370a082311461023c57806389e7e2f21461024f57806395d89b411461026f578063a22cb4651461027757600080fd5b806323b872dd116100e957806323b872dd146101985780632676608c146101ab57806342842e0e146101cb57806360d4d23a146101de5780636352211e1461022957600080fd5b806301ffc9a71461011b57806306fdde0314610143578063081812fc14610158578063095ea7b314610183575b600080fd5b61012e610129366004611619565b61032b565b60405190151581526020015b60405180910390f35b61014b61037d565b60405161013a919061168e565b61016b6101663660046116a1565b61040f565b6040516001600160a01b03909116815260200161013a565b6101966101913660046116d6565b6104a9565b005b6101966101a6366004611700565b6105bf565b6101be6101b936600461173c565b6105f0565b60405161013a9190611768565b6101966101d9366004611700565b6106fb565b61021b6101ec3660046117ac565b60009283526007602090815260408085206001600160a01b039490941685529281528284209184525290205490565b60405190815260200161013a565b61016b6102373660046116a1565b610716565b61021b61024a3660046117d1565b61078d565b61026261025d3660046116a1565b610814565b60405161013a91906117ec565b61014b6108ef565b61019661028536600461182d565b6108fe565b610196610298366004611920565b61090d565b6102b06102ab366004611a08565b610945565b6040516001600160e01b0319909116815260200161013a565b61014b6102d73660046116a1565b610ad7565b61012e6102ea366004611ab2565b6001600160a01b03918216600090815260056020908152604080832093909416825291909152205460ff1690565b6102b0610326366004611adc565b610c5e565b60006001600160e01b031982166380ac58cd60e01b148061035c57506001600160e01b03198216635b5e139f60e01b145b8061037757506301ffc9a760e01b6001600160e01b03198316145b92915050565b60606000805461038c90611b41565b80601f01602080910402602001604051908101604052809291908181526020018280546103b890611b41565b80156104055780601f106103da57610100808354040283529160200191610405565b820191906000526020600020905b8154815290600101906020018083116103e857829003601f168201915b5050505050905090565b6000818152600260205260408120546001600160a01b031661048d5760405162461bcd60e51b815260206004820152602c60248201527f4552433732313a20617070726f76656420717565727920666f72206e6f6e657860448201526b34b9ba32b73a103a37b5b2b760a11b60648201526084015b60405180910390fd5b506000908152600460205260409020546001600160a01b031690565b60006104b482610716565b9050806001600160a01b0316836001600160a01b031614156105225760405162461bcd60e51b815260206004820152602160248201527f4552433732313a20617070726f76616c20746f2063757272656e74206f776e656044820152603960f91b6064820152608401610484565b336001600160a01b038216148061053e575061053e81336102ea565b6105b05760405162461bcd60e51b815260206004820152603860248201527f4552433732313a20617070726f76652063616c6c6572206973206e6f74206f7760448201527f6e6572206e6f7220617070726f76656420666f7220616c6c00000000000000006064820152608401610484565b6105ba8383610d1f565b505050565b6105c93382610d8d565b6105e55760405162461bcd60e51b815260040161048490611b7c565b6105ba838383610e83565b6000828152600a602090815260408083206001600160a01b038516845290915281206060919061061f9061101f565b67ffffffffffffffff81111561063757610637611869565b604051908082528060200260200182016040528015610660578160200160208202803683370190505b50905060005b6000858152600a602090815260408083206001600160a01b038816845290915290206106919061101f565b8110156106f3576000858152600a602090815260408083206001600160a01b038816845290915290206106c49082611029565b8282815181106106d6576106d6611bcd565b6020908102919091010152806106eb81611bf9565b915050610666565b509392505050565b6105ba8383836040518060200160405280600081525061090d565b6000818152600260205260408120546001600160a01b0316806103775760405162461bcd60e51b815260206004820152602960248201527f4552433732313a206f776e657220717565727920666f72206e6f6e657869737460448201526832b73a103a37b5b2b760b91b6064820152608401610484565b60006001600160a01b0382166107f85760405162461bcd60e51b815260206004820152602a60248201527f4552433732313a2062616c616e636520717565727920666f7220746865207a65604482015269726f206164647265737360b01b6064820152608401610484565b506001600160a01b031660009081526003602052604090205490565b60008181526009602052604081206060919061082f9061101f565b67ffffffffffffffff81111561084757610847611869565b604051908082528060200260200182016040528015610870578160200160208202803683370190505b50905060005b600084815260096020526040902061088d9061101f565b8110156108e85760008481526009602052604090206108ac9082611029565b8282815181106108be576108be611bcd565b6001600160a01b0390921660209283029190910190910152806108e081611bf9565b915050610876565b5092915050565b60606001805461038c90611b41565b61090933838361103c565b5050565b6109173383610d8d565b6109335760405162461bcd60e51b815260040161048490611b7c565b61093f8484848461110b565b50505050565b600081516020146109685760405162461bcd60e51b815260040161048490611c14565b82518451146109c95760405162461bcd60e51b815260206004820152602760248201527f455243313135353a2069647320616e642076616c756573206c656e677468206d6044820152660d2e6dac2e8c6d60cb1b6064820152608401610484565b6000806109d7602036611c8d565b90508035915060005b8651811015610ac257610a278333898481518110610a0057610a00611bcd565b6020026020010151898581518110610a1a57610a1a611bcd565b602002602001015161113e565b336001600160a01b031683896001600160a01b03167fa18753b0660a8be2cdae03468c860b47c2926433ab16917f323544652803032d8a8581518110610a6f57610a6f611bcd565b60200260200101518a8681518110610a8957610a89611bcd565b6020026020010151604051610aa8929190918252602082015260400190565b60405180910390a480610aba81611bf9565b9150506109e0565b5063bc197c8160e01b98975050505050505050565b6000818152600260205260409020546060906001600160a01b0316610b585760405162461bcd60e51b815260206004820152603160248201527f45524337323155524953746f726167653a2055524920717565727920666f72206044820152703737b732bc34b9ba32b73a103a37b5b2b760791b6064820152608401610484565b60008281526006602052604081208054610b7190611b41565b80601f0160208091040260200160405190810160405280929190818152602001828054610b9d90611b41565b8015610bea5780601f10610bbf57610100808354040283529160200191610bea565b820191906000526020600020905b815481529060010190602001808311610bcd57829003601f168201915b505050505090506000610c0860408051602081019091526000815290565b9050805160001415610c1b575092915050565b815115610c4d578082604051602001610c35929190611ca4565b60405160208183030381529060405292505050919050565b610c5684611216565b949350505050565b60008151602014610c815760405162461bcd60e51b815260040161048490611c14565b610ca38660003088610c92896112fd565b610c9b896112fd565b505050505050565b600080610cb1602036611c8d565b905080359150610cc38233888861113e565b6040805187815260208101879052339184916001600160a01b038b16917fa18753b0660a8be2cdae03468c860b47c2926433ab16917f323544652803032d910160405180910390a45063f23a6e6160e01b979650505050505050565b600081815260046020526040902080546001600160a01b0319166001600160a01b0384169081179091558190610d5482610716565b6001600160a01b03167f8c5be1e5ebec7d5bd14f71427d1e84f3dd0314c0f7b2291e5b200ac8c7c3b92560405160405180910390a45050565b6000818152600260205260408120546001600160a01b0316610e065760405162461bcd60e51b815260206004820152602c60248201527f4552433732313a206f70657261746f7220717565727920666f72206e6f6e657860448201526b34b9ba32b73a103a37b5b2b760a11b6064820152608401610484565b6000610e1183610716565b9050806001600160a01b0316846001600160a01b03161480610e5857506001600160a01b0380821660009081526005602090815260408083209388168352929052205460ff165b80610c565750836001600160a01b0316610e718461040f565b6001600160a01b031614949350505050565b826001600160a01b0316610e9682610716565b6001600160a01b031614610efa5760405162461bcd60e51b815260206004820152602560248201527f4552433732313a207472616e736665722066726f6d20696e636f72726563742060448201526437bbb732b960d91b6064820152608401610484565b6001600160a01b038216610f5c5760405162461bcd60e51b8152602060048201526024808201527f4552433732313a207472616e7366657220746f20746865207a65726f206164646044820152637265737360e01b6064820152608401610484565b610f67600082610d1f565b6001600160a01b0383166000908152600360205260408120805460019290610f90908490611c8d565b90915550506001600160a01b0382166000908152600360205260408120805460019290610fbe908490611cd3565b909155505060008181526002602052604080822080546001600160a01b0319166001600160a01b0386811691821790925591518493918716917fddf252ad1be2c89b69c2b068fc378daa952ba7f163c4a11628f55a4df523b3ef91a4505050565b6000610377825490565b60006110358383611348565b9392505050565b816001600160a01b0316836001600160a01b0316141561109e5760405162461bcd60e51b815260206004820152601960248201527f4552433732313a20617070726f766520746f2063616c6c6572000000000000006044820152606401610484565b6001600160a01b03838116600081815260056020908152604080832094871680845294825291829020805460ff191686151590811790915591519182527f17307eab39ab6107e8899845ad3d59bd9653f200f220920489ca2b5937696c31910160405180910390a3505050565b611116848484610e83565b61112284848484611372565b61093f5760405162461bcd60e51b815260040161048490611ceb565b60008481526009602052604090206111569084611470565b6111745760008481526009602052604090206111729084611492565b505b60008481526007602090815260408083206001600160a01b038716845282528083208584529091529020546111d1576000828152600a602090815260408083206001600160a01b038716845290915290206111cf90836114a7565b505b60008481526007602090815260408083206001600160a01b038716845282528083208584529091528120805483929061120b908490611cd3565b909155505050505050565b6000818152600260205260409020546060906001600160a01b03166112955760405162461bcd60e51b815260206004820152602f60248201527f4552433732314d657461646174613a2055524920717565727920666f72206e6f60448201526e3732bc34b9ba32b73a103a37b5b2b760891b6064820152608401610484565b60006112ac60408051602081019091526000815290565b905060008151116112cc5760405180602001604052806000815250611035565b806112d6846114b3565b6040516020016112e7929190611ca4565b6040516020818303038152906040529392505050565b6040805160018082528183019092526060916000919060208083019080368337019050509050828160008151811061133757611337611bcd565b602090810291909101015292915050565b600082600001828154811061135f5761135f611bcd565b9060005260206000200154905092915050565b60006001600160a01b0384163b1561146557604051630a85bd0160e11b81526001600160a01b0385169063150b7a02906113b6903390899088908890600401611d3d565b6020604051808303816000875af19250505080156113f1575060408051601f3d908101601f191682019092526113ee91810190611d7a565b60015b61144b573d80801561141f576040519150601f19603f3d011682016040523d82523d6000602084013e611424565b606091505b5080516114435760405162461bcd60e51b815260040161048490611ceb565b805181602001fd5b6001600160e01b031916630a85bd0160e11b149050610c56565b506001949350505050565b6001600160a01b03811660009081526001830160205260408120541515611035565b6000611035836001600160a01b0384166115b1565b600061103583836115b1565b6060816114d75750506040805180820190915260018152600360fc1b602082015290565b8160005b811561150157806114eb81611bf9565b91506114fa9050600a83611dad565b91506114db565b60008167ffffffffffffffff81111561151c5761151c611869565b6040519080825280601f01601f191660200182016040528015611546576020820181803683370190505b5090505b8415610c565761155b600183611c8d565b9150611568600a86611dc1565b611573906030611cd3565b60f81b81838151811061158857611588611bcd565b60200101906001600160f81b031916908160001a9053506115aa600a86611dad565b945061154a565b60008181526001830160205260408120546115f857508154600181810184556000848152602080822090930184905584548482528286019093526040902091909155610377565b506000610377565b6001600160e01b03198116811461161657600080fd5b50565b60006020828403121561162b57600080fd5b813561103581611600565b60005b83811015611651578181015183820152602001611639565b8381111561093f5750506000910152565b6000815180845261167a816020860160208601611636565b601f01601f19169290920160200192915050565b6020815260006110356020830184611662565b6000602082840312156116b357600080fd5b5035919050565b80356001600160a01b03811681146116d157600080fd5b919050565b600080604083850312156116e957600080fd5b6116f2836116ba565b946020939093013593505050565b60008060006060848603121561171557600080fd5b61171e846116ba565b925061172c602085016116ba565b9150604084013590509250925092565b6000806040838503121561174f57600080fd5b8235915061175f602084016116ba565b90509250929050565b6020808252825182820181905260009190848201906040850190845b818110156117a057835183529284019291840191600101611784565b50909695505050505050565b6000806000606084860312156117c157600080fd5b8335925061172c602085016116ba565b6000602082840312156117e357600080fd5b611035826116ba565b6020808252825182820181905260009190848201906040850190845b818110156117a05783516001600160a01b031683529284019291840191600101611808565b6000806040838503121561184057600080fd5b611849836116ba565b91506020830135801515811461185e57600080fd5b809150509250929050565b634e487b7160e01b600052604160045260246000fd5b604051601f8201601f1916810167ffffffffffffffff811182821017156118a8576118a8611869565b604052919050565b600082601f8301126118c157600080fd5b813567ffffffffffffffff8111156118db576118db611869565b6118ee601f8201601f191660200161187f565b81815284602083860101111561190357600080fd5b816020850160208301376000918101602001919091529392505050565b6000806000806080858703121561193657600080fd5b61193f856116ba565b935061194d602086016116ba565b925060408501359150606085013567ffffffffffffffff81111561197057600080fd5b61197c878288016118b0565b91505092959194509250565b600082601f83011261199957600080fd5b8135602067ffffffffffffffff8211156119b5576119b5611869565b8160051b6119c482820161187f565b92835284810182019282810190878511156119de57600080fd5b83870192505b848310156119fd578235825291830191908301906119e4565b979650505050505050565b600080600080600060a08688031215611a2057600080fd5b611a29866116ba565b9450611a37602087016116ba565b9350604086013567ffffffffffffffff80821115611a5457600080fd5b611a6089838a01611988565b94506060880135915080821115611a7657600080fd5b611a8289838a01611988565b93506080880135915080821115611a9857600080fd5b50611aa5888289016118b0565b9150509295509295909350565b60008060408385031215611ac557600080fd5b611ace836116ba565b915061175f602084016116ba565b600080600080600060a08688031215611af457600080fd5b611afd866116ba565b9450611b0b602087016116ba565b93506040860135925060608601359150608086013567ffffffffffffffff811115611b3557600080fd5b611aa5888289016118b0565b600181811c90821680611b5557607f821691505b60208210811415611b7657634e487b7160e01b600052602260045260246000fd5b50919050565b60208082526031908201527f4552433732313a207472616e736665722063616c6c6572206973206e6f74206f6040820152701ddb995c881b9bdc88185c1c1c9bdd9959607a1b606082015260800190565b634e487b7160e01b600052603260045260246000fd5b634e487b7160e01b600052601160045260246000fd5b6000600019821415611c0d57611c0d611be3565b5060010190565b60208082526053908201527f4552433939383a2064617461206d75737420636f6e7461696e2074686520756e60408201527f697175652075696e7432353620746f6b656e496420746f207472616e7366657260608201527220746865206368696c6420746f6b656e20746f60681b608082015260a00190565b600082821015611c9f57611c9f611be3565b500390565b60008351611cb6818460208801611636565b835190830190611cca818360208801611636565b01949350505050565b60008219821115611ce657611ce6611be3565b500190565b60208082526032908201527f4552433732313a207472616e7366657220746f206e6f6e20455243373231526560408201527131b2b4bb32b91034b6b83632b6b2b73a32b960711b606082015260800190565b6001600160a01b0385811682528416602082015260408101839052608060608201819052600090611d7090830184611662565b9695505050505050565b600060208284031215611d8c57600080fd5b815161103581611600565b634e487b7160e01b600052601260045260246000fd5b600082611dbc57611dbc611d97565b500490565b600082611dd057611dd0611d97565b50069056fea26469706673582212206034d23c8acefbc3d0dd73a1e934a4c8ca0bd2cff06d6388c740727a0f4a247964736f6c634300080c0033",
  "linkReferences": {},
  "deployedLinkReferences": {}
}