{
  "_format": "hh-sol-artifact-1",
  "contractName": "ERC1155TopDown",
  "sourceName": "contracts/ERC1155TopDown.sol",
  "abi": [
    {
      "inputs": [
        {
          "internalType": "string",
          "name": "_name",
          "type": "string"
        },
        {
          "internalType": "string",
          "name": "_symbol",
          "type": "string"
        },
        {
          "internalType": "string",
          "name": "_baseURI",
          "type": "string"
        }
      ],
      "stateMutability": "nonpayable",
      "type": "constructor"
    },
    {
      "anonymous": false,
      "inputs": [
        {
          "indexed": true,
          "internalType": "address",
          "name": "owner",
          "type": "address"
        },
        {
          "indexed": true,
          "internalType": "address",
          "name": "approved",
          "type": "address"
        },
        {
          "indexed": true,
          "internalType": "uint256",
          "name": "tokenId",
          "type": "uint256"
        }
      ],
      "name": "Approval",
      "type": "event"
    },
    {
      "anonymous": false,
      "inputs": [
        {
          "indexed": true,
          "internalType": "address",
          "name": "owner",
          "type": "address"
        },
        {
          "indexed": true,
          "internalType": "address",
          "name": "operator",
          "type": "address"
        },
        {
          "indexed": false,
          "internalType": "bool",
          "name": "approved",
          "type": "bool"
        }
      ],
      "name": "ApprovalForAll",
      "type": "event"
    },
    {
      "anonymous": false,
      "inputs": [
        {
          "indexed": true,
          "internalType": "address",
          "name": "from",
          "type": "address"
        },
        {
          "indexed": true,
          "internalType": "uint256",
          "name": "toTokenId",
          "type": "uint256"
        },
        {
          "indexed": true,
          "internalType": "address",
          "name": "childContract",
          "type": "address"
        },
        {
          "indexed": false,
          "internalType": "uint256",
          "name": "childTokenId",
          "type": "uint256"
        },
        {
          "indexed": false,
          "internalType": "uint256",
          "name": "amount",
          "type": "uint256"
        }
      ],
      "name": "ReceivedChild",
      "type": "event"
    },
    {
      "anonymous": false,
      "inputs": [
        {
          "indexed": true,
          "internalType": "address",
          "name": "from",
          "type": "address"
        },
        {
          "indexed": true,
          "internalType": "address",
          "name": "to",
          "type": "address"
        },
        {
          "indexed": true,
          "internalType": "uint256",
          "name": "tokenId",
          "type": "uint256"
        }
      ],
      "name": "Transfer",
      "type": "event"
    },
    {
      "anonymous": false,
      "inputs": [
        {
          "indexed": true,
          "internalType": "uint256",
          "name": "fromTokenId",
          "type": "uint256"
        },
        {
          "indexed": true,
          "internalType": "address",
          "name": "to",
          "type": "address"
        },
        {
          "indexed": true,
          "internalType": "address",
          "name": "childContract",
          "type": "address"
        },
        {
          "indexed": false,
          "internalType": "uint256[]",
          "name": "childTokenIds",
          "type": "uint256[]"
        },
        {
          "indexed": false,
          "internalType": "uint256[]",
          "name": "amounts",
          "type": "uint256[]"
        }
      ],
      "name": "TransferBatchChild",
      "type": "event"
    },
    {
      "anonymous": false,
      "inputs": [
        {
          "indexed": true,
          "internalType": "uint256",
          "name": "fromTokenId",
          "type": "uint256"
        },
        {
          "indexed": true,
          "internalType": "address",
          "name": "to",
          "type": "address"
        },
        {
          "indexed": true,
          "internalType": "address",
          "name": "childContract",
          "type": "address"
        },
        {
          "indexed": false,
          "internalType": "uint256",
          "name": "childTokenId",
          "type": "uint256"
        },
        {
          "indexed": false,
          "internalType": "uint256",
          "name": "amount",
          "type": "uint256"
        }
      ],
      "name": "TransferSingleChild",
      "type": "event"
    },
    {
      "inputs": [
        {
          "internalType": "address",
          "name": "to",
          "type": "address"
        },
        {
          "internalType": "uint256",
          "name": "tokenId",
          "type": "uint256"
        }
      ],
      "name": "approve",
      "outputs": [],
      "stateMutability": "nonpayable",
      "type": "function"
    },
    {
      "inputs": [
        {
          "internalType": "address",
          "name": "owner",
          "type": "address"
        }
      ],
      "name": "balanceOf",
      "outputs": [
        {
          "internalType": "uint256",
          "name": "",
          "type": "uint256"
        }
      ],
      "stateMutability": "view",
      "type": "function"
    },
    {
      "inputs": [],
      "name": "baseURI",
      "outputs": [
        {
          "internalType": "string",
          "name": "",
          "type": "string"
        }
      ],
      "stateMutability": "view",
      "type": "function"
    },
    {
      "inputs": [
        {
          "internalType": "uint256",
          "name": "composableId",
          "type": "uint256"
        },
        {
          "internalType": "address",
          "name": "childContract",
          "type": "address"
        },
        {
          "internalType": "uint256",
          "name": "tierId",
          "type": "uint256"
        }
      ],
      "name": "childBalance",
      "outputs": [
        {
          "internalType": "uint256",
          "name": "",
          "type": "uint256"
        }
      ],
      "stateMutability": "view",
      "type": "function"
    },
    {
      "inputs": [
        {
          "internalType": "uint256",
          "name": "composableId",
          "type": "uint256"
        }
      ],
      "name": "childContractsFor",
      "outputs": [
        {
          "internalType": "address[]",
          "name": "",
          "type": "address[]"
        }
      ],
      "stateMutability": "view",
      "type": "function"
    },
    {
      "inputs": [
        {
          "internalType": "uint256",
          "name": "composableId",
          "type": "uint256"
        },
        {
          "internalType": "address",
          "name": "childContract",
          "type": "address"
        }
      ],
      "name": "childIdsForOn",
      "outputs": [
        {
          "internalType": "uint256[]",
          "name": "",
          "type": "uint256[]"
        }
      ],
      "stateMutability": "view",
      "type": "function"
    },
    {
      "inputs": [
        {
          "internalType": "uint256",
          "name": "tokenId",
          "type": "uint256"
        }
      ],
      "name": "getApproved",
      "outputs": [
        {
          "internalType": "address",
          "name": "",
          "type": "address"
        }
      ],
      "stateMutability": "view",
      "type": "function"
    },
    {
      "inputs": [
        {
          "internalType": "address",
          "name": "owner",
          "type": "address"
        },
        {
          "internalType": "address",
          "name": "operator",
          "type": "address"
        }
      ],
      "name": "isApprovedForAll",
      "outputs": [
        {
          "internalType": "bool",
          "name": "",
          "type": "bool"
        }
      ],
      "stateMutability": "view",
      "type": "function"
    },
    {
      "inputs": [],
      "name": "name",
      "outputs": [
        {
          "internalType": "string",
          "name": "",
          "type": "string"
        }
      ],
      "stateMutability": "view",
      "type": "function"
    },
    {
      "inputs": [
        {
          "internalType": "address",
          "name": "operator",
          "type": "address"
        },
        {
          "internalType": "address",
          "name": "from",
          "type": "address"
        },
        {
          "internalType": "uint256[]",
          "name": "ids",
          "type": "uint256[]"
        },
        {
          "internalType": "uint256[]",
          "name": "values",
          "type": "uint256[]"
        },
        {
          "internalType": "bytes",
          "name": "data",
          "type": "bytes"
        }
      ],
      "name": "onERC1155BatchReceived",
      "outputs": [
        {
          "internalType": "bytes4",
          "name": "",
          "type": "bytes4"
        }
      ],
      "stateMutability": "nonpayable",
      "type": "function"
    },
    {
      "inputs": [
        {
          "internalType": "address",
          "name": "operator",
          "type": "address"
        },
        {
          "internalType": "address",
          "name": "from",
          "type": "address"
        },
        {
          "internalType": "uint256",
          "name": "id",
          "type": "uint256"
        },
        {
          "internalType": "uint256",
          "name": "amount",
          "type": "uint256"
        },
        {
          "internalType": "bytes",
          "name": "data",
          "type": "bytes"
        }
      ],
      "name": "onERC1155Received",
      "outputs": [
        {
          "internalType": "bytes4",
          "name": "",
          "type": "bytes4"
        }
      ],
      "stateMutability": "nonpayable",
      "type": "function"
    },
    {
      "inputs": [
        {
          "internalType": "uint256",
          "name": "tokenId",
          "type": "uint256"
        }
      ],
      "name": "ownerOf",
      "outputs": [
        {
          "internalType": "address",
          "name": "",
          "type": "address"
        }
      ],
      "stateMutability": "view",
      "type": "function"
    },
    {
      "inputs": [
        {
          "internalType": "address",
          "name": "from",
          "type": "address"
        },
        {
          "internalType": "address",
          "name": "to",
          "type": "address"
        },
        {
          "internalType": "uint256",
          "name": "tokenId",
          "type": "uint256"
        }
      ],
      "name": "safeTransferFrom",
      "outputs": [],
      "stateMutability": "nonpayable",
      "type": "function"
    },
    {
      "inputs": [
        {
          "internalType": "address",
          "name": "from",
          "type": "address"
        },
        {
          "internalType": "address",
          "name": "to",
          "type": "address"
        },
        {
          "internalType": "uint256",
          "name": "tokenId",
          "type": "uint256"
        },
        {
          "internalType": "bytes",
          "name": "_data",
          "type": "bytes"
        }
      ],
      "name": "safeTransferFrom",
      "outputs": [],
      "stateMutability": "nonpayable",
      "type": "function"
    },
    {
      "inputs": [
        {
          "internalType": "address",
          "name": "operator",
          "type": "address"
        },
        {
          "internalType": "bool",
          "name": "approved",
          "type": "bool"
        }
      ],
      "name": "setApprovalForAll",
      "outputs": [],
      "stateMutability": "nonpayable",
      "type": "function"
    },
    {
      "inputs": [
        {
          "internalType": "bytes4",
          "name": "interfaceId",
          "type": "bytes4"
        }
      ],
      "name": "supportsInterface",
      "outputs": [
        {
          "internalType": "bool",
          "name": "",
          "type": "bool"
        }
      ],
      "stateMutability": "view",
      "type": "function"
    },
    {
      "inputs": [],
      "name": "symbol",
      "outputs": [
        {
          "internalType": "string",
          "name": "",
          "type": "string"
        }
      ],
      "stateMutability": "view",
      "type": "function"
    },
    {
      "inputs": [
        {
          "internalType": "uint256",
          "name": "index",
          "type": "uint256"
        }
      ],
      "name": "tokenByIndex",
      "outputs": [
        {
          "internalType": "uint256",
          "name": "",
          "type": "uint256"
        }
      ],
      "stateMutability": "view",
      "type": "function"
    },
    {
      "inputs": [
        {
          "internalType": "address",
          "name": "owner",
          "type": "address"
        },
        {
          "internalType": "uint256",
          "name": "index",
          "type": "uint256"
        }
      ],
      "name": "tokenOfOwnerByIndex",
      "outputs": [
        {
          "internalType": "uint256",
          "name": "",
          "type": "uint256"
        }
      ],
      "stateMutability": "view",
      "type": "function"
    },
    {
      "inputs": [
        {
          "internalType": "uint256",
          "name": "tokenId",
          "type": "uint256"
        }
      ],
      "name": "tokenURI",
      "outputs": [
        {
          "internalType": "string",
          "name": "",
          "type": "string"
        }
      ],
      "stateMutability": "view",
      "type": "function"
    },
    {
      "inputs": [],
      "name": "totalSupply",
      "outputs": [
        {
          "internalType": "uint256",
          "name": "",
          "type": "uint256"
        }
      ],
      "stateMutability": "view",
      "type": "function"
    },
    {
      "inputs": [
        {
          "internalType": "address",
          "name": "from",
          "type": "address"
        },
        {
          "internalType": "address",
          "name": "to",
          "type": "address"
        },
        {
          "internalType": "uint256",
          "name": "tokenId",
          "type": "uint256"
        }
      ],
      "name": "transferFrom",
      "outputs": [],
      "stateMutability": "nonpayable",
      "type": "function"
    }
  ],
  "bytecode": "0x60806040523480156200001157600080fd5b50604051620027c7380380620027c7833981810160405260608110156200003757600080fd5b81019080805160405193929190846401000000008211156200005857600080fd5b9083019060208201858111156200006e57600080fd5b82516401000000008111828201881017156200008957600080fd5b82525081516020918201929091019080838360005b83811015620000b85781810151838201526020016200009e565b50505050905090810190601f168015620000e65780820380516001836020036101000a031916815260200191505b50604052602001805160405193929190846401000000008211156200010a57600080fd5b9083019060208201858111156200012057600080fd5b82516401000000008111828201881017156200013b57600080fd5b82525081516020918201929091019080838360005b838110156200016a57818101518382015260200162000150565b50505050905090810190601f168015620001985780820380516001836020036101000a031916815260200191505b5060405260200180516040519392919084640100000000821115620001bc57600080fd5b908301906020820185811115620001d257600080fd5b8251640100000000811182820188101715620001ed57600080fd5b82525081516020918201929091019080838360005b838110156200021c57818101518382015260200162000202565b50505050905090810190601f1680156200024a5780820380516001836020036101000a031916815260200191505b5060405250849150839050620002706301ffc9a760e01b6001600160e01b036200032816565b815162000285906006906020850190620003c6565b5080516200029b906007906020840190620003c6565b50620002b76380ac58cd60e01b6001600160e01b036200032816565b620002d2635b5e139f60e01b6001600160e01b036200032816565b620002ed63780e9d6360e01b6001600160e01b036200032816565b506200030b9050630271189760e51b6001600160e01b036200032816565b6200031f816001600160e01b03620003ad16565b5050506200046b565b6001600160e01b0319808216141562000388576040805162461bcd60e51b815260206004820152601c60248201527f4552433136353a20696e76616c696420696e7465726661636520696400000000604482015290519081900360640190fd5b6001600160e01b0319166000908152602081905260409020805460ff19166001179055565b8051620003c2906009906020840190620003c6565b5050565b828054600181600116156101000203166002900490600052602060002090601f016020900481019282601f106200040957805160ff191683800117855562000439565b8280016001018555821562000439579182015b82811115620004395782518255916020019190600101906200041c565b50620004479291506200044b565b5090565b6200046891905b8082111562000447576000815560010162000452565b90565b61234c806200047b6000396000f3fe608060405234801561001057600080fd5b50600436106101425760003560e01c80636352211e116100b8578063a22cb4651161007c578063a22cb46514610453578063b88d4fde14610481578063bc197c8114610545578063c87b56dd14610723578063e985e9c514610740578063f23a6e611461076e57610142565b80636352211e146103e35780636c0360eb1461040057806370a082311461040857806389e7e2f21461042e57806395d89b411461044b57610142565b806323b872dd1161010a57806323b872dd146102805780632676608c146102b65780632f745c591461033257806342842e0e1461035e5780634f6ccce71461039457806360d4d23a146103b157610142565b806301ffc9a71461014757806306fdde0314610182578063081812fc146101ff578063095ea7b31461023857806318160ddd14610266575b600080fd5b61016e6004803603602081101561015d57600080fd5b50356001600160e01b031916610837565b604080519115158252519081900360200190f35b61018a61085a565b6040805160208082528351818301528351919283929083019185019080838360005b838110156101c45781810151838201526020016101ac565b50505050905090810190601f1680156101f15780820380516001836020036101000a031916815260200191505b509250505060405180910390f35b61021c6004803603602081101561021557600080fd5b50356108f0565b604080516001600160a01b039092168252519081900360200190f35b6102646004803603604081101561024e57600080fd5b506001600160a01b038135169060200135610952565b005b61026e610a2d565b60408051918252519081900360200190f35b6102646004803603606081101561029657600080fd5b506001600160a01b03813581169160208101359091169060400135610a3e565b6102e2600480360360408110156102cc57600080fd5b50803590602001356001600160a01b0316610a95565b60408051602080825283518183015283519192839290830191858101910280838360005b8381101561031e578181015183820152602001610306565b505050509050019250505060405180910390f35b61026e6004803603604081101561034857600080fd5b506001600160a01b038135169060200135610b81565b6102646004803603606081101561037457600080fd5b506001600160a01b03813581169160208101359091169060400135610bb0565b61026e600480360360208110156103aa57600080fd5b5035610bcb565b61026e600480360360608110156103c757600080fd5b508035906001600160a01b036020820135169060400135610be7565b61021c600480360360208110156103f957600080fd5b5035610c16565b61018a610c44565b61026e6004803603602081101561041e57600080fd5b50356001600160a01b0316610ca5565b6102e26004803603602081101561044457600080fd5b5035610d0d565b61018a610dc7565b6102646004803603604081101561046957600080fd5b506001600160a01b0381351690602001351515610e28565b6102646004803603608081101561049757600080fd5b6001600160a01b03823581169260208101359091169160408201359190810190608081016060820135600160201b8111156104d157600080fd5b8201836020820111156104e357600080fd5b803590602001918460018302840111600160201b8311171561050457600080fd5b91908080601f016020809104026020016040519081016040528093929190818152602001838380828437600092019190915250929550610f2d945050505050565b610706600480360360a081101561055b57600080fd5b6001600160a01b038235811692602081013590911691810190606081016040820135600160201b81111561058e57600080fd5b8201836020820111156105a057600080fd5b803590602001918460208302840111600160201b831117156105c157600080fd5b9190808060200260200160405190810160405280939291908181526020018383602002808284376000920191909152509295949360208101935035915050600160201b81111561061057600080fd5b82018360208201111561062257600080fd5b803590602001918460208302840111600160201b8311171561064357600080fd5b9190808060200260200160405190810160405280939291908181526020018383602002808284376000920191909152509295949360208101935035915050600160201b81111561069257600080fd5b8201836020820111156106a457600080fd5b803590602001918460018302840111600160201b831117156106c557600080fd5b91908080601f016020809104026020016040519081016040528093929190818152602001838380828437600092019190915250929550610f8b945050505050565b604080516001600160e01b03199092168252519081900360200190f35b61018a6004803603602081101561073957600080fd5b50356110fa565b61016e6004803603604081101561075657600080fd5b506001600160a01b03813581169160200135166113a1565b610706600480360360a081101561078457600080fd5b6001600160a01b03823581169260208101359091169160408201359160608101359181019060a081016080820135600160201b8111156107c357600080fd5b8201836020820111156107d557600080fd5b803590602001918460018302840111600160201b831117156107f657600080fd5b91908080601f0160208091040260200160405190810160405280939291908181526020018383808284376000920191909152509295506113cf945050505050565b6001600160e01b0319811660009081526020819052604090205460ff165b919050565b60068054604080516020601f60026000196101006001881615020190951694909404938401819004810282018101909252828152606093909290918301828280156108e65780601f106108bb576101008083540402835291602001916108e6565b820191906000526020600020905b8154815290600101906020018083116108c957829003601f168201915b5050505050905090565b60006108fb826114a3565b6109365760405162461bcd60e51b815260040180806020018281038252602c81526020018061221a602c913960400191505060405180910390fd5b506000908152600460205260409020546001600160a01b031690565b600061095d82610c16565b9050806001600160a01b0316836001600160a01b031614156109b05760405162461bcd60e51b815260040180806020018281038252602181526020018061229e6021913960400191505060405180910390fd5b806001600160a01b03166109c26114b6565b6001600160a01b031614806109e357506109e3816109de6114b6565b6113a1565b610a1e5760405162461bcd60e51b815260040180806020018281038252603881526020018061216d6038913960400191505060405180910390fd5b610a2883836114ba565b505050565b6000610a396002611528565b905090565b610a4f610a496114b6565b82611533565b610a8a5760405162461bcd60e51b81526004018080602001828103825260318152602001806122e66031913960400191505060405180910390fd5b610a288383836115d7565b6000828152600d602090815260408083206001600160a01b038516845290915290206060908190610ac590611528565b604051908082528060200260200182016040528015610aee578160200160208202803683370190505b50905060005b6000858152600d602090815260408083206001600160a01b03881684529091529020610b1f90611528565b811015610b77576000858152600d602090815260408083206001600160a01b03881684529091529020610b58908263ffffffff61173516565b828281518110610b6457fe5b6020908102919091010152600101610af4565b5090505b92915050565b6001600160a01b0382166000908152600160205260408120610ba9908363ffffffff61173516565b9392505050565b610a2883838360405180602001604052806000815250610f2d565b600080610bdf60028463ffffffff61174116565b509392505050565b6000928352600a602090815260408085206001600160a01b039490941685529281528284209184525290205490565b6000610b7b826040518060600160405280602981526020016121cf602991396002919063ffffffff61175d16565b60098054604080516020601f60026000196101006001881615020190951694909404938401819004810282018101909252828152606093909290918301828280156108e65780601f106108bb576101008083540402835291602001916108e6565b60006001600160a01b038216610cec5760405162461bcd60e51b815260040180806020018281038252602a8152602001806121a5602a913960400191505060405180910390fd5b6001600160a01b0382166000908152600160205260409020610b7b90611528565b6000818152600c602052604090206060908190610d2990611528565b604051908082528060200260200182016040528015610d52578160200160208202803683370190505b50905060005b6000848152600c60205260409020610d6f90611528565b811015610dc0576000848152600c60205260409020610d94908263ffffffff61173516565b828281518110610da057fe5b6001600160a01b0390921660209283029190910190910152600101610d58565b5092915050565b60078054604080516020601f60026000196101006001881615020190951694909404938401819004810282018101909252828152606093909290918301828280156108e65780601f106108bb576101008083540402835291602001916108e6565b610e306114b6565b6001600160a01b0316826001600160a01b03161415610e96576040805162461bcd60e51b815260206004820152601960248201527f4552433732313a20617070726f766520746f2063616c6c657200000000000000604482015290519081900360640190fd5b8060056000610ea36114b6565b6001600160a01b03908116825260208083019390935260409182016000908120918716808252919093529120805460ff191692151592909217909155610ee76114b6565b60408051841515815290516001600160a01b0392909216917f17307eab39ab6107e8899845ad3d59bd9653f200f220920489ca2b5937696c319181900360200190a35050565b610f3e610f386114b6565b83611533565b610f795760405162461bcd60e51b81526004018080602001828103825260318152602001806122e66031913960400191505060405180910390fd5b610f858484848461176a565b50505050565b60008151602014610fcd5760405162461bcd60e51b81526004018080602001828103825260538152602001806120ca6053913960600191505060405180910390fd5b825184511461100d5760405162461bcd60e51b81526004018080602001828103825260278152602001806122bf6027913960400191505060405180910390fd5b61101d86600030888888886117bc565b601f19360180359060005b86518110156110e557611063833389848151811061104257fe5b602002602001015189858151811061105657fe5b60200260200101516117c5565b336001600160a01b031683896001600160a01b03167fa18753b0660a8be2cdae03468c860b47c2926433ab16917f323544652803032d8a85815181106110a557fe5b60200260200101518a86815181106110b957fe5b6020026020010151604051808381526020018281526020019250505060405180910390a4600101611028565b5063bc197c8160e01b98975050505050505050565b6060611105826114a3565b6111405760405162461bcd60e51b815260040180806020018281038252602f81526020018061226f602f913960400191505060405180910390fd5b60008281526008602090815260409182902080548351601f60026000196101006001861615020190931692909204918201849004840281018401909452808452606093928301828280156111d55780601f106111aa576101008083540402835291602001916111d5565b820191906000526020600020905b8154815290600101906020018083116111b857829003601f168201915b5050600954939450505050600260001961010060018416150201909116046111fe579050610855565b8051156112cf5760098160405160200180838054600181600116156101000203166002900480156112665780601f10611244576101008083540402835291820191611266565b820191906000526020600020905b815481529060010190602001808311611252575b5050825160208401908083835b602083106112925780518252601f199092019160209182019101611273565b6001836020036101000a03801982511681845116808217855250505050505090500192505050604051602081830303815290604052915050610855565b60096112da846118a0565b60405160200180838054600181600116156101000203166002900480156113385780601f10611316576101008083540402835291820191611338565b820191906000526020600020905b815481529060010190602001808311611324575b5050825160208401908083835b602083106113645780518252601f199092019160209182019101611345565b6001836020036101000a03801982511681845116808217855250505050505090500192505050604051602081830303815290604052915050919050565b6001600160a01b03918216600090815260056020908152604080832093909416825291909152205460ff1690565b600081516020146114115760405162461bcd60e51b81526004018080602001828103825260538152602001806120ca6053913960600191505060405180910390fd5b611431866000308861142289611964565b61142b89611964565b886117bc565b601f193601803590611445823388886117c5565b60408051878152602081018790528151339285926001600160a01b038c16927fa18753b0660a8be2cdae03468c860b47c2926433ab16917f323544652803032d929181900390910190a45063f23a6e6160e01b979650505050505050565b6000610b7b60028363ffffffff6119a816565b3390565b600081815260046020526040902080546001600160a01b0319166001600160a01b03841690811790915581906114ef82610c16565b6001600160a01b03167f8c5be1e5ebec7d5bd14f71427d1e84f3dd0314c0f7b2291e5b200ac8c7c3b92560405160405180910390a45050565b6000610b7b826119b4565b600061153e826114a3565b6115795760405162461bcd60e51b815260040180806020018281038252602c815260200180612141602c913960400191505060405180910390fd5b600061158483610c16565b9050806001600160a01b0316846001600160a01b031614806115bf5750836001600160a01b03166115b4846108f0565b6001600160a01b0316145b806115cf57506115cf81856113a1565b949350505050565b826001600160a01b03166115ea82610c16565b6001600160a01b03161461162f5760405162461bcd60e51b81526004018080602001828103825260298152602001806122466029913960400191505060405180910390fd5b6001600160a01b0382166116745760405162461bcd60e51b815260040180806020018281038252602481526020018061211d6024913960400191505060405180910390fd5b61167f838383610a28565b61168a6000826114ba565b6001600160a01b03831660009081526001602052604090206116b2908263ffffffff6119b816565b506001600160a01b03821660009081526001602052604090206116db908263ffffffff6119c416565b506116ee6002828463ffffffff6119d016565b5080826001600160a01b0316846001600160a01b03167fddf252ad1be2c89b69c2b068fc378daa952ba7f163c4a11628f55a4df523b3ef60405160405180910390a4505050565b6000610ba983836119e6565b60008080806117508686611a4a565b9097909650945050505050565b60006115cf848484611ac5565b6117758484846115d7565b61178184848484611b8f565b610f855760405162461bcd60e51b81526004018080602001828103825260328152602001806120986032913960400191505060405180910390fd5b50505050505050565b6000848152600c602052604090206117e3908463ffffffff611d0f16565b611807576000848152600c60205260409020611805908463ffffffff611d2416565b505b6000848152600a602090815260408083206001600160a01b0387168452825280832085845290915290205461186a576000828152600d602090815260408083206001600160a01b03871684529091529020611868908363ffffffff6119c416565b505b6000938452600a602090815260408086206001600160a01b03909516865293815283852092855291909152912080549091019055565b6060816118c557506040805180820190915260018152600360fc1b6020820152610855565b8160005b81156118dd57600101600a820491506118c9565b6060816040519080825280601f01601f19166020018201604052801561190a576020820181803683370190505b50859350905060001982015b831561195b57600a840660300160f81b8282806001900393508151811061193957fe5b60200101906001600160f81b031916908160001a905350600a84049350611916565b50949350505050565b60408051600180825281830190925260609182919060208083019080368337019050509050828160008151811061199757fe5b602090810291909101015292915050565b6000610ba98383611d39565b5490565b6000610ba98383611d51565b6000610ba98383611e17565b60006115cf84846001600160a01b038516611e61565b81546000908210611a285760405162461bcd60e51b81526004018080602001828103825260228152602001806120766022913960400191505060405180910390fd5b826000018281548110611a3757fe5b9060005260206000200154905092915050565b815460009081908310611a8e5760405162461bcd60e51b81526004018080602001828103825260228152602001806121f86022913960400191505060405180910390fd5b6000846000018481548110611a9f57fe5b906000526020600020906002020190508060000154816001015492509250509250929050565b60008281526001840160205260408120548281611b605760405162461bcd60e51b81526004018080602001828103825283818151815260200191508051906020019080838360005b83811015611b25578181015183820152602001611b0d565b50505050905090810190601f168015611b525780820380516001836020036101000a031916815260200191505b509250505060405180910390fd5b50846000016001820381548110611b7357fe5b9060005260206000209060020201600101549150509392505050565b6000611ba3846001600160a01b0316611ef8565b611baf575060016115cf565b6060611cd5630a85bd0160e11b611bc46114b6565b88878760405160240180856001600160a01b03166001600160a01b03168152602001846001600160a01b03166001600160a01b0316815260200183815260200180602001828103825283818151815260200191508051906020019080838360005b83811015611c3d578181015183820152602001611c25565b50505050905090810190601f168015611c6a5780820380516001836020036101000a031916815260200191505b5095505050505050604051602081830303815290604052906001600160e01b0319166020820180516001600160e01b038381831617835250505050604051806060016040528060328152602001612098603291396001600160a01b038816919063ffffffff611efe16565b90506000818060200190516020811015611cee57600080fd5b50516001600160e01b031916630a85bd0160e11b1492505050949350505050565b6000610ba9836001600160a01b038416611d39565b6000610ba9836001600160a01b038416611e17565b60009081526001919091016020526040902054151590565b60008181526001830160205260408120548015611e0d5783546000198083019190810190600090879083908110611d8457fe5b9060005260206000200154905080876000018481548110611da157fe5b600091825260208083209091019290925582815260018981019092526040902090840190558654879080611dd157fe5b60019003818190600052602060002001600090559055866001016000878152602001908152602001600020600090556001945050505050610b7b565b6000915050610b7b565b6000611e238383611d39565b611e5957508154600181810184556000848152602080822090930184905584548482528286019093526040902091909155610b7b565b506000610b7b565b600082815260018401602052604081205480611ec6575050604080518082018252838152602080820184815286546001818101895560008981528481209551600290930290950191825591519082015586548684528188019092529290912055610ba9565b82856000016001830381548110611ed957fe5b9060005260206000209060020201600101819055506000915050610ba9565b3b151590565b60606115cf84846000856060611f1385611ef8565b611f64576040805162461bcd60e51b815260206004820152601d60248201527f416464726573733a2063616c6c20746f206e6f6e2d636f6e7472616374000000604482015290519081900360640190fd5b60006060866001600160a01b031685876040518082805190602001908083835b60208310611fa35780518252601f199092019160209182019101611f84565b6001836020036101000a03801982511681845116808217855250505050505090500191505060006040518083038185875af1925050503d8060008114612005576040519150601f19603f3d011682016040523d82523d6000602084013e61200a565b606091505b5091509150811561201e5791506115cf9050565b80511561202e5780518082602001fd5b60405162461bcd60e51b8152602060048201818152865160248401528651879391928392604401919085019080838360008315611b25578181015183820152602001611b0d56fe456e756d657261626c655365743a20696e646578206f7574206f6620626f756e64734552433732313a207472616e7366657220746f206e6f6e20455243373231526563656976657220696d706c656d656e7465724552433939383a2064617461206d75737420636f6e7461696e2074686520756e697175652075696e7432353620746f6b656e496420746f207472616e7366657220746865206368696c6420746f6b656e20746f4552433732313a207472616e7366657220746f20746865207a65726f20616464726573734552433732313a206f70657261746f7220717565727920666f72206e6f6e6578697374656e7420746f6b656e4552433732313a20617070726f76652063616c6c6572206973206e6f74206f776e6572206e6f7220617070726f76656420666f7220616c6c4552433732313a2062616c616e636520717565727920666f7220746865207a65726f20616464726573734552433732313a206f776e657220717565727920666f72206e6f6e6578697374656e7420746f6b656e456e756d657261626c654d61703a20696e646578206f7574206f6620626f756e64734552433732313a20617070726f76656420717565727920666f72206e6f6e6578697374656e7420746f6b656e4552433732313a207472616e73666572206f6620746f6b656e2074686174206973206e6f74206f776e4552433732314d657461646174613a2055524920717565727920666f72206e6f6e6578697374656e7420746f6b656e4552433732313a20617070726f76616c20746f2063757272656e74206f776e6572455243313135353a2069647320616e642076616c756573206c656e677468206d69736d617463684552433732313a207472616e736665722063616c6c6572206973206e6f74206f776e6572206e6f7220617070726f766564a26469706673582212206f206e3855f97e969b83ff7d539210cdebc4199f9a39753acdca9b15f6b5b85a64736f6c63430006030033",
  "linkReferences": {},
  "deployedLinkReferences": {}
}