{
  "_format": "hh-sol-artifact-1",
  "contractName": "ComposableParentERC721",
  "sourceName": "contracts/ComposableParentERC721.sol",
  "abi": [
    {
      "inputs": [
        {
          "internalType": "string",
          "name": "name",
          "type": "string"
        },
        {
          "internalType": "string",
          "name": "symbol",
          "type": "string"
        },
        {
          "internalType": "string",
          "name": "baseURI",
          "type": "string"
        },
        {
          "internalType": "uint256",
          "name": "_fEngagementPoints",
          "type": "uint256"
        }
      ],
      "stateMutability": "nonpayable",
      "type": "constructor"
    },
    {
      "anonymous": false,
      "inputs": [
        {
          "indexed": true,
          "internalType": "address",
          "name": "owner",
          "type": "address"
        },
        {
          "indexed": true,
          "internalType": "address",
          "name": "approved",
          "type": "address"
        },
        {
          "indexed": true,
          "internalType": "uint256",
          "name": "tokenId",
          "type": "uint256"
        }
      ],
      "name": "Approval",
      "type": "event"
    },
    {
      "anonymous": false,
      "inputs": [
        {
          "indexed": true,
          "internalType": "address",
          "name": "owner",
          "type": "address"
        },
        {
          "indexed": true,
          "internalType": "address",
          "name": "operator",
          "type": "address"
        },
        {
          "indexed": false,
          "internalType": "bool",
          "name": "approved",
          "type": "bool"
        }
      ],
      "name": "ApprovalForAll",
      "type": "event"
    },
    {
      "anonymous": false,
      "inputs": [
        {
          "indexed": true,
          "internalType": "uint256",
          "name": "tokenId",
          "type": "uint256"
        }
      ],
      "name": "NFTMinted",
      "type": "event"
    },
    {
      "anonymous": false,
      "inputs": [
        {
          "indexed": false,
          "internalType": "address",
          "name": "account",
          "type": "address"
        }
      ],
      "name": "Paused",
      "type": "event"
    },
    {
      "anonymous": false,
      "inputs": [
        {
          "indexed": true,
          "internalType": "address",
          "name": "from",
          "type": "address"
        },
        {
          "indexed": true,
          "internalType": "uint256",
          "name": "toTokenId",
          "type": "uint256"
        },
        {
          "indexed": true,
          "internalType": "address",
          "name": "childContract",
          "type": "address"
        },
        {
          "indexed": false,
          "internalType": "uint256",
          "name": "childTokenId",
          "type": "uint256"
        },
        {
          "indexed": false,
          "internalType": "uint256",
          "name": "amount",
          "type": "uint256"
        }
      ],
      "name": "ReceivedChild",
      "type": "event"
    },
    {
      "anonymous": false,
      "inputs": [
        {
          "indexed": true,
          "internalType": "bytes32",
          "name": "role",
          "type": "bytes32"
        },
        {
          "indexed": true,
          "internalType": "bytes32",
          "name": "previousAdminRole",
          "type": "bytes32"
        },
        {
          "indexed": true,
          "internalType": "bytes32",
          "name": "newAdminRole",
          "type": "bytes32"
        }
      ],
      "name": "RoleAdminChanged",
      "type": "event"
    },
    {
      "anonymous": false,
      "inputs": [
        {
          "indexed": true,
          "internalType": "bytes32",
          "name": "role",
          "type": "bytes32"
        },
        {
          "indexed": true,
          "internalType": "address",
          "name": "account",
          "type": "address"
        },
        {
          "indexed": true,
          "internalType": "address",
          "name": "sender",
          "type": "address"
        }
      ],
      "name": "RoleGranted",
      "type": "event"
    },
    {
      "anonymous": false,
      "inputs": [
        {
          "indexed": true,
          "internalType": "bytes32",
          "name": "role",
          "type": "bytes32"
        },
        {
          "indexed": true,
          "internalType": "address",
          "name": "account",
          "type": "address"
        },
        {
          "indexed": true,
          "internalType": "address",
          "name": "sender",
          "type": "address"
        }
      ],
      "name": "RoleRevoked",
      "type": "event"
    },
    {
      "anonymous": false,
      "inputs": [
        {
          "indexed": true,
          "internalType": "address",
          "name": "from",
          "type": "address"
        },
        {
          "indexed": true,
          "internalType": "address",
          "name": "to",
          "type": "address"
        },
        {
          "indexed": true,
          "internalType": "uint256",
          "name": "tokenId",
          "type": "uint256"
        }
      ],
      "name": "Transfer",
      "type": "event"
    },
    {
      "anonymous": false,
      "inputs": [
        {
          "indexed": true,
          "internalType": "uint256",
          "name": "fromTokenId",
          "type": "uint256"
        },
        {
          "indexed": true,
          "internalType": "address",
          "name": "to",
          "type": "address"
        },
        {
          "indexed": true,
          "internalType": "address",
          "name": "childContract",
          "type": "address"
        },
        {
          "indexed": false,
          "internalType": "uint256[]",
          "name": "childTokenIds",
          "type": "uint256[]"
        },
        {
          "indexed": false,
          "internalType": "uint256[]",
          "name": "amounts",
          "type": "uint256[]"
        }
      ],
      "name": "TransferBatchChild",
      "type": "event"
    },
    {
      "anonymous": false,
      "inputs": [
        {
          "indexed": true,
          "internalType": "uint256",
          "name": "fromTokenId",
          "type": "uint256"
        },
        {
          "indexed": true,
          "internalType": "address",
          "name": "to",
          "type": "address"
        },
        {
          "indexed": true,
          "internalType": "address",
          "name": "childContract",
          "type": "address"
        },
        {
          "indexed": false,
          "internalType": "uint256",
          "name": "childTokenId",
          "type": "uint256"
        },
        {
          "indexed": false,
          "internalType": "uint256",
          "name": "amount",
          "type": "uint256"
        }
      ],
      "name": "TransferSingleChild",
      "type": "event"
    },
    {
      "anonymous": false,
      "inputs": [
        {
          "indexed": false,
          "internalType": "address",
          "name": "account",
          "type": "address"
        }
      ],
      "name": "Unpaused",
      "type": "event"
    },
    {
      "inputs": [],
      "name": "ADMIN_ROLE",
      "outputs": [
        {
          "internalType": "bytes32",
          "name": "",
          "type": "bytes32"
        }
      ],
      "stateMutability": "view",
      "type": "function"
    },
    {
      "inputs": [],
      "name": "DEFAULT_ADMIN_ROLE",
      "outputs": [
        {
          "internalType": "bytes32",
          "name": "",
          "type": "bytes32"
        }
      ],
      "stateMutability": "view",
      "type": "function"
    },
    {
      "inputs": [],
      "name": "MINTER_ROLE",
      "outputs": [
        {
          "internalType": "bytes32",
          "name": "",
          "type": "bytes32"
        }
      ],
      "stateMutability": "view",
      "type": "function"
    },
    {
      "inputs": [],
      "name": "PAUSER_ROLE",
      "outputs": [
        {
          "internalType": "bytes32",
          "name": "",
          "type": "bytes32"
        }
      ],
      "stateMutability": "view",
      "type": "function"
    },
    {
      "inputs": [
        {
          "internalType": "address",
          "name": "to",
          "type": "address"
        },
        {
          "internalType": "uint256",
          "name": "tokenId",
          "type": "uint256"
        }
      ],
      "name": "approve",
      "outputs": [],
      "stateMutability": "nonpayable",
      "type": "function"
    },
    {
      "inputs": [
        {
          "internalType": "address",
          "name": "owner",
          "type": "address"
        }
      ],
      "name": "balanceOf",
      "outputs": [
        {
          "internalType": "uint256",
          "name": "",
          "type": "uint256"
        }
      ],
      "stateMutability": "view",
      "type": "function"
    },
    {
      "inputs": [],
      "name": "baseURI",
      "outputs": [
        {
          "internalType": "string",
          "name": "",
          "type": "string"
        }
      ],
      "stateMutability": "view",
      "type": "function"
    },
    {
      "inputs": [
        {
          "internalType": "uint256",
          "name": "tokenId",
          "type": "uint256"
        }
      ],
      "name": "burn",
      "outputs": [],
      "stateMutability": "nonpayable",
      "type": "function"
    },
    {
      "inputs": [
        {
          "internalType": "uint256",
          "name": "value",
          "type": "uint256"
        }
      ],
      "name": "changeMaxSupply",
      "outputs": [],
      "stateMutability": "nonpayable",
      "type": "function"
    },
    {
      "inputs": [
        {
          "internalType": "uint256",
          "name": "composableId",
          "type": "uint256"
        },
        {
          "internalType": "address",
          "name": "childContract",
          "type": "address"
        },
        {
          "internalType": "uint256",
          "name": "tierId",
          "type": "uint256"
        }
      ],
      "name": "childBalance",
      "outputs": [
        {
          "internalType": "uint256",
          "name": "",
          "type": "uint256"
        }
      ],
      "stateMutability": "view",
      "type": "function"
    },
    {
      "inputs": [
        {
          "internalType": "uint256",
          "name": "composableId",
          "type": "uint256"
        }
      ],
      "name": "childContractsFor",
      "outputs": [
        {
          "internalType": "address[]",
          "name": "",
          "type": "address[]"
        }
      ],
      "stateMutability": "view",
      "type": "function"
    },
    {
      "inputs": [
        {
          "internalType": "uint256",
          "name": "composableId",
          "type": "uint256"
        },
        {
          "internalType": "address",
          "name": "childContract",
          "type": "address"
        }
      ],
      "name": "childIdsForOn",
      "outputs": [
        {
          "internalType": "uint256[]",
          "name": "",
          "type": "uint256[]"
        }
      ],
      "stateMutability": "view",
      "type": "function"
    },
    {
      "inputs": [
        {
          "internalType": "uint256",
          "name": "tokenId",
          "type": "uint256"
        }
      ],
      "name": "getApproved",
      "outputs": [
        {
          "internalType": "address",
          "name": "",
          "type": "address"
        }
      ],
      "stateMutability": "view",
      "type": "function"
    },
    {
      "inputs": [],
      "name": "getComposableCount",
      "outputs": [
        {
          "internalType": "uint256",
          "name": "",
          "type": "uint256"
        }
      ],
      "stateMutability": "view",
      "type": "function"
    },
    {
      "inputs": [
        {
          "internalType": "address",
          "name": "_owner",
          "type": "address"
        }
      ],
      "name": "getComposableId",
      "outputs": [
        {
          "internalType": "uint256",
          "name": "",
          "type": "uint256"
        }
      ],
      "stateMutability": "view",
      "type": "function"
    },
    {
      "inputs": [
        {
          "internalType": "uint256",
          "name": "composableId",
          "type": "uint256"
        },
        {
          "internalType": "address",
          "name": "childContract",
          "type": "address"
        }
      ],
      "name": "getLevel",
      "outputs": [
        {
          "internalType": "uint256",
          "name": "",
          "type": "uint256"
        }
      ],
      "stateMutability": "view",
      "type": "function"
    },
    {
      "inputs": [],
      "name": "getMintCost",
      "outputs": [
        {
          "internalType": "uint256",
          "name": "",
          "type": "uint256"
        }
      ],
      "stateMutability": "view",
      "type": "function"
    },
    {
      "inputs": [
        {
          "internalType": "bytes32",
          "name": "role",
          "type": "bytes32"
        }
      ],
      "name": "getRoleAdmin",
      "outputs": [
        {
          "internalType": "bytes32",
          "name": "",
          "type": "bytes32"
        }
      ],
      "stateMutability": "view",
      "type": "function"
    },
    {
      "inputs": [
        {
          "internalType": "bytes32",
          "name": "role",
          "type": "bytes32"
        },
        {
          "internalType": "uint256",
          "name": "index",
          "type": "uint256"
        }
      ],
      "name": "getRoleMember",
      "outputs": [
        {
          "internalType": "address",
          "name": "",
          "type": "address"
        }
      ],
      "stateMutability": "view",
      "type": "function"
    },
    {
      "inputs": [
        {
          "internalType": "bytes32",
          "name": "role",
          "type": "bytes32"
        }
      ],
      "name": "getRoleMemberCount",
      "outputs": [
        {
          "internalType": "uint256",
          "name": "",
          "type": "uint256"
        }
      ],
      "stateMutability": "view",
      "type": "function"
    },
    {
      "inputs": [
        {
          "internalType": "uint256",
          "name": "_tierId",
          "type": "uint256"
        }
      ],
      "name": "getTierUpgradeCost",
      "outputs": [
        {
          "internalType": "uint256",
          "name": "",
          "type": "uint256"
        }
      ],
      "stateMutability": "view",
      "type": "function"
    },
    {
      "inputs": [
        {
          "internalType": "bytes32",
          "name": "role",
          "type": "bytes32"
        },
        {
          "internalType": "address",
          "name": "account",
          "type": "address"
        }
      ],
      "name": "grantRole",
      "outputs": [],
      "stateMutability": "nonpayable",
      "type": "function"
    },
    {
      "inputs": [
        {
          "internalType": "bytes32",
          "name": "role",
          "type": "bytes32"
        },
        {
          "internalType": "address",
          "name": "account",
          "type": "address"
        }
      ],
      "name": "hasRole",
      "outputs": [
        {
          "internalType": "bool",
          "name": "",
          "type": "bool"
        }
      ],
      "stateMutability": "view",
      "type": "function"
    },
    {
      "inputs": [
        {
          "internalType": "address",
          "name": "owner",
          "type": "address"
        },
        {
          "internalType": "address",
          "name": "operator",
          "type": "address"
        }
      ],
      "name": "isApprovedForAll",
      "outputs": [
        {
          "internalType": "bool",
          "name": "",
          "type": "bool"
        }
      ],
      "stateMutability": "view",
      "type": "function"
    },
    {
      "inputs": [
        {
          "internalType": "uint256",
          "name": "cid",
          "type": "uint256"
        }
      ],
      "name": "isUpgradeable",
      "outputs": [
        {
          "internalType": "bool",
          "name": "",
          "type": "bool"
        }
      ],
      "stateMutability": "nonpayable",
      "type": "function"
    },
    {
      "inputs": [],
      "name": "maxSupply",
      "outputs": [
        {
          "internalType": "uint256",
          "name": "",
          "type": "uint256"
        }
      ],
      "stateMutability": "view",
      "type": "function"
    },
    {
      "inputs": [],
      "name": "mint",
      "outputs": [],
      "stateMutability": "payable",
      "type": "function"
    },
    {
      "inputs": [],
      "name": "mintCost",
      "outputs": [
        {
          "internalType": "uint256",
          "name": "",
          "type": "uint256"
        }
      ],
      "stateMutability": "view",
      "type": "function"
    },
    {
      "inputs": [],
      "name": "name",
      "outputs": [
        {
          "internalType": "string",
          "name": "",
          "type": "string"
        }
      ],
      "stateMutability": "view",
      "type": "function"
    },
    {
      "inputs": [
        {
          "internalType": "address",
          "name": "operator",
          "type": "address"
        },
        {
          "internalType": "address",
          "name": "from",
          "type": "address"
        },
        {
          "internalType": "uint256[]",
          "name": "ids",
          "type": "uint256[]"
        },
        {
          "internalType": "uint256[]",
          "name": "values",
          "type": "uint256[]"
        },
        {
          "internalType": "bytes",
          "name": "data",
          "type": "bytes"
        }
      ],
      "name": "onERC1155BatchReceived",
      "outputs": [
        {
          "internalType": "bytes4",
          "name": "",
          "type": "bytes4"
        }
      ],
      "stateMutability": "nonpayable",
      "type": "function"
    },
    {
      "inputs": [
        {
          "internalType": "address",
          "name": "operator",
          "type": "address"
        },
        {
          "internalType": "address",
          "name": "from",
          "type": "address"
        },
        {
          "internalType": "uint256",
          "name": "id",
          "type": "uint256"
        },
        {
          "internalType": "uint256",
          "name": "amount",
          "type": "uint256"
        },
        {
          "internalType": "bytes",
          "name": "data",
          "type": "bytes"
        }
      ],
      "name": "onERC1155Received",
      "outputs": [
        {
          "internalType": "bytes4",
          "name": "",
          "type": "bytes4"
        }
      ],
      "stateMutability": "nonpayable",
      "type": "function"
    },
    {
      "inputs": [
        {
          "internalType": "uint256",
          "name": "tokenId",
          "type": "uint256"
        }
      ],
      "name": "ownerOf",
      "outputs": [
        {
          "internalType": "address",
          "name": "",
          "type": "address"
        }
      ],
      "stateMutability": "view",
      "type": "function"
    },
    {
      "inputs": [
        {
          "internalType": "address",
          "name": "",
          "type": "address"
        }
      ],
      "name": "ownerToComposableId",
      "outputs": [
        {
          "internalType": "uint256",
          "name": "",
          "type": "uint256"
        }
      ],
      "stateMutability": "view",
      "type": "function"
    },
    {
      "inputs": [],
      "name": "pause",
      "outputs": [],
      "stateMutability": "nonpayable",
      "type": "function"
    },
    {
      "inputs": [],
      "name": "paused",
      "outputs": [
        {
          "internalType": "bool",
          "name": "",
          "type": "bool"
        }
      ],
      "stateMutability": "view",
      "type": "function"
    },
    {
      "inputs": [
        {
          "internalType": "bytes32",
          "name": "role",
          "type": "bytes32"
        },
        {
          "internalType": "address",
          "name": "account",
          "type": "address"
        }
      ],
      "name": "renounceRole",
      "outputs": [],
      "stateMutability": "nonpayable",
      "type": "function"
    },
    {
      "inputs": [
        {
          "internalType": "bytes32",
          "name": "role",
          "type": "bytes32"
        },
        {
          "internalType": "address",
          "name": "account",
          "type": "address"
        }
      ],
      "name": "revokeRole",
      "outputs": [],
      "stateMutability": "nonpayable",
      "type": "function"
    },
    {
      "inputs": [
        {
          "internalType": "address",
          "name": "from",
          "type": "address"
        },
        {
          "internalType": "address",
          "name": "to",
          "type": "address"
        },
        {
          "internalType": "uint256",
          "name": "tokenId",
          "type": "uint256"
        }
      ],
      "name": "safeTransferFrom",
      "outputs": [],
      "stateMutability": "nonpayable",
      "type": "function"
    },
    {
      "inputs": [
        {
          "internalType": "address",
          "name": "from",
          "type": "address"
        },
        {
          "internalType": "address",
          "name": "to",
          "type": "address"
        },
        {
          "internalType": "uint256",
          "name": "tokenId",
          "type": "uint256"
        },
        {
          "internalType": "bytes",
          "name": "_data",
          "type": "bytes"
        }
      ],
      "name": "safeTransferFrom",
      "outputs": [],
      "stateMutability": "nonpayable",
      "type": "function"
    },
    {
      "inputs": [
        {
          "internalType": "address",
          "name": "operator",
          "type": "address"
        },
        {
          "internalType": "bool",
          "name": "approved",
          "type": "bool"
        }
      ],
      "name": "setApprovalForAll",
      "outputs": [],
      "stateMutability": "nonpayable",
      "type": "function"
    },
    {
      "inputs": [
        {
          "internalType": "uint256",
          "name": "_cost",
          "type": "uint256"
        }
      ],
      "name": "setMintCost",
      "outputs": [],
      "stateMutability": "nonpayable",
      "type": "function"
    },
    {
      "inputs": [
        {
          "internalType": "uint256",
          "name": "_tierId",
          "type": "uint256"
        },
        {
          "internalType": "uint256",
          "name": "_cost",
          "type": "uint256"
        }
      ],
      "name": "setTierUpgradeCost",
      "outputs": [],
      "stateMutability": "nonpayable",
      "type": "function"
    },
    {
      "inputs": [
        {
          "internalType": "bytes4",
          "name": "interfaceId",
          "type": "bytes4"
        }
      ],
      "name": "supportsInterface",
      "outputs": [
        {
          "internalType": "bool",
          "name": "",
          "type": "bool"
        }
      ],
      "stateMutability": "view",
      "type": "function"
    },
    {
      "inputs": [],
      "name": "symbol",
      "outputs": [
        {
          "internalType": "string",
          "name": "",
          "type": "string"
        }
      ],
      "stateMutability": "view",
      "type": "function"
    },
    {
      "inputs": [
        {
          "internalType": "uint256",
          "name": "index",
          "type": "uint256"
        }
      ],
      "name": "tokenByIndex",
      "outputs": [
        {
          "internalType": "uint256",
          "name": "",
          "type": "uint256"
        }
      ],
      "stateMutability": "view",
      "type": "function"
    },
    {
      "inputs": [
        {
          "internalType": "address",
          "name": "owner",
          "type": "address"
        },
        {
          "internalType": "uint256",
          "name": "index",
          "type": "uint256"
        }
      ],
      "name": "tokenOfOwnerByIndex",
      "outputs": [
        {
          "internalType": "uint256",
          "name": "",
          "type": "uint256"
        }
      ],
      "stateMutability": "view",
      "type": "function"
    },
    {
      "inputs": [
        {
          "internalType": "uint256",
          "name": "tokenId",
          "type": "uint256"
        }
      ],
      "name": "tokenURI",
      "outputs": [
        {
          "internalType": "string",
          "name": "",
          "type": "string"
        }
      ],
      "stateMutability": "view",
      "type": "function"
    },
    {
      "inputs": [],
      "name": "totalSupply",
      "outputs": [
        {
          "internalType": "uint256",
          "name": "",
          "type": "uint256"
        }
      ],
      "stateMutability": "view",
      "type": "function"
    },
    {
      "inputs": [
        {
          "internalType": "address",
          "name": "from",
          "type": "address"
        },
        {
          "internalType": "address",
          "name": "to",
          "type": "address"
        },
        {
          "internalType": "uint256",
          "name": "tokenId",
          "type": "uint256"
        }
      ],
      "name": "transferFrom",
      "outputs": [],
      "stateMutability": "nonpayable",
      "type": "function"
    },
    {
      "inputs": [],
      "name": "unpause",
      "outputs": [],
      "stateMutability": "nonpayable",
      "type": "function"
    }
  ],
  "bytecode": "0x60806040526064601255671bc16d674ec800006013553480156200002257600080fd5b5060405162003f9938038062003f99833981810160405260808110156200004857600080fd5b81019080805160405193929190846401000000008211156200006957600080fd5b9083019060208201858111156200007f57600080fd5b82516401000000008111828201881017156200009a57600080fd5b82525081516020918201929091019080838360005b83811015620000c9578181015183820152602001620000af565b50505050905090810190601f168015620000f75780820380516001836020036101000a031916815260200191505b50604052602001805160405193929190846401000000008211156200011b57600080fd5b9083019060208201858111156200013157600080fd5b82516401000000008111828201881017156200014c57600080fd5b82525081516020918201929091019080838360005b838110156200017b57818101518382015260200162000161565b50505050905090810190601f168015620001a95780820380516001836020036101000a031916815260200191505b5060405260200180516040519392919084640100000000821115620001cd57600080fd5b908301906020820185811115620001e357600080fd5b8251640100000000811182820188101715620001fe57600080fd5b82525081516020918201929091019080838360005b838110156200022d57818101518382015260200162000213565b50505050905090810190601f1680156200025b5780820380516001836020036101000a031916815260200191505b5060405260200151915084905083838282620002876301ffc9a760e01b6001600160e01b036200044c16565b81516200029c90600790602085019062000622565b508051620002b290600890602084019062000622565b50620002ce6380ac58cd60e01b6001600160e01b036200044c16565b620002e9635b5e139f60e01b6001600160e01b036200044c16565b6200030463780e9d6360e01b6001600160e01b036200044c16565b50620003229050630271189760e51b6001600160e01b036200044c16565b62000336816001600160e01b03620004d416565b5050600f805460ff19169055506001601055604080516941444d494e5f524f4c4560b01b8152905190819003600a0190206200038e906200037f6001600160e01b03620004ed16565b6001600160e01b03620004f216565b604080516a4d494e5445525f524f4c4560a81b8152905190819003600b019020620003c6906200037f6001600160e01b03620004ed16565b604080516a5041555345525f524f4c4560a81b8152905190819003600b019020620003fe906200037f6001600160e01b03620004ed16565b601680546001600160a01b03191633179055600060118190556001905260146020527fb6c61a840592cc84133e4b25bd509abf4659307c57b160799b38490a5aa48f2c5550620006c4915050565b6001600160e01b03198082161415620004ac576040805162461bcd60e51b815260206004820152601c60248201527f4552433136353a20696e76616c696420696e7465726661636520696400000000604482015290519081900360640190fd5b6001600160e01b0319166000908152600160208190526040909120805460ff19169091179055565b8051620004e990600a90602084019062000622565b5050565b335b90565b620004e982826001600160e01b036200050716565b6000828152602081815260409091206200052c91839062002cb162000589821b17901c565b15620004e957620005456001600160e01b03620004ed16565b6001600160a01b0316816001600160a01b0316837f2f8788117e7eff1d82e926ec794901d17c78024a50270940304540a733656f0d60405160405180910390a45050565b6000620005a9836001600160a01b0384166001600160e01b03620005b216565b90505b92915050565b6000620005c983836001600160e01b036200060a16565b6200060157508154600181810184556000848152602080822090930184905584548482528286019093526040902091909155620005ac565b506000620005ac565b60009081526001919091016020526040902054151590565b828054600181600116156101000203166002900490600052602060002090601f016020900481019282601f106200066557805160ff191683800117855562000695565b8280016001018555821562000695579182015b828111156200069557825182559160200191906001019062000678565b50620006a3929150620006a7565b5090565b620004ef91905b80821115620006a35760008155600101620006ae565b6138c580620006d46000396000f3fe6080604052600436106102c95760003560e01c806375b238fc11610175578063b88d4fde116100dc578063d547741f11610095578063e63ab1e91161006f578063e63ab1e914610d75578063e985e9c514610d8a578063f225d43214610dc5578063f23a6e6114610dfe576102c9565b8063d547741f14610cf7578063d5abeb0114610d30578063e2275b5214610d45576102c9565b8063b88d4fde146109bd578063bc197c8114610a8e578063bdb4b84814610c79578063c87b56dd14610c8e578063ca15c87314610cb8578063d539139314610ce2576102c9565b80639010d07c1161012e5780639010d07c146108c557806391d14854146108f557806395d89b411461092e578063a217fddf14610943578063a22cb46514610958578063aca47b7d14610993576102c9565b806375b238fc146108085780637c926af61461081d5780638456cb59146108475780638545f4ea1461085c57806389e7e2f2146108865780638b9220f3146108b0576102c9565b806336568abe116102345780634f6ccce7116101ed5780636352211e116101c75780636352211e14610763578063640bfdb51461078d5780636c0360eb146107c057806370a08231146107d5576102c9565b80634f6ccce7146106e55780635c975abb1461070f57806360d4d23a14610724576102c9565b806336568abe146105cd5780633f4ba83a14610606578063404c7cdd1461061b57806342842e0e1461064557806342966c68146106885780634e18b762146106b2576102c9565b806318160ddd1161028657806318160ddd1461045057806323b872dd14610465578063248a9ca3146104a85780632676608c146104d25780632f2ff15d1461055b5780632f745c5914610594576102c9565b806301ffc9a7146102ce57806306fdde0314610316578063081812fc146103a0578063095ea7b3146103e65780631249c58b1461042157806313c738f014610429575b600080fd5b3480156102da57600080fd5b50610302600480360360208110156102f157600080fd5b50356001600160e01b031916610ed4565b604080519115158252519081900360200190f35b34801561032257600080fd5b5061032b610ef7565b6040805160208082528351818301528351919283929083019185019080838360005b8381101561036557818101518382015260200161034d565b50505050905090810190601f1680156103925780820380516001836020036101000a031916815260200191505b509250505060405180910390f35b3480156103ac57600080fd5b506103ca600480360360208110156103c357600080fd5b5035610f8e565b604080516001600160a01b039092168252519081900360200190f35b3480156103f257600080fd5b5061041f6004803603604081101561040957600080fd5b506001600160a01b038135169060200135610ff0565b005b61041f6110cb565b34801561043557600080fd5b5061043e6112aa565b60408051918252519081900360200190f35b34801561045c57600080fd5b5061043e6112b0565b34801561047157600080fd5b5061041f6004803603606081101561048857600080fd5b506001600160a01b038135811691602081013590911690604001356112c1565b3480156104b457600080fd5b5061043e600480360360208110156104cb57600080fd5b5035611318565b3480156104de57600080fd5b5061050b600480360360408110156104f557600080fd5b50803590602001356001600160a01b031661132d565b60408051602080825283518183015283519192839290830191858101910280838360005b8381101561054757818101518382015260200161052f565b505050509050019250505060405180910390f35b34801561056757600080fd5b5061041f6004803603604081101561057e57600080fd5b50803590602001356001600160a01b0316611419565b3480156105a057600080fd5b5061043e600480360360408110156105b757600080fd5b506001600160a01b038135169060200135611485565b3480156105d957600080fd5b5061041f600480360360408110156105f057600080fd5b50803590602001356001600160a01b03166114b4565b34801561061257600080fd5b5061041f611515565b34801561062757600080fd5b5061041f6004803603602081101561063e57600080fd5b5035611586565b34801561065157600080fd5b5061041f6004803603606081101561066857600080fd5b506001600160a01b03813581169160208101359091169060400135611607565b34801561069457600080fd5b5061041f600480360360208110156106ab57600080fd5b5035611622565b3480156106be57600080fd5b5061043e600480360360208110156106d557600080fd5b50356001600160a01b0316611674565b3480156106f157600080fd5b5061043e6004803603602081101561070857600080fd5b5035611686565b34801561071b57600080fd5b506103026116a2565b34801561073057600080fd5b5061043e6004803603606081101561074757600080fd5b508035906001600160a01b0360208201351690604001356116ab565b34801561076f57600080fd5b506103ca6004803603602081101561078657600080fd5b50356116da565b34801561079957600080fd5b5061043e600480360360208110156107b057600080fd5b50356001600160a01b0316611708565b3480156107cc57600080fd5b5061032b611723565b3480156107e157600080fd5b5061043e600480360360208110156107f857600080fd5b50356001600160a01b0316611784565b34801561081457600080fd5b5061043e6117ec565b34801561082957600080fd5b5061043e6004803603602081101561084057600080fd5b503561180e565b34801561085357600080fd5b5061041f611820565b34801561086857600080fd5b5061041f6004803603602081101561087f57600080fd5b503561188f565b34801561089257600080fd5b5061050b600480360360208110156108a957600080fd5b50356118c8565b3480156108bc57600080fd5b5061043e611982565b3480156108d157600080fd5b506103ca600480360360408110156108e857600080fd5b5080359060200135611988565b34801561090157600080fd5b506103026004803603604081101561091857600080fd5b50803590602001356001600160a01b03166119a6565b34801561093a57600080fd5b5061032b6119c4565b34801561094f57600080fd5b5061043e611a25565b34801561096457600080fd5b5061041f6004803603604081101561097b57600080fd5b506001600160a01b0381351690602001351515611a2a565b34801561099f57600080fd5b50610302600480360360208110156109b657600080fd5b5035611b2f565b3480156109c957600080fd5b5061041f600480360360808110156109e057600080fd5b6001600160a01b03823581169260208101359091169160408201359190810190608081016060820135600160201b811115610a1a57600080fd5b820183602082011115610a2c57600080fd5b803590602001918460018302840111600160201b83111715610a4d57600080fd5b91908080601f016020809104026020016040519081016040528093929190818152602001838380828437600092019190915250929550611b46945050505050565b348015610a9a57600080fd5b50610c5c600480360360a0811015610ab157600080fd5b6001600160a01b038235811692602081013590911691810190606081016040820135600160201b811115610ae457600080fd5b820183602082011115610af657600080fd5b803590602001918460208302840111600160201b83111715610b1757600080fd5b9190808060200260200160405190810160405280939291908181526020018383602002808284376000920191909152509295949360208101935035915050600160201b811115610b6657600080fd5b820183602082011115610b7857600080fd5b803590602001918460208302840111600160201b83111715610b9957600080fd5b9190808060200260200160405190810160405280939291908181526020018383602002808284376000920191909152509295949360208101935035915050600160201b811115610be857600080fd5b820183602082011115610bfa57600080fd5b803590602001918460018302840111600160201b83111715610c1b57600080fd5b91908080601f016020809104026020016040519081016040528093929190818152602001838380828437600092019190915250929550611ba4945050505050565b604080516001600160e01b03199092168252519081900360200190f35b348015610c8557600080fd5b5061043e611d13565b348015610c9a57600080fd5b5061032b60048036036020811015610cb157600080fd5b5035611d19565b348015610cc457600080fd5b5061043e60048036036020811015610cdb57600080fd5b5035611fc0565b348015610cee57600080fd5b5061043e611fd7565b348015610d0357600080fd5b5061041f60048036036040811015610d1a57600080fd5b50803590602001356001600160a01b0316611ffa565b348015610d3c57600080fd5b5061043e612053565b348015610d5157600080fd5b5061041f60048036036040811015610d6857600080fd5b5080359060200135612059565b348015610d8157600080fd5b5061043e6120e7565b348015610d9657600080fd5b5061030260048036036040811015610dad57600080fd5b506001600160a01b038135811691602001351661210a565b348015610dd157600080fd5b5061043e60048036036040811015610de857600080fd5b50803590602001356001600160a01b0316612138565b348015610e0a57600080fd5b50610c5c600480360360a0811015610e2157600080fd5b6001600160a01b03823581169260208101359091169160408201359160608101359181019060a081016080820135600160201b811115610e6057600080fd5b820183602082011115610e7257600080fd5b803590602001918460018302840111600160201b83111715610e9357600080fd5b91908080601f016020809104026020016040519081016040528093929190818152602001838380828437600092019190915250929550612173945050505050565b6001600160e01b0319811660009081526001602052604090205460ff165b919050565b60078054604080516020601f6002600019610100600188161502019095169490940493840181900481028201810190925282815260609390929091830182828015610f835780601f10610f5857610100808354040283529160200191610f83565b820191906000526020600020905b815481529060010190602001808311610f6657829003601f168201915b505050505090505b90565b6000610f9982612247565b610fd45760405162461bcd60e51b815260040180806020018281038252602c815260200180613682602c913960400191505060405180910390fd5b506000908152600560205260409020546001600160a01b031690565b6000610ffb826116da565b9050806001600160a01b0316836001600160a01b0316141561104e5760405162461bcd60e51b81526004018080602001828103825260218152602001806137556021913960400191505060405180910390fd5b806001600160a01b031661106061225a565b6001600160a01b0316148061108157506110818161107c61225a565b61210a565b6110bc5760405162461bcd60e51b81526004018080602001828103825260388152602001806135d56038913960400191505060405180910390fd5b6110c6838361225e565b505050565b60026010541415611123576040805162461bcd60e51b815260206004820152601f60248201527f5265656e7472616e637947756172643a207265656e7472616e742063616c6c00604482015290519081900360640190fd5b6002601055601354341461117e576040805162461bcd60e51b815260206004820152601e60248201527f4552433732313a206d7573742070617920746865206d696e7420636f73740000604482015290519081900360640190fd5b61118733611784565b156111c35760405162461bcd60e51b81526004018080602001828103825260238152602001806137ce6023913960400191505060405180910390fd5b6000601154600101905060125481111561120e5760405162461bcd60e51b81526004018080602001828103825260248152602001806137316024913960400191505060405180910390fd5b61121833826122cc565b33600090815260156020526040808220839055601183905560165490516001600160a01b0391909116913480156108fc02929091818181858888f19350505050158015611269573d6000803e3d6000fd5b503360009081526015602052604080822054905190917fd9dc24857f317ed9abbbb42e920ede0104231eb1d3d70236a74887ffaf15986891a2506001601055565b60135490565b60006112bc6003612406565b905090565b6112d26112cc61225a565b82612411565b61130d5760405162461bcd60e51b815260040180806020018281038252603181526020018061379d6031913960400191505060405180910390fd5b6110c68383836124b5565b60009081526020819052604090206002015490565b6000828152600e602090815260408083206001600160a01b03851684529091529020606090819061135d90612406565b604051908082528060200260200182016040528015611386578160200160208202803683370190505b50905060005b6000858152600e602090815260408083206001600160a01b038816845290915290206113b790612406565b81101561140f576000858152600e602090815260408083206001600160a01b038816845290915290206113f0908263ffffffff61261316565b8282815181106113fc57fe5b602090810291909101015260010161138c565b5090505b92915050565b60008281526020819052604090206002015461143c9061143761225a565b6119a6565b6114775760405162461bcd60e51b815260040180806020018281038252602f815260200180613463602f913960400191505060405180910390fd5b611481828261261f565b5050565b6001600160a01b03821660009081526002602052604081206114ad908363ffffffff61261316565b9392505050565b6114bc61225a565b6001600160a01b0316816001600160a01b03161461150b5760405162461bcd60e51b815260040180806020018281038252602f815260200180613861602f913960400191505060405180910390fd5b611481828261268e565b604080516a5041555345525f524f4c4560a81b8152905190819003600b0190206115419061143761225a565b61157c5760405162461bcd60e51b81526004018080602001828103825260408152602001806138216040913960400191505060405180910390fd5b6115846126fd565b565b604080516941444d494e5f524f4c4560b01b8152905190819003600a0190206115b19061143761225a565b611602576040805162461bcd60e51b815260206004820181905260248201527f556e617574686f72697a656420746f74616c20737570706c7920736574746572604482015290519081900360640190fd5b601255565b6110c683838360405180602001604052806000815250611b46565b61162d6112cc61225a565b6116685760405162461bcd60e51b81526004018080602001828103825260308152602001806137f16030913960400191505060405180910390fd5b6116718161279b565b50565b60156020526000908152604090205481565b60008061169a60038463ffffffff61287416565b509392505050565b600f5460ff1690565b6000928352600b602090815260408085206001600160a01b039490941685529281528284209184525290205490565b600061141382604051806060016040528060298152602001613637602991396003919063ffffffff61289016565b6001600160a01b031660009081526015602052604090205490565b600a8054604080516020601f6002600019610100600188161502019095169490940493840181900481028201810190925282815260609390929091830182828015610f835780601f10610f5857610100808354040283529160200191610f83565b60006001600160a01b0382166117cb5760405162461bcd60e51b815260040180806020018281038252602a81526020018061360d602a913960400191505060405180910390fd5b6001600160a01b038216600090815260026020526040902061141390612406565b604080516941444d494e5f524f4c4560b01b8152905190819003600a01902081565b60009081526014602052604090205490565b604080516a5041555345525f524f4c4560a81b8152905190819003600b01902061184c9061143761225a565b6118875760405162461bcd60e51b815260040180806020018281038252603e815260200180613517603e913960400191505060405180910390fd5b61158461289d565b604080516941444d494e5f524f4c4560b01b8152905190819003600a0190206118ba9061143761225a565b6118c357600080fd5b601355565b6000818152600d6020526040902060609081906118e490612406565b60405190808252806020026020018201604052801561190d578160200160208202803683370190505b50905060005b6000848152600d6020526040902061192a90612406565b81101561197b576000848152600d6020526040902061194f908263ffffffff61261316565b82828151811061195b57fe5b6001600160a01b0390921660209283029190910190910152600101611913565b5092915050565b60115490565b60008281526020819052604081206114ad908363ffffffff61261316565b60008281526020819052604081206114ad908363ffffffff61291e16565b60088054604080516020601f6002600019610100600188161502019095169490940493840181900481028201810190925282815260609390929091830182828015610f835780601f10610f5857610100808354040283529160200191610f83565b600081565b611a3261225a565b6001600160a01b0316826001600160a01b03161415611a98576040805162461bcd60e51b815260206004820152601960248201527f4552433732313a20617070726f766520746f2063616c6c657200000000000000604482015290519081900360640190fd5b8060066000611aa561225a565b6001600160a01b03908116825260208083019390935260409182016000908120918716808252919093529120805460ff191692151592909217909155611ae961225a565b60408051841515815290516001600160a01b0392909216917f17307eab39ab6107e8899845ad3d59bd9653f200f220920489ca2b5937696c319181900360200190a35050565b6000611b3a33611784565b600114610ef257600080fd5b611b57611b5161225a565b83612411565b611b925760405162461bcd60e51b815260040180806020018281038252603181526020018061379d6031913960400191505060405180910390fd5b611b9e84848484612933565b50505050565b60008151602014611be65760405162461bcd60e51b81526004018080602001828103825260538152602001806134c46053913960600191505060405180910390fd5b8251845114611c265760405162461bcd60e51b81526004018080602001828103825260278152602001806137766027913960400191505060405180910390fd5b611c368660003088888888612985565b601f19360180359060005b8651811015611cfe57611c7c8333898481518110611c5b57fe5b6020026020010151898581518110611c6f57fe5b60200260200101516129dd565b336001600160a01b031683896001600160a01b03167fa18753b0660a8be2cdae03468c860b47c2926433ab16917f323544652803032d8a8581518110611cbe57fe5b60200260200101518a8681518110611cd257fe5b6020026020010151604051808381526020018281526020019250505060405180910390a4600101611c41565b5063bc197c8160e01b98975050505050505050565b60135481565b6060611d2482612247565b611d5f5760405162461bcd60e51b815260040180806020018281038252602f815260200180613702602f913960400191505060405180910390fd5b60008281526009602090815260409182902080548351601f6002600019610100600186161502019093169290920491820184900484028101840190945280845260609392830182828015611df45780601f10611dc957610100808354040283529160200191611df4565b820191906000526020600020905b815481529060010190602001808311611dd757829003601f168201915b5050600a5493945050505060026000196101006001841615020190911604611e1d579050610ef2565b805115611eee57600a816040516020018083805460018160011615610100020316600290048015611e855780601f10611e63576101008083540402835291820191611e85565b820191906000526020600020905b815481529060010190602001808311611e71575b5050825160208401908083835b60208310611eb15780518252601f199092019160209182019101611e92565b6001836020036101000a03801982511681845116808217855250505050505090500192505050604051602081830303815290604052915050610ef2565b600a611ef984612ab8565b6040516020018083805460018160011615610100020316600290048015611f575780601f10611f35576101008083540402835291820191611f57565b820191906000526020600020905b815481529060010190602001808311611f43575b5050825160208401908083835b60208310611f835780518252601f199092019160209182019101611f64565b6001836020036101000a03801982511681845116808217855250505050505090500192505050604051602081830303815290604052915050919050565b600081815260208190526040812061141390612406565b604080516a4d494e5445525f524f4c4560a81b8152905190819003600b01902081565b6000828152602081905260409020600201546120189061143761225a565b61150b5760405162461bcd60e51b81526004018080602001828103825260308152602001806135a56030913960400191505060405180910390fd5b60125481565b604080516941444d494e5f524f4c4560b01b8152905190819003600a0190206120849061143761225a565b6120d5576040805162461bcd60e51b815260206004820152601e60248201527f556e617574686f72697a65642074696572207072696365207365747465720000604482015290519081900360640190fd5b60009182526014602052604090912055565b604080516a5041555345525f524f4c4560a81b8152905190819003600b01902081565b6001600160a01b03918216600090815260066020908152604080832093909416825291909152205460ff1690565b60008060015b60125481101561140f576121538585836116ab565b600114156121665760018201915061216b565b61140f565b60010161213e565b600081516020146121b55760405162461bcd60e51b81526004018080602001828103825260538152602001806134c46053913960600191505060405180910390fd5b6121d586600030886121c689612b7c565b6121cf89612b7c565b88612985565b601f1936018035906121e9823388886129dd565b60408051878152602081018790528151339285926001600160a01b038c16927fa18753b0660a8be2cdae03468c860b47c2926433ab16917f323544652803032d929181900390910190a45063f23a6e6160e01b979650505050505050565b600061141360038363ffffffff612bc016565b3390565b600081815260056020526040902080546001600160a01b0319166001600160a01b0384169081179091558190612293826116da565b6001600160a01b03167f8c5be1e5ebec7d5bd14f71427d1e84f3dd0314c0f7b2291e5b200ac8c7c3b92560405160405180910390a45050565b6001600160a01b038216612327576040805162461bcd60e51b815260206004820181905260248201527f4552433732313a206d696e7420746f20746865207a65726f2061646472657373604482015290519081900360640190fd5b61233081612247565b15612382576040805162461bcd60e51b815260206004820152601c60248201527f4552433732313a20746f6b656e20616c7265616479206d696e74656400000000604482015290519081900360640190fd5b61238e60008383612bcc565b6001600160a01b03821660009081526002602052604090206123b6908263ffffffff612c1b16565b506123c96003828463ffffffff612c2716565b5060405181906001600160a01b038416906000907fddf252ad1be2c89b69c2b068fc378daa952ba7f163c4a11628f55a4df523b3ef908290a45050565b600061141382612c3d565b600061241c82612247565b6124575760405162461bcd60e51b815260040180806020018281038252602c815260200180613579602c913960400191505060405180910390fd5b6000612462836116da565b9050806001600160a01b0316846001600160a01b0316148061249d5750836001600160a01b031661249284610f8e565b6001600160a01b0316145b806124ad57506124ad818561210a565b949350505050565b826001600160a01b03166124c8826116da565b6001600160a01b03161461250d5760405162461bcd60e51b81526004018080602001828103825260298152602001806136d96029913960400191505060405180910390fd5b6001600160a01b0382166125525760405162461bcd60e51b81526004018080602001828103825260248152602001806135556024913960400191505060405180910390fd5b61255d838383612bcc565b61256860008261225e565b6001600160a01b0383166000908152600260205260409020612590908263ffffffff612c4116565b506001600160a01b03821660009081526002602052604090206125b9908263ffffffff612c1b16565b506125cc6003828463ffffffff612c2716565b5080826001600160a01b0316846001600160a01b03167fddf252ad1be2c89b69c2b068fc378daa952ba7f163c4a11628f55a4df523b3ef60405160405180910390a4505050565b60006114ad8383612c4d565b600082815260208190526040902061263d908263ffffffff612cb116565b156114815761264a61225a565b6001600160a01b0316816001600160a01b0316837f2f8788117e7eff1d82e926ec794901d17c78024a50270940304540a733656f0d60405160405180910390a45050565b60008281526020819052604090206126ac908263ffffffff612cc616565b15611481576126b961225a565b6001600160a01b0316816001600160a01b0316837ff6391f5c32d9c69d2a47ea670b442974b53935d1edc7fd64eb21e047a839171b60405160405180910390a45050565b600f5460ff1661274b576040805162461bcd60e51b815260206004820152601460248201527314185d5cd8589b194e881b9bdd081c185d5cd95960621b604482015290519081900360640190fd5b600f805460ff191690557f5db9ee0a495bf2e6ff9c91a7834c1ba4fdd244a5e8aa4e537bd38aeae4b073aa61277e61225a565b604080516001600160a01b039092168252519081900360200190a1565b60006127a6826116da565b90506127b481600084612bcc565b6127bf60008361225e565b60008281526009602052604090205460026000196101006001841615020190911604156127fd5760008281526009602052604081206127fd916133bc565b6001600160a01b0381166000908152600260205260409020612825908363ffffffff612c4116565b5061283760038363ffffffff612cdb16565b5060405182906000906001600160a01b038416907fddf252ad1be2c89b69c2b068fc378daa952ba7f163c4a11628f55a4df523b3ef908390a45050565b60008080806128838686612ce7565b9097909650945050505050565b60006124ad848484612d62565b600f5460ff16156128e8576040805162461bcd60e51b815260206004820152601060248201526f14185d5cd8589b194e881c185d5cd95960821b604482015290519081900360640190fd5b600f805460ff191660011790557f62e78cea01bee320cd4e420270b5ea74000d11b0c9f74754ebdbfc544b05a25861277e61225a565b60006114ad836001600160a01b038416612e2c565b61293e8484846124b5565b61294a84848484612e44565b611b9e5760405162461bcd60e51b81526004018080602001828103825260328152602001806134926032913960400191505060405180910390fd5b61298d6116a2565b156129c95760405162461bcd60e51b815260040180806020018281038252602b8152602001806136ae602b913960400191505060405180910390fd5b6129d4878787878787875b50505050505050565b6000848152600d602052604090206129fb908463ffffffff61291e16565b612a1f576000848152600d60205260409020612a1d908463ffffffff612cb116565b505b6000848152600b602090815260408083206001600160a01b03871684528252808320858452909152902054612a82576000828152600e602090815260408083206001600160a01b03871684529091529020612a80908363ffffffff612c1b16565b505b6000938452600b602090815260408086206001600160a01b03909516865293815283852092855291909152912080549091019055565b606081612add57506040805180820190915260018152600360fc1b6020820152610ef2565b8160005b8115612af557600101600a82049150612ae1565b6060816040519080825280601f01601f191660200182016040528015612b22576020820181803683370190505b50859350905060001982015b8315612b7357600a840660300160f81b82828060019003935081518110612b5157fe5b60200101906001600160f81b031916908160001a905350600a84049350612b2e565b50949350505050565b604080516001808252818301909252606091829190602080830190803683370190505090508281600081518110612baf57fe5b602090810291909101015292915050565b60006114ad8383612e2c565b612bd46116a2565b15612c105760405162461bcd60e51b815260040180806020018281038252602b815260200180613438602b913960400191505060405180910390fd5b6110c68383836110c6565b60006114ad8383612fc4565b60006124ad84846001600160a01b03851661300e565b5490565b60006114ad83836130a5565b81546000908210612c8f5760405162461bcd60e51b81526004018080602001828103825260228152602001806134166022913960400191505060405180910390fd5b826000018281548110612c9e57fe5b9060005260206000200154905092915050565b60006114ad836001600160a01b038416612fc4565b60006114ad836001600160a01b0384166130a5565b60006114ad838361316b565b815460009081908310612d2b5760405162461bcd60e51b81526004018080602001828103825260228152602001806136606022913960400191505060405180910390fd5b6000846000018481548110612d3c57fe5b906000526020600020906002020190508060000154816001015492509250509250929050565b60008281526001840160205260408120548281612dfd5760405162461bcd60e51b81526004018080602001828103825283818151815260200191508051906020019080838360005b83811015612dc2578181015183820152602001612daa565b50505050905090810190601f168015612def5780820380516001836020036101000a031916815260200191505b509250505060405180910390fd5b50846000016001820381548110612e1057fe5b9060005260206000209060020201600101549150509392505050565b60009081526001919091016020526040902054151590565b6000612e58846001600160a01b031661323f565b612e64575060016124ad565b6060612f8a630a85bd0160e11b612e7961225a565b88878760405160240180856001600160a01b03166001600160a01b03168152602001846001600160a01b03166001600160a01b0316815260200183815260200180602001828103825283818151815260200191508051906020019080838360005b83811015612ef2578181015183820152602001612eda565b50505050905090810190601f168015612f1f5780820380516001836020036101000a031916815260200191505b5095505050505050604051602081830303815290604052906001600160e01b0319166020820180516001600160e01b038381831617835250505050604051806060016040528060328152602001613492603291396001600160a01b038816919063ffffffff61324516565b90506000818060200190516020811015612fa357600080fd5b50516001600160e01b031916630a85bd0160e11b1492505050949350505050565b6000612fd08383612e2c565b61300657508154600181810184556000848152602080822090930184905584548482528286019093526040902091909155611413565b506000611413565b6000828152600184016020526040812054806130735750506040805180820182528381526020808201848152865460018181018955600089815284812095516002909302909501918255915190820155865486845281880190925292909120556114ad565b8285600001600183038154811061308657fe5b90600052602060002090600202016001018190555060009150506114ad565b6000818152600183016020526040812054801561316157835460001980830191908101906000908790839081106130d857fe5b90600052602060002001549050808760000184815481106130f557fe5b60009182526020808320909101929092558281526001898101909252604090209084019055865487908061312557fe5b60019003818190600052602060002001600090559055866001016000878152602001908152602001600020600090556001945050505050611413565b6000915050611413565b60008181526001830160205260408120548015613161578354600019808301919081019060009087908390811061319e57fe5b90600052602060002090600202019050808760000184815481106131be57fe5b6000918252602080832084546002909302019182556001938401549184019190915583548252898301905260409020908401905586548790806131fd57fe5b60008281526020808220600260001990940193840201828155600190810183905592909355888152898201909252604082209190915594506114139350505050565b3b151590565b60606124ad8484600085606061325a8561323f565b6132ab576040805162461bcd60e51b815260206004820152601d60248201527f416464726573733a2063616c6c20746f206e6f6e2d636f6e7472616374000000604482015290519081900360640190fd5b60006060866001600160a01b031685876040518082805190602001908083835b602083106132ea5780518252601f1990920191602091820191016132cb565b6001836020036101000a03801982511681845116808217855250505050505090500191505060006040518083038185875af1925050503d806000811461334c576040519150601f19603f3d011682016040523d82523d6000602084013e613351565b606091505b509150915081156133655791506124ad9050565b8051156133755780518082602001fd5b60405162461bcd60e51b8152602060048201818152865160248401528651879391928392604401919085019080838360008315612dc2578181015183820152602001612daa565b50805460018160011615610100020316600290046000825580601f106133e25750611671565b600091825260209182902061167192610f8b92601f01048101905b8082111561341157600081556001016133fd565b509056fe456e756d657261626c655365743a20696e646578206f7574206f6620626f756e64734552433732315061757361626c653a20746f6b656e207472616e73666572207768696c6520706175736564416363657373436f6e74726f6c3a2073656e646572206d75737420626520616e2061646d696e20746f206772616e744552433732313a207472616e7366657220746f206e6f6e20455243373231526563656976657220696d706c656d656e7465724552433939383a2064617461206d75737420636f6e7461696e2074686520756e697175652075696e7432353620746f6b656e496420746f207472616e7366657220746865206368696c6420746f6b656e20746f4552433732315072657365744d696e7465725061757365724175746f49643a206d75737420686176652070617573657220726f6c6520746f2070617573654552433732313a207472616e7366657220746f20746865207a65726f20616464726573734552433732313a206f70657261746f7220717565727920666f72206e6f6e6578697374656e7420746f6b656e416363657373436f6e74726f6c3a2073656e646572206d75737420626520616e2061646d696e20746f207265766f6b654552433732313a20617070726f76652063616c6c6572206973206e6f74206f776e6572206e6f7220617070726f76656420666f7220616c6c4552433732313a2062616c616e636520717565727920666f7220746865207a65726f20616464726573734552433732313a206f776e657220717565727920666f72206e6f6e6578697374656e7420746f6b656e456e756d657261626c654d61703a20696e646578206f7574206f6620626f756e64734552433732313a20617070726f76656420717565727920666f72206e6f6e6578697374656e7420746f6b656e4552433939385061757361626c653a206368696c64207472616e73666572207768696c65207061757365644552433732313a207472616e73666572206f6620746f6b656e2074686174206973206e6f74206f776e4552433732314d657461646174613a2055524920717565727920666f72206e6f6e6578697374656e7420746f6b656e4552433732313a206d696e74696e6720776f756c64206361757365206f766572666c6f774552433732313a20617070726f76616c20746f2063757272656e74206f776e6572455243313135353a2069647320616e642076616c756573206c656e677468206d69736d617463684552433732313a207472616e736665722063616c6c6572206973206e6f74206f776e6572206e6f7220617070726f7665644552433732313a2063616e6e6f74206f776e2073616d6520746f6b656e2074776963654552433732314275726e61626c653a2063616c6c6572206973206e6f74206f776e6572206e6f7220617070726f7665644552433732315072657365744d696e7465725061757365724175746f49643a206d75737420686176652070617573657220726f6c6520746f20756e7061757365416363657373436f6e74726f6c3a2063616e206f6e6c792072656e6f756e636520726f6c657320666f722073656c66a2646970667358221220bc869d21a29de2218973861c58c0d09237f0c561fae890d49e1f44ea9708c87b64736f6c63430006030033",
  "linkReferences": {},
  "deployedLinkReferences": {}
}