{
  "_format": "hh-sol-artifact-1",
  "contractName": "ComposableParentERC721",
  "sourceName": "contracts/ComposableParentERC721.sol",
  "abi": [
    {
      "inputs": [
        {
          "internalType": "string",
          "name": "name",
          "type": "string"
        },
        {
          "internalType": "string",
          "name": "symbol",
          "type": "string"
        },
        {
          "internalType": "uint256",
          "name": "firstUpgradeEngagementPoints",
          "type": "uint256"
        }
      ],
      "stateMutability": "nonpayable",
      "type": "constructor"
    },
    {
      "anonymous": false,
      "inputs": [
        {
          "indexed": true,
          "internalType": "address",
          "name": "owner",
          "type": "address"
        },
        {
          "indexed": true,
          "internalType": "address",
          "name": "approved",
          "type": "address"
        },
        {
          "indexed": true,
          "internalType": "uint256",
          "name": "tokenId",
          "type": "uint256"
        }
      ],
      "name": "Approval",
      "type": "event"
    },
    {
      "anonymous": false,
      "inputs": [
        {
          "indexed": true,
          "internalType": "address",
          "name": "owner",
          "type": "address"
        },
        {
          "indexed": true,
          "internalType": "address",
          "name": "operator",
          "type": "address"
        },
        {
          "indexed": false,
          "internalType": "bool",
          "name": "approved",
          "type": "bool"
        }
      ],
      "name": "ApprovalForAll",
      "type": "event"
    },
    {
      "anonymous": false,
      "inputs": [
        {
          "indexed": true,
          "internalType": "uint256",
          "name": "price",
          "type": "uint256"
        }
      ],
      "name": "NFTMintPriceUpdated",
      "type": "event"
    },
    {
      "anonymous": false,
      "inputs": [
        {
          "indexed": true,
          "internalType": "address",
          "name": "NFTowner",
          "type": "address"
        },
        {
          "indexed": true,
          "internalType": "uint256",
          "name": "tokenId",
          "type": "uint256"
        },
        {
          "indexed": true,
          "internalType": "string",
          "name": "tokenURI",
          "type": "string"
        }
      ],
      "name": "NFTMinted",
      "type": "event"
    },
    {
      "anonymous": false,
      "inputs": [
        {
          "indexed": true,
          "internalType": "address",
          "name": "from",
          "type": "address"
        },
        {
          "indexed": true,
          "internalType": "uint256",
          "name": "toTokenId",
          "type": "uint256"
        },
        {
          "indexed": true,
          "internalType": "address",
          "name": "childContract",
          "type": "address"
        },
        {
          "indexed": false,
          "internalType": "uint256",
          "name": "childTokenId",
          "type": "uint256"
        },
        {
          "indexed": false,
          "internalType": "uint256",
          "name": "amount",
          "type": "uint256"
        }
      ],
      "name": "ReceivedChild",
      "type": "event"
    },
    {
      "anonymous": false,
      "inputs": [
        {
          "indexed": true,
          "internalType": "bytes32",
          "name": "role",
          "type": "bytes32"
        },
        {
          "indexed": true,
          "internalType": "bytes32",
          "name": "previousAdminRole",
          "type": "bytes32"
        },
        {
          "indexed": true,
          "internalType": "bytes32",
          "name": "newAdminRole",
          "type": "bytes32"
        }
      ],
      "name": "RoleAdminChanged",
      "type": "event"
    },
    {
      "anonymous": false,
      "inputs": [
        {
          "indexed": true,
          "internalType": "bytes32",
          "name": "role",
          "type": "bytes32"
        },
        {
          "indexed": true,
          "internalType": "address",
          "name": "account",
          "type": "address"
        },
        {
          "indexed": true,
          "internalType": "address",
          "name": "sender",
          "type": "address"
        }
      ],
      "name": "RoleGranted",
      "type": "event"
    },
    {
      "anonymous": false,
      "inputs": [
        {
          "indexed": true,
          "internalType": "bytes32",
          "name": "role",
          "type": "bytes32"
        },
        {
          "indexed": true,
          "internalType": "address",
          "name": "account",
          "type": "address"
        },
        {
          "indexed": true,
          "internalType": "address",
          "name": "sender",
          "type": "address"
        }
      ],
      "name": "RoleRevoked",
      "type": "event"
    },
    {
      "anonymous": false,
      "inputs": [
        {
          "indexed": true,
          "internalType": "uint256",
          "name": "tierId",
          "type": "uint256"
        },
        {
          "indexed": true,
          "internalType": "uint256",
          "name": "price",
          "type": "uint256"
        }
      ],
      "name": "TierUpgradePriceUpdated",
      "type": "event"
    },
    {
      "anonymous": false,
      "inputs": [
        {
          "indexed": true,
          "internalType": "address",
          "name": "from",
          "type": "address"
        },
        {
          "indexed": true,
          "internalType": "address",
          "name": "to",
          "type": "address"
        },
        {
          "indexed": true,
          "internalType": "uint256",
          "name": "tokenId",
          "type": "uint256"
        }
      ],
      "name": "Transfer",
      "type": "event"
    },
    {
      "anonymous": false,
      "inputs": [
        {
          "indexed": true,
          "internalType": "uint256",
          "name": "fromTokenId",
          "type": "uint256"
        },
        {
          "indexed": true,
          "internalType": "address",
          "name": "to",
          "type": "address"
        },
        {
          "indexed": true,
          "internalType": "address",
          "name": "childContract",
          "type": "address"
        },
        {
          "indexed": false,
          "internalType": "uint256[]",
          "name": "childTokenIds",
          "type": "uint256[]"
        },
        {
          "indexed": false,
          "internalType": "uint256[]",
          "name": "amounts",
          "type": "uint256[]"
        }
      ],
      "name": "TransferBatchChild",
      "type": "event"
    },
    {
      "anonymous": false,
      "inputs": [
        {
          "indexed": true,
          "internalType": "uint256",
          "name": "fromTokenId",
          "type": "uint256"
        },
        {
          "indexed": true,
          "internalType": "address",
          "name": "to",
          "type": "address"
        },
        {
          "indexed": true,
          "internalType": "address",
          "name": "childContract",
          "type": "address"
        },
        {
          "indexed": false,
          "internalType": "uint256",
          "name": "childTokenId",
          "type": "uint256"
        },
        {
          "indexed": false,
          "internalType": "uint256",
          "name": "amount",
          "type": "uint256"
        }
      ],
      "name": "TransferSingleChild",
      "type": "event"
    },
    {
      "inputs": [],
      "name": "ADMIN_ROLE",
      "outputs": [
        {
          "internalType": "bytes32",
          "name": "",
          "type": "bytes32"
        }
      ],
      "stateMutability": "view",
      "type": "function"
    },
    {
      "inputs": [],
      "name": "DEFAULT_ADMIN_ROLE",
      "outputs": [
        {
          "internalType": "bytes32",
          "name": "",
          "type": "bytes32"
        }
      ],
      "stateMutability": "view",
      "type": "function"
    },
    {
      "inputs": [],
      "name": "MINTER_ROLE",
      "outputs": [
        {
          "internalType": "bytes32",
          "name": "",
          "type": "bytes32"
        }
      ],
      "stateMutability": "view",
      "type": "function"
    },
    {
      "inputs": [],
      "name": "PAUSER_ROLE",
      "outputs": [
        {
          "internalType": "bytes32",
          "name": "",
          "type": "bytes32"
        }
      ],
      "stateMutability": "view",
      "type": "function"
    },
    {
      "inputs": [],
      "name": "TRUSTED_FORWARDER",
      "outputs": [
        {
          "internalType": "address",
          "name": "",
          "type": "address"
        }
      ],
      "stateMutability": "view",
      "type": "function"
    },
    {
      "inputs": [
        {
          "internalType": "address",
          "name": "to",
          "type": "address"
        },
        {
          "internalType": "uint256",
          "name": "tokenId",
          "type": "uint256"
        }
      ],
      "name": "approve",
      "outputs": [],
      "stateMutability": "nonpayable",
      "type": "function"
    },
    {
      "inputs": [
        {
          "internalType": "address",
          "name": "owner",
          "type": "address"
        }
      ],
      "name": "balanceOf",
      "outputs": [
        {
          "internalType": "uint256",
          "name": "",
          "type": "uint256"
        }
      ],
      "stateMutability": "view",
      "type": "function"
    },
    {
      "inputs": [
        {
          "internalType": "uint256",
          "name": "tokenId",
          "type": "uint256"
        }
      ],
      "name": "burn",
      "outputs": [],
      "stateMutability": "nonpayable",
      "type": "function"
    },
    {
      "inputs": [
        {
          "internalType": "uint256",
          "name": "composableId",
          "type": "uint256"
        },
        {
          "internalType": "address",
          "name": "childContract",
          "type": "address"
        },
        {
          "internalType": "uint256",
          "name": "tierId",
          "type": "uint256"
        }
      ],
      "name": "childBalance",
      "outputs": [
        {
          "internalType": "uint256",
          "name": "",
          "type": "uint256"
        }
      ],
      "stateMutability": "view",
      "type": "function"
    },
    {
      "inputs": [
        {
          "internalType": "uint256",
          "name": "composableId",
          "type": "uint256"
        }
      ],
      "name": "childContractsFor",
      "outputs": [
        {
          "internalType": "address[]",
          "name": "",
          "type": "address[]"
        }
      ],
      "stateMutability": "view",
      "type": "function"
    },
    {
      "inputs": [
        {
          "internalType": "uint256",
          "name": "composableId",
          "type": "uint256"
        },
        {
          "internalType": "address",
          "name": "childContract",
          "type": "address"
        }
      ],
      "name": "childIdsForOn",
      "outputs": [
        {
          "internalType": "uint256[]",
          "name": "",
          "type": "uint256[]"
        }
      ],
      "stateMutability": "view",
      "type": "function"
    },
    {
      "inputs": [
        {
          "internalType": "uint256",
          "name": "tokenId",
          "type": "uint256"
        }
      ],
      "name": "getApproved",
      "outputs": [
        {
          "internalType": "address",
          "name": "",
          "type": "address"
        }
      ],
      "stateMutability": "view",
      "type": "function"
    },
    {
      "inputs": [],
      "name": "getComposableCount",
      "outputs": [
        {
          "internalType": "uint256",
          "name": "",
          "type": "uint256"
        }
      ],
      "stateMutability": "view",
      "type": "function"
    },
    {
      "inputs": [
        {
          "internalType": "address",
          "name": "_owner",
          "type": "address"
        }
      ],
      "name": "getComposableId",
      "outputs": [
        {
          "internalType": "uint256",
          "name": "",
          "type": "uint256"
        }
      ],
      "stateMutability": "view",
      "type": "function"
    },
    {
      "inputs": [
        {
          "internalType": "uint256",
          "name": "_composableId",
          "type": "uint256"
        },
        {
          "internalType": "address",
          "name": "_childContract",
          "type": "address"
        }
      ],
      "name": "getLevel",
      "outputs": [
        {
          "internalType": "uint256",
          "name": "",
          "type": "uint256"
        }
      ],
      "stateMutability": "view",
      "type": "function"
    },
    {
      "inputs": [],
      "name": "getMintCost",
      "outputs": [
        {
          "internalType": "uint256",
          "name": "",
          "type": "uint256"
        }
      ],
      "stateMutability": "view",
      "type": "function"
    },
    {
      "inputs": [
        {
          "internalType": "bytes32",
          "name": "role",
          "type": "bytes32"
        }
      ],
      "name": "getRoleAdmin",
      "outputs": [
        {
          "internalType": "bytes32",
          "name": "",
          "type": "bytes32"
        }
      ],
      "stateMutability": "view",
      "type": "function"
    },
    {
      "inputs": [
        {
          "internalType": "uint256",
          "name": "_tierId",
          "type": "uint256"
        }
      ],
      "name": "getTierUpgradeCost",
      "outputs": [
        {
          "internalType": "uint256",
          "name": "",
          "type": "uint256"
        }
      ],
      "stateMutability": "view",
      "type": "function"
    },
    {
      "inputs": [
        {
          "internalType": "bytes32",
          "name": "role",
          "type": "bytes32"
        },
        {
          "internalType": "address",
          "name": "account",
          "type": "address"
        }
      ],
      "name": "grantRole",
      "outputs": [],
      "stateMutability": "nonpayable",
      "type": "function"
    },
    {
      "inputs": [
        {
          "internalType": "bytes32",
          "name": "role",
          "type": "bytes32"
        },
        {
          "internalType": "address",
          "name": "account",
          "type": "address"
        }
      ],
      "name": "hasRole",
      "outputs": [
        {
          "internalType": "bool",
          "name": "",
          "type": "bool"
        }
      ],
      "stateMutability": "view",
      "type": "function"
    },
    {
      "inputs": [
        {
          "internalType": "address",
          "name": "owner",
          "type": "address"
        },
        {
          "internalType": "address",
          "name": "operator",
          "type": "address"
        }
      ],
      "name": "isApprovedForAll",
      "outputs": [
        {
          "internalType": "bool",
          "name": "",
          "type": "bool"
        }
      ],
      "stateMutability": "view",
      "type": "function"
    },
    {
      "inputs": [
        {
          "internalType": "address",
          "name": "forwarder",
          "type": "address"
        }
      ],
      "name": "isTrustedForwarder",
      "outputs": [
        {
          "internalType": "bool",
          "name": "",
          "type": "bool"
        }
      ],
      "stateMutability": "view",
      "type": "function"
    },
    {
      "inputs": [
        {
          "internalType": "address",
          "name": "recp",
          "type": "address"
        },
        {
          "internalType": "string",
          "name": "tokenURI",
          "type": "string"
        }
      ],
      "name": "mint",
      "outputs": [],
      "stateMutability": "payable",
      "type": "function"
    },
    {
      "inputs": [],
      "name": "mintCost",
      "outputs": [
        {
          "internalType": "uint256",
          "name": "",
          "type": "uint256"
        }
      ],
      "stateMutability": "view",
      "type": "function"
    },
    {
      "inputs": [],
      "name": "name",
      "outputs": [
        {
          "internalType": "string",
          "name": "",
          "type": "string"
        }
      ],
      "stateMutability": "view",
      "type": "function"
    },
    {
      "inputs": [
        {
          "internalType": "address",
          "name": "operator",
          "type": "address"
        },
        {
          "internalType": "address",
          "name": "from",
          "type": "address"
        },
        {
          "internalType": "uint256[]",
          "name": "ids",
          "type": "uint256[]"
        },
        {
          "internalType": "uint256[]",
          "name": "values",
          "type": "uint256[]"
        },
        {
          "internalType": "bytes",
          "name": "data",
          "type": "bytes"
        }
      ],
      "name": "onERC1155BatchReceived",
      "outputs": [
        {
          "internalType": "bytes4",
          "name": "",
          "type": "bytes4"
        }
      ],
      "stateMutability": "nonpayable",
      "type": "function"
    },
    {
      "inputs": [
        {
          "internalType": "address",
          "name": "operator",
          "type": "address"
        },
        {
          "internalType": "address",
          "name": "from",
          "type": "address"
        },
        {
          "internalType": "uint256",
          "name": "id",
          "type": "uint256"
        },
        {
          "internalType": "uint256",
          "name": "amount",
          "type": "uint256"
        },
        {
          "internalType": "bytes",
          "name": "data",
          "type": "bytes"
        }
      ],
      "name": "onERC1155Received",
      "outputs": [
        {
          "internalType": "bytes4",
          "name": "",
          "type": "bytes4"
        }
      ],
      "stateMutability": "nonpayable",
      "type": "function"
    },
    {
      "inputs": [],
      "name": "owner",
      "outputs": [
        {
          "internalType": "address payable",
          "name": "",
          "type": "address"
        }
      ],
      "stateMutability": "view",
      "type": "function"
    },
    {
      "inputs": [
        {
          "internalType": "uint256",
          "name": "tokenId",
          "type": "uint256"
        }
      ],
      "name": "ownerOf",
      "outputs": [
        {
          "internalType": "address",
          "name": "",
          "type": "address"
        }
      ],
      "stateMutability": "view",
      "type": "function"
    },
    {
      "inputs": [
        {
          "internalType": "address",
          "name": "",
          "type": "address"
        }
      ],
      "name": "ownerToComposableId",
      "outputs": [
        {
          "internalType": "uint256",
          "name": "",
          "type": "uint256"
        }
      ],
      "stateMutability": "view",
      "type": "function"
    },
    {
      "inputs": [],
      "name": "pause",
      "outputs": [],
      "stateMutability": "nonpayable",
      "type": "function"
    },
    {
      "inputs": [
        {
          "internalType": "bytes32",
          "name": "role",
          "type": "bytes32"
        },
        {
          "internalType": "address",
          "name": "account",
          "type": "address"
        }
      ],
      "name": "renounceRole",
      "outputs": [],
      "stateMutability": "nonpayable",
      "type": "function"
    },
    {
      "inputs": [
        {
          "internalType": "bytes32",
          "name": "role",
          "type": "bytes32"
        },
        {
          "internalType": "address",
          "name": "account",
          "type": "address"
        }
      ],
      "name": "revokeRole",
      "outputs": [],
      "stateMutability": "nonpayable",
      "type": "function"
    },
    {
      "inputs": [
        {
          "internalType": "address",
          "name": "from",
          "type": "address"
        },
        {
          "internalType": "address",
          "name": "to",
          "type": "address"
        },
        {
          "internalType": "uint256",
          "name": "tokenId",
          "type": "uint256"
        }
      ],
      "name": "safeTransferFrom",
      "outputs": [],
      "stateMutability": "nonpayable",
      "type": "function"
    },
    {
      "inputs": [
        {
          "internalType": "address",
          "name": "from",
          "type": "address"
        },
        {
          "internalType": "address",
          "name": "to",
          "type": "address"
        },
        {
          "internalType": "uint256",
          "name": "tokenId",
          "type": "uint256"
        },
        {
          "internalType": "bytes",
          "name": "_data",
          "type": "bytes"
        }
      ],
      "name": "safeTransferFrom",
      "outputs": [],
      "stateMutability": "nonpayable",
      "type": "function"
    },
    {
      "inputs": [
        {
          "internalType": "address",
          "name": "operator",
          "type": "address"
        },
        {
          "internalType": "bool",
          "name": "approved",
          "type": "bool"
        }
      ],
      "name": "setApprovalForAll",
      "outputs": [],
      "stateMutability": "nonpayable",
      "type": "function"
    },
    {
      "inputs": [
        {
          "internalType": "uint256",
          "name": "_cost",
          "type": "uint256"
        }
      ],
      "name": "setMintCost",
      "outputs": [],
      "stateMutability": "nonpayable",
      "type": "function"
    },
    {
      "inputs": [
        {
          "internalType": "uint256",
          "name": "_tierId",
          "type": "uint256"
        },
        {
          "internalType": "uint256",
          "name": "_cost",
          "type": "uint256"
        }
      ],
      "name": "setTierUpgradeCost",
      "outputs": [],
      "stateMutability": "nonpayable",
      "type": "function"
    },
    {
      "inputs": [
        {
          "internalType": "address",
          "name": "_newTrustedForwarder",
          "type": "address"
        }
      ],
      "name": "setTrustedForwarder",
      "outputs": [],
      "stateMutability": "nonpayable",
      "type": "function"
    },
    {
      "inputs": [
        {
          "internalType": "bytes4",
          "name": "interfaceId",
          "type": "bytes4"
        }
      ],
      "name": "supportsInterface",
      "outputs": [
        {
          "internalType": "bool",
          "name": "",
          "type": "bool"
        }
      ],
      "stateMutability": "view",
      "type": "function"
    },
    {
      "inputs": [],
      "name": "symbol",
      "outputs": [
        {
          "internalType": "string",
          "name": "",
          "type": "string"
        }
      ],
      "stateMutability": "view",
      "type": "function"
    },
    {
      "inputs": [
        {
          "internalType": "uint256",
          "name": "tokenId",
          "type": "uint256"
        }
      ],
      "name": "tokenURI",
      "outputs": [
        {
          "internalType": "string",
          "name": "",
          "type": "string"
        }
      ],
      "stateMutability": "view",
      "type": "function"
    },
    {
      "inputs": [
        {
          "internalType": "address",
          "name": "from",
          "type": "address"
        },
        {
          "internalType": "address",
          "name": "to",
          "type": "address"
        },
        {
          "internalType": "uint256",
          "name": "tokenId",
          "type": "uint256"
        }
      ],
      "name": "transferFrom",
      "outputs": [],
      "stateMutability": "nonpayable",
      "type": "function"
    },
    {
      "inputs": [],
      "name": "unpause",
      "outputs": [],
      "stateMutability": "nonpayable",
      "type": "function"
    },
    {
      "inputs": [],
      "name": "versionRecipient",
      "outputs": [
        {
          "internalType": "string",
          "name": "",
          "type": "string"
        }
      ],
      "stateMutability": "view",
      "type": "function"
    }
  ],
  "bytecode": "0x60806040526000600f55601180546001600160a01b031916739399bb24dbb5c4b782c70c2969f58716ebbd6a3b1790553480156200003c57600080fd5b50604051620038c9380380620038c98339810160408190526200005f9162000437565b60115483516001600160a01b039091169084908490829082906200008b906000906020850190620002c4565b508051620000a1906001906020840190620002c4565b5050600b80546001600160a01b0319166001600160a01b03959095169490941790935550506001600d55506000620000d8620001b5565b601080546001600160a01b0319166001600160a01b0383161790559050620001217fa49807205ce4d355092ef5a8a18f56e8913cf4a201fbe287825b095693c2177582620001d1565b6200014d7f9f2df0fed2c77648de5860a4cc508cd0818c85b8b8a1ab4ceeef8d981c8956a682620001d1565b620001797f65d7a28e3265b37a6474929f336521b332c1681b933f6cb9f3376673440d862a82620001d1565b506000600e8190556001905260126020527f71a67924699a20698523213e55fe499d539379d7769cd5567e2c45d583f815a35550620004e79050565b6000620001cc620001e160201b62001a361760201c565b905090565b620001dd82826200021a565b5050565b600b546000906001600160a01b031633141562000205575060131936013560601c90565b620001cc620002c060201b62001a631760201c565b6000828152600c602090815260408083206001600160a01b038516845290915290205460ff16620001dd576000828152600c602090815260408083206001600160a01b03851684529091529020805460ff191660011790556200027c620001b5565b6001600160a01b0316816001600160a01b0316837f2f8788117e7eff1d82e926ec794901d17c78024a50270940304540a733656f0d60405160405180910390a45050565b3390565b828054620002d290620004aa565b90600052602060002090601f016020900481019282620002f6576000855562000341565b82601f106200031157805160ff191683800117855562000341565b8280016001018555821562000341579182015b828111156200034157825182559160200191906001019062000324565b506200034f92915062000353565b5090565b5b808211156200034f576000815560010162000354565b634e487b7160e01b600052604160045260246000fd5b600082601f8301126200039257600080fd5b81516001600160401b0380821115620003af57620003af6200036a565b604051601f8301601f19908116603f01168101908282118183101715620003da57620003da6200036a565b81604052838152602092508683858801011115620003f757600080fd5b600091505b838210156200041b5785820183015181830184015290820190620003fc565b838211156200042d5760008385830101525b9695505050505050565b6000806000606084860312156200044d57600080fd5b83516001600160401b03808211156200046557600080fd5b620004738783880162000380565b945060208601519150808211156200048a57600080fd5b50620004998682870162000380565b925050604084015190509250925092565b600181811c90821680620004bf57607f821691505b60208210811415620004e157634e487b7160e01b600052602260045260246000fd5b50919050565b6133d280620004f76000396000f3fe6080604052600436106102725760003560e01c80638456cb591161014f578063bc197c81116100c1578063da7422281161007a578063da74222814610805578063e2275b5214610825578063e63ab1e914610845578063e985e9c514610879578063f225d432146108c2578063f23a6e61146108e257600080fd5b8063bc197c811461072f578063bdb4b84814610768578063c87b56dd1461077e578063d0def5211461079e578063d5391393146107b1578063d547741f146107e557600080fd5b806391d148541161011357806391d148541461068557806395d89b41146106a5578063a217fddf146106ba578063a22cb465146106cf578063af835119146106ef578063b88d4fde1461070f57600080fd5b80638456cb59146105ee5780638545f4ea1461060357806389e7e2f2146106235780638b9220f3146106505780638da5cb5b1461066557600080fd5b806342842e0e116101e857806360d4d23a116101ac57806360d4d23a146104df5780636352211e14610529578063640bfdb51461054957806370a082311461057f57806375b238fc1461059f5780637c926af6146105c157600080fd5b806342842e0e1461041957806342966c6814610439578063486ff0cd146104595780634e18b76214610483578063572b6c05146104b057600080fd5b806323b872dd1161023a57806323b872dd14610347578063248a9ca3146103675780632676608c146103975780632f2ff15d146103c457806336568abe146103e45780633f4ba83a1461040457600080fd5b806301ffc9a71461027757806306fdde03146102ac578063081812fc146102ce578063095ea7b31461030657806313c738f014610328575b600080fd5b34801561028357600080fd5b50610297610292366004612a6d565b610902565b60405190151581526020015b60405180910390f35b3480156102b857600080fd5b506102c1610913565b6040516102a39190612ae2565b3480156102da57600080fd5b506102ee6102e9366004612af5565b6109a5565b6040516001600160a01b0390911681526020016102a3565b34801561031257600080fd5b50610326610321366004612b2a565b610a32565b005b34801561033457600080fd5b50600f545b6040519081526020016102a3565b34801561035357600080fd5b50610326610362366004612b54565b610b5a565b34801561037357600080fd5b50610339610382366004612af5565b6000908152600c602052604090206001015490565b3480156103a357600080fd5b506103b76103b2366004612b90565b610b92565b6040516102a39190612bbc565b3480156103d057600080fd5b506103266103df366004612b90565b610c9d565b3480156103f057600080fd5b506103266103ff366004612b90565b610cc2565b34801561041057600080fd5b50610326610d50565b34801561042557600080fd5b50610326610434366004612b54565b610dfa565b34801561044557600080fd5b50610326610454366004612af5565b610e15565b34801561046557600080fd5b506040805180820190915260018152603160f81b60208201526102c1565b34801561048f57600080fd5b5061033961049e366004612c00565b60136020526000908152604090205481565b3480156104bc57600080fd5b506102976104cb366004612c00565b600b546001600160a01b0391821691161490565b3480156104eb57600080fd5b506103396104fa366004612c1b565b60009283526007602090815260408085206001600160a01b039490941685529281528284209184525290205490565b34801561053557600080fd5b506102ee610544366004612af5565b610e91565b34801561055557600080fd5b50610339610564366004612c00565b6001600160a01b031660009081526013602052604090205490565b34801561058b57600080fd5b5061033961059a366004612c00565b610f08565b3480156105ab57600080fd5b5061033960008051602061337d83398151915281565b3480156105cd57600080fd5b506103396105dc366004612af5565b60009081526012602052604090205490565b3480156105fa57600080fd5b50610326610f8f565b34801561060f57600080fd5b5061032661061e366004612af5565b611035565b34801561062f57600080fd5b5061064361063e366004612af5565b6110ce565b6040516102a39190612c40565b34801561065c57600080fd5b50600e54610339565b34801561067157600080fd5b506010546102ee906001600160a01b031681565b34801561069157600080fd5b506102976106a0366004612b90565b6111a9565b3480156106b157600080fd5b506102c16111d4565b3480156106c657600080fd5b50610339600081565b3480156106db57600080fd5b506103266106ea366004612c81565b6111e3565b3480156106fb57600080fd5b506011546102ee906001600160a01b031681565b34801561071b57600080fd5b5061032661072a366004612d7c565b6111f5565b34801561073b57600080fd5b5061074f61074a366004612e64565b611234565b6040516001600160e01b031990911681526020016102a3565b34801561077457600080fd5b50610339600f5481565b34801561078a57600080fd5b506102c1610799366004612af5565b6113c6565b6103266107ac366004612f0e565b61153d565b3480156107bd57600080fd5b506103397f9f2df0fed2c77648de5860a4cc508cd0818c85b8b8a1ab4ceeef8d981c8956a681565b3480156107f157600080fd5b50610326610800366004612b90565b6117b5565b34801561081157600080fd5b50610326610820366004612c00565b6117da565b34801561083157600080fd5b50610326610840366004612f70565b61186d565b34801561085157600080fd5b506103397f65d7a28e3265b37a6474929f336521b332c1681b933f6cb9f3376673440d862a81565b34801561088557600080fd5b50610297610894366004612f92565b6001600160a01b03918216600090815260056020908152604080832093909416825291909152205460ff1690565b3480156108ce57600080fd5b506103396108dd366004612b90565b611920565b3480156108ee57600080fd5b5061074f6108fd366004612fbc565b611975565b600061090d82611a67565b92915050565b60606000805461092290613021565b80601f016020809104026020016040519081016040528092919081815260200182805461094e90613021565b801561099b5780601f106109705761010080835404028352916020019161099b565b820191906000526020600020905b81548152906001019060200180831161097e57829003601f168201915b5050505050905090565b60006109b082611a8c565b610a165760405162461bcd60e51b815260206004820152602c60248201527f4552433732313a20617070726f76656420717565727920666f72206e6f6e657860448201526b34b9ba32b73a103a37b5b2b760a11b60648201526084015b60405180910390fd5b506000908152600460205260409020546001600160a01b031690565b6000610a3d82610e91565b9050806001600160a01b0316836001600160a01b03161415610aab5760405162461bcd60e51b815260206004820152602160248201527f4552433732313a20617070726f76616c20746f2063757272656e74206f776e656044820152603960f91b6064820152608401610a0d565b806001600160a01b0316610abd611aa9565b6001600160a01b03161480610ad95750610ad981610894611aa9565b610b4b5760405162461bcd60e51b815260206004820152603860248201527f4552433732313a20617070726f76652063616c6c6572206973206e6f74206f7760448201527f6e6572206e6f7220617070726f76656420666f7220616c6c00000000000000006064820152608401610a0d565b610b558383611ab3565b505050565b610b6b610b65611aa9565b82611b21565b610b875760405162461bcd60e51b8152600401610a0d9061305c565b610b55838383611c0a565b6000828152600a602090815260408083206001600160a01b0385168452909152812060609190610bc190611da6565b67ffffffffffffffff811115610bd957610bd9612cbd565b604051908082528060200260200182016040528015610c02578160200160208202803683370190505b50905060005b6000858152600a602090815260408083206001600160a01b03881684529091529020610c3390611da6565b811015610c95576000858152600a602090815260408083206001600160a01b03881684529091529020610c669082611db0565b828281518110610c7857610c786130ad565b602090810291909101015280610c8d816130d9565b915050610c08565b509392505050565b6000828152600c6020526040902060010154610cb881611dc3565b610b558383611dd4565b610cca611aa9565b6001600160a01b0316816001600160a01b031614610d425760405162461bcd60e51b815260206004820152602f60248201527f416363657373436f6e74726f6c3a2063616e206f6e6c792072656e6f756e636560448201526e103937b632b9903337b91039b2b63360891b6064820152608401610a0d565b610d4c8282611e5b565b5050565b610d7c7f65d7a28e3265b37a6474929f336521b332c1681b933f6cb9f3376673440d862a6106a0611aa9565b610df0576040805162461bcd60e51b81526020600482015260248101919091527f4552433732315072657365744d696e7465725061757365724175746f49643a2060448201527f6d75737420686176652070617573657220726f6c6520746f20756e70617573656064820152608401610a0d565b610df8610d50565b565b610b55838383604051806020016040528060008152506111f5565b610e20610b65611aa9565b610e855760405162461bcd60e51b815260206004820152603060248201527f4552433732314275726e61626c653a2063616c6c6572206973206e6f74206f7760448201526f1b995c881b9bdc88185c1c1c9bdd995960821b6064820152608401610a0d565b610e8e81611ee0565b50565b6000818152600260205260408120546001600160a01b03168061090d5760405162461bcd60e51b815260206004820152602960248201527f4552433732313a206f776e657220717565727920666f72206e6f6e657869737460448201526832b73a103a37b5b2b760b91b6064820152608401610a0d565b60006001600160a01b038216610f735760405162461bcd60e51b815260206004820152602a60248201527f4552433732313a2062616c616e636520717565727920666f7220746865207a65604482015269726f206164647265737360b01b6064820152608401610a0d565b506001600160a01b031660009081526003602052604090205490565b610fbb7f65d7a28e3265b37a6474929f336521b332c1681b933f6cb9f3376673440d862a6106a0611aa9565b61102d5760405162461bcd60e51b815260206004820152603e60248201527f4552433732315072657365744d696e7465725061757365724175746f49643a2060448201527f6d75737420686176652070617573657220726f6c6520746f20706175736500006064820152608401610a0d565b610df8610f8f565b61104f60008051602061337d8339815191526106a0611aa9565b61109b5760405162461bcd60e51b815260206004820152601e60248201527f556e617574686f72697a656420612f63203a207365744d696e74436f737400006044820152606401610a0d565b600f81905560405181907f922c604c5c18f1a1cd96d928a6f0b8c4e17819dbe5d18da3c4ebe664d2c45fca90600090a250565b6000818152600960205260408120606091906110e990611da6565b67ffffffffffffffff81111561110157611101612cbd565b60405190808252806020026020018201604052801561112a578160200160208202803683370190505b50905060005b600084815260096020526040902061114790611da6565b8110156111a25760008481526009602052604090206111669082611db0565b828281518110611178576111786130ad565b6001600160a01b03909216602092830291909101909101528061119a816130d9565b915050611130565b5092915050565b6000918252600c602090815260408084206001600160a01b0393909316845291905290205460ff1690565b60606001805461092290613021565b610d4c6111ee611aa9565b8383611f20565b611206611200611aa9565b83611b21565b6112225760405162461bcd60e51b8152600401610a0d9061305c565b61122e84848484611fef565b50505050565b600081516020146112575760405162461bcd60e51b8152600401610a0d906130f4565b82518451146112b85760405162461bcd60e51b815260206004820152602760248201527f455243313135353a2069647320616e642076616c756573206c656e677468206d6044820152660d2e6dac2e8c6d60cb1b6064820152608401610a0d565b6000806112c660203661316d565b90508035915060005b86518110156113b15761131683338984815181106112ef576112ef6130ad565b6020026020010151898581518110611309576113096130ad565b6020026020010151612022565b336001600160a01b031683896001600160a01b03167fa18753b0660a8be2cdae03468c860b47c2926433ab16917f323544652803032d8a858151811061135e5761135e6130ad565b60200260200101518a8681518110611378576113786130ad565b6020026020010151604051611397929190918252602082015260400190565b60405180910390a4806113a9816130d9565b9150506112cf565b5063bc197c8160e01b98975050505050505050565b60606113d182611a8c565b6114375760405162461bcd60e51b815260206004820152603160248201527f45524337323155524953746f726167653a2055524920717565727920666f72206044820152703737b732bc34b9ba32b73a103a37b5b2b760791b6064820152608401610a0d565b6000828152600660205260408120805461145090613021565b80601f016020809104026020016040519081016040528092919081815260200182805461147c90613021565b80156114c95780601f1061149e576101008083540402835291602001916114c9565b820191906000526020600020905b8154815290600101906020018083116114ac57829003601f168201915b5050505050905060006114e760408051602081019091526000815290565b90508051600014156114fa575092915050565b81511561152c578082604051602001611514929190613184565b60405160208183030381529060405292505050919050565b611535846120fa565b949350505050565b6002600d5414156115905760405162461bcd60e51b815260206004820152601f60248201527f5265656e7472616e637947756172643a207265656e7472616e742063616c6c006044820152606401610a0d565b6002600d556115c17f9f2df0fed2c77648de5860a4cc508cd0818c85b8b8a1ab4ceeef8d981c8956a66106a0611aa9565b6116335760405162461bcd60e51b815260206004820152603860248201527f436f6d706f7361626c65506172656e744552433732313a206d7573742068617660448201527f65206d696e74657220726f6c6520746f20756e706175736500000000000000006064820152608401610a0d565b600f5434146116845760405162461bcd60e51b815260206004820152601e60248201527f4552433732313a206d7573742070617920746865206d696e7420636f737400006044820152606401610a0d565b61168d82610f08565b156116e65760405162461bcd60e51b815260206004820152602360248201527f4552433732313a2063616e6e6f74206f776e2073616d6520746f6b656e20747760448201526269636560e81b6064820152608401610a0d565b6000600e5460016116f791906131b3565b905061170383826121d1565b61170d8183612304565b6001600160a01b03808416600090815260136020526040808220849055600e84905560105490519216913480156108fc0292909190818181858888f1935050505015801561175f573d6000803e3d6000fd5b508160405161176e91906131cb565b6040519081900381209082906001600160a01b038616907fd35bb95e09c04b219e35047ce7b7b300e3384264ef84a40456943dbc0fc17c1490600090a450506001600d5550565b6000828152600c60205260409020600101546117d081611dc3565b610b558383611e5b565b6117f460008051602061337d8339815191526106a0611aa9565b61184b5760405162461bcd60e51b815260206004820152602260248201527f556e617574686f72697a656420612f63203a206368616e67654d6178537570706044820152616c7960f01b6064820152608401610a0d565b601180546001600160a01b0319166001600160a01b0392909216919091179055565b61188760008051602061337d8339815191526106a0611aa9565b6118e15760405162461bcd60e51b815260206004820152602560248201527f556e617574686f72697a656420612f63203a20736574546965725570677261646044820152641950dbdcdd60da1b6064820152608401610a0d565b60008281526012602052604080822083905551829184917f0c13cfda0c63d281660989dcc800b83761b1b90295c71a48e623299e92745d319190a35050565b600060015b60008481526007602090815260408083206001600160a01b038716845282528083208484529091529020546001141561196a576119636001826131b3565b9050611925565b61153560018261316d565b600081516020146119985760405162461bcd60e51b8152600401610a0d906130f4565b6119ba86600030886119a98961238f565b6119b28961238f565b505050505050565b6000806119c860203661316d565b9050803591506119da82338888612022565b6040805187815260208101879052339184916001600160a01b038b16917fa18753b0660a8be2cdae03468c860b47c2926433ab16917f323544652803032d910160405180910390a45063f23a6e6160e01b979650505050505050565b600b546000906001600160a01b0316331415611a59575060131936013560601c90565b503390565b905090565b3390565b60006001600160e01b03198216637965db0b60e01b148061090d575061090d826123da565b6000908152600260205260409020546001600160a01b0316151590565b6000611a5e611a36565b600081815260046020526040902080546001600160a01b0319166001600160a01b0384169081179091558190611ae882610e91565b6001600160a01b03167f8c5be1e5ebec7d5bd14f71427d1e84f3dd0314c0f7b2291e5b200ac8c7c3b92560405160405180910390a45050565b6000611b2c82611a8c565b611b8d5760405162461bcd60e51b815260206004820152602c60248201527f4552433732313a206f70657261746f7220717565727920666f72206e6f6e657860448201526b34b9ba32b73a103a37b5b2b760a11b6064820152608401610a0d565b6000611b9883610e91565b9050806001600160a01b0316846001600160a01b03161480611bdf57506001600160a01b0380821660009081526005602090815260408083209388168352929052205460ff165b806115355750836001600160a01b0316611bf8846109a5565b6001600160a01b031614949350505050565b826001600160a01b0316611c1d82610e91565b6001600160a01b031614611c815760405162461bcd60e51b815260206004820152602560248201527f4552433732313a207472616e736665722066726f6d20696e636f72726563742060448201526437bbb732b960d91b6064820152608401610a0d565b6001600160a01b038216611ce35760405162461bcd60e51b8152602060048201526024808201527f4552433732313a207472616e7366657220746f20746865207a65726f206164646044820152637265737360e01b6064820152608401610a0d565b611cee600082611ab3565b6001600160a01b0383166000908152600360205260408120805460019290611d1790849061316d565b90915550506001600160a01b0382166000908152600360205260408120805460019290611d459084906131b3565b909155505060008181526002602052604080822080546001600160a01b0319166001600160a01b0386811691821790925591518493918716917fddf252ad1be2c89b69c2b068fc378daa952ba7f163c4a11628f55a4df523b3ef91a4505050565b600061090d825490565b6000611dbc838361242a565b9392505050565b610e8e81611dcf611aa9565b612454565b611dde82826111a9565b610d4c576000828152600c602090815260408083206001600160a01b03851684529091529020805460ff19166001179055611e17611aa9565b6001600160a01b0316816001600160a01b0316837f2f8788117e7eff1d82e926ec794901d17c78024a50270940304540a733656f0d60405160405180910390a45050565b611e6582826111a9565b15610d4c576000828152600c602090815260408083206001600160a01b03851684529091529020805460ff19169055611e9c611aa9565b6001600160a01b0316816001600160a01b0316837ff6391f5c32d9c69d2a47ea670b442974b53935d1edc7fd64eb21e047a839171b60405160405180910390a45050565b611ee9816124b8565b60008181526006602052604090208054611f0290613021565b159050610e8e576000818152600660205260408120610e8e91612984565b816001600160a01b0316836001600160a01b03161415611f825760405162461bcd60e51b815260206004820152601960248201527f4552433732313a20617070726f766520746f2063616c6c6572000000000000006044820152606401610a0d565b6001600160a01b03838116600081815260056020908152604080832094871680845294825291829020805460ff191686151590811790915591519182527f17307eab39ab6107e8899845ad3d59bd9653f200f220920489ca2b5937696c31910160405180910390a3505050565b611ffa848484611c0a565b61200684848484612553565b61122e5760405162461bcd60e51b8152600401610a0d906131e7565b600084815260096020526040902061203a9084612658565b612058576000848152600960205260409020612056908461267a565b505b60008481526007602090815260408083206001600160a01b038716845282528083208584529091529020546120b5576000828152600a602090815260408083206001600160a01b038716845290915290206120b3908361268f565b505b60008481526007602090815260408083206001600160a01b03871684528252808320858452909152812080548392906120ef9084906131b3565b909155505050505050565b606061210582611a8c565b6121695760405162461bcd60e51b815260206004820152602f60248201527f4552433732314d657461646174613a2055524920717565727920666f72206e6f60448201526e3732bc34b9ba32b73a103a37b5b2b760891b6064820152608401610a0d565b600061218060408051602081019091526000815290565b905060008151116121a05760405180602001604052806000815250611dbc565b806121aa8461269b565b6040516020016121bb929190613184565b6040516020818303038152906040529392505050565b6001600160a01b0382166122275760405162461bcd60e51b815260206004820181905260248201527f4552433732313a206d696e7420746f20746865207a65726f20616464726573736044820152606401610a0d565b61223081611a8c565b1561227d5760405162461bcd60e51b815260206004820152601c60248201527f4552433732313a20746f6b656e20616c7265616479206d696e746564000000006044820152606401610a0d565b6001600160a01b03821660009081526003602052604081208054600192906122a69084906131b3565b909155505060008181526002602052604080822080546001600160a01b0319166001600160a01b03861690811790915590518392907fddf252ad1be2c89b69c2b068fc378daa952ba7f163c4a11628f55a4df523b3ef908290a45050565b61230d82611a8c565b6123705760405162461bcd60e51b815260206004820152602e60248201527f45524337323155524953746f726167653a2055524920736574206f66206e6f6e60448201526d32bc34b9ba32b73a103a37b5b2b760911b6064820152608401610a0d565b60008281526006602090815260409091208251610b55928401906129be565b604080516001808252818301909252606091600091906020808301908036833701905050905082816000815181106123c9576123c96130ad565b602090810291909101015292915050565b60006001600160e01b031982166380ac58cd60e01b148061240b57506001600160e01b03198216635b5e139f60e01b145b8061090d57506301ffc9a760e01b6001600160e01b031983161461090d565b6000826000018281548110612441576124416130ad565b9060005260206000200154905092915050565b61245e82826111a9565b610d4c57612476816001600160a01b03166014612799565b612481836020612799565b604051602001612492929190613239565b60408051601f198184030181529082905262461bcd60e51b8252610a0d91600401612ae2565b60006124c382610e91565b90506124d0600083611ab3565b6001600160a01b03811660009081526003602052604081208054600192906124f990849061316d565b909155505060008281526002602052604080822080546001600160a01b0319169055518391906001600160a01b038416907fddf252ad1be2c89b69c2b068fc378daa952ba7f163c4a11628f55a4df523b3ef908390a45050565b60006001600160a01b0384163b1561264d57836001600160a01b031663150b7a0261257c611aa9565b8786866040518563ffffffff1660e01b815260040161259e94939291906132ae565b6020604051808303816000875af19250505080156125d9575060408051601f3d908101601f191682019092526125d6918101906132eb565b60015b612633573d808015612607576040519150601f19603f3d011682016040523d82523d6000602084013e61260c565b606091505b50805161262b5760405162461bcd60e51b8152600401610a0d906131e7565b805181602001fd5b6001600160e01b031916630a85bd0160e11b149050611535565b506001949350505050565b6001600160a01b03811660009081526001830160205260408120541515611dbc565b6000611dbc836001600160a01b038416612935565b6000611dbc8383612935565b6060816126bf5750506040805180820190915260018152600360fc1b602082015290565b8160005b81156126e957806126d3816130d9565b91506126e29050600a8361331e565b91506126c3565b60008167ffffffffffffffff81111561270457612704612cbd565b6040519080825280601f01601f19166020018201604052801561272e576020820181803683370190505b5090505b84156115355761274360018361316d565b9150612750600a86613332565b61275b9060306131b3565b60f81b818381518110612770576127706130ad565b60200101906001600160f81b031916908160001a905350612792600a8661331e565b9450612732565b606060006127a8836002613346565b6127b39060026131b3565b67ffffffffffffffff8111156127cb576127cb612cbd565b6040519080825280601f01601f1916602001820160405280156127f5576020820181803683370190505b509050600360fc1b81600081518110612810576128106130ad565b60200101906001600160f81b031916908160001a905350600f60fb1b8160018151811061283f5761283f6130ad565b60200101906001600160f81b031916908160001a9053506000612863846002613346565b61286e9060016131b3565b90505b60018111156128e6576f181899199a1a9b1b9c1cb0b131b232b360811b85600f16601081106128a2576128a26130ad565b1a60f81b8282815181106128b8576128b86130ad565b60200101906001600160f81b031916908160001a90535060049490941c936128df81613365565b9050612871565b508315611dbc5760405162461bcd60e51b815260206004820181905260248201527f537472696e67733a20686578206c656e67746820696e73756666696369656e746044820152606401610a0d565b600081815260018301602052604081205461297c5750815460018181018455600084815260208082209093018490558454848252828601909352604090209190915561090d565b50600061090d565b50805461299090613021565b6000825580601f106129a0575050565b601f016020900490600052602060002090810190610e8e9190612a42565b8280546129ca90613021565b90600052602060002090601f0160209004810192826129ec5760008555612a32565b82601f10612a0557805160ff1916838001178555612a32565b82800160010185558215612a32579182015b82811115612a32578251825591602001919060010190612a17565b50612a3e929150612a42565b5090565b5b80821115612a3e5760008155600101612a43565b6001600160e01b031981168114610e8e57600080fd5b600060208284031215612a7f57600080fd5b8135611dbc81612a57565b60005b83811015612aa5578181015183820152602001612a8d565b8381111561122e5750506000910152565b60008151808452612ace816020860160208601612a8a565b601f01601f19169290920160200192915050565b602081526000611dbc6020830184612ab6565b600060208284031215612b0757600080fd5b5035919050565b80356001600160a01b0381168114612b2557600080fd5b919050565b60008060408385031215612b3d57600080fd5b612b4683612b0e565b946020939093013593505050565b600080600060608486031215612b6957600080fd5b612b7284612b0e565b9250612b8060208501612b0e565b9150604084013590509250925092565b60008060408385031215612ba357600080fd5b82359150612bb360208401612b0e565b90509250929050565b6020808252825182820181905260009190848201906040850190845b81811015612bf457835183529284019291840191600101612bd8565b50909695505050505050565b600060208284031215612c1257600080fd5b611dbc82612b0e565b600080600060608486031215612c3057600080fd5b83359250612b8060208501612b0e565b6020808252825182820181905260009190848201906040850190845b81811015612bf45783516001600160a01b031683529284019291840191600101612c5c565b60008060408385031215612c9457600080fd5b612c9d83612b0e565b915060208301358015158114612cb257600080fd5b809150509250929050565b634e487b7160e01b600052604160045260246000fd5b604051601f8201601f1916810167ffffffffffffffff81118282101715612cfc57612cfc612cbd565b604052919050565b600067ffffffffffffffff831115612d1e57612d1e612cbd565b612d31601f8401601f1916602001612cd3565b9050828152838383011115612d4557600080fd5b828260208301376000602084830101529392505050565b600082601f830112612d6d57600080fd5b611dbc83833560208501612d04565b60008060008060808587031215612d9257600080fd5b612d9b85612b0e565b9350612da960208601612b0e565b925060408501359150606085013567ffffffffffffffff811115612dcc57600080fd5b612dd887828801612d5c565b91505092959194509250565b600082601f830112612df557600080fd5b8135602067ffffffffffffffff821115612e1157612e11612cbd565b8160051b612e20828201612cd3565b9283528481018201928281019087851115612e3a57600080fd5b83870192505b84831015612e5957823582529183019190830190612e40565b979650505050505050565b600080600080600060a08688031215612e7c57600080fd5b612e8586612b0e565b9450612e9360208701612b0e565b9350604086013567ffffffffffffffff80821115612eb057600080fd5b612ebc89838a01612de4565b94506060880135915080821115612ed257600080fd5b612ede89838a01612de4565b93506080880135915080821115612ef457600080fd5b50612f0188828901612d5c565b9150509295509295909350565b60008060408385031215612f2157600080fd5b612f2a83612b0e565b9150602083013567ffffffffffffffff811115612f4657600080fd5b8301601f81018513612f5757600080fd5b612f6685823560208401612d04565b9150509250929050565b60008060408385031215612f8357600080fd5b50508035926020909101359150565b60008060408385031215612fa557600080fd5b612fae83612b0e565b9150612bb360208401612b0e565b600080600080600060a08688031215612fd457600080fd5b612fdd86612b0e565b9450612feb60208701612b0e565b93506040860135925060608601359150608086013567ffffffffffffffff81111561301557600080fd5b612f0188828901612d5c565b600181811c9082168061303557607f821691505b6020821081141561305657634e487b7160e01b600052602260045260246000fd5b50919050565b60208082526031908201527f4552433732313a207472616e736665722063616c6c6572206973206e6f74206f6040820152701ddb995c881b9bdc88185c1c1c9bdd9959607a1b606082015260800190565b634e487b7160e01b600052603260045260246000fd5b634e487b7160e01b600052601160045260246000fd5b60006000198214156130ed576130ed6130c3565b5060010190565b60208082526053908201527f4552433939383a2064617461206d75737420636f6e7461696e2074686520756e60408201527f697175652075696e7432353620746f6b656e496420746f207472616e7366657260608201527220746865206368696c6420746f6b656e20746f60681b608082015260a00190565b60008282101561317f5761317f6130c3565b500390565b60008351613196818460208801612a8a565b8351908301906131aa818360208801612a8a565b01949350505050565b600082198211156131c6576131c66130c3565b500190565b600082516131dd818460208701612a8a565b9190910192915050565b60208082526032908201527f4552433732313a207472616e7366657220746f206e6f6e20455243373231526560408201527131b2b4bb32b91034b6b83632b6b2b73a32b960711b606082015260800190565b7f416363657373436f6e74726f6c3a206163636f756e7420000000000000000000815260008351613271816017850160208801612a8a565b7001034b99036b4b9b9b4b733903937b6329607d1b60179184019182015283516132a2816028840160208801612a8a565b01602801949350505050565b6001600160a01b03858116825284166020820152604081018390526080606082018190526000906132e190830184612ab6565b9695505050505050565b6000602082840312156132fd57600080fd5b8151611dbc81612a57565b634e487b7160e01b600052601260045260246000fd5b60008261332d5761332d613308565b500490565b60008261334157613341613308565b500690565b6000816000190483118215151615613360576133606130c3565b500290565b600081613374576133746130c3565b50600019019056fea49807205ce4d355092ef5a8a18f56e8913cf4a201fbe287825b095693c21775a264697066735822122080c161cc2a01221f427c7ac4ae13fe51455a0a3dc04a3787228a80a71ac8f69964736f6c634300080c0033",
  "linkReferences": {},
  "deployedLinkReferences": {}
}