{
  "_format": "hh-sol-artifact-1",
  "contractName": "ComposableChildrenERC1155",
  "sourceName": "contracts/ComposableChildrenERC1155.sol",
  "abi": [
    {
      "inputs": [
        {
          "internalType": "string",
          "name": "tierUri",
          "type": "string"
        },
        {
          "internalType": "address",
          "name": "_csnftContractAdr",
          "type": "address"
        }
      ],
      "stateMutability": "nonpayable",
      "type": "constructor"
    },
    {
      "anonymous": false,
      "inputs": [
        {
          "indexed": true,
          "internalType": "address",
          "name": "account",
          "type": "address"
        },
        {
          "indexed": true,
          "internalType": "address",
          "name": "operator",
          "type": "address"
        },
        {
          "indexed": false,
          "internalType": "bool",
          "name": "approved",
          "type": "bool"
        }
      ],
      "name": "ApprovalForAll",
      "type": "event"
    },
    {
      "anonymous": false,
      "inputs": [
        {
          "indexed": false,
          "internalType": "address",
          "name": "account",
          "type": "address"
        }
      ],
      "name": "Paused",
      "type": "event"
    },
    {
      "anonymous": false,
      "inputs": [
        {
          "indexed": true,
          "internalType": "bytes32",
          "name": "role",
          "type": "bytes32"
        },
        {
          "indexed": true,
          "internalType": "bytes32",
          "name": "previousAdminRole",
          "type": "bytes32"
        },
        {
          "indexed": true,
          "internalType": "bytes32",
          "name": "newAdminRole",
          "type": "bytes32"
        }
      ],
      "name": "RoleAdminChanged",
      "type": "event"
    },
    {
      "anonymous": false,
      "inputs": [
        {
          "indexed": true,
          "internalType": "bytes32",
          "name": "role",
          "type": "bytes32"
        },
        {
          "indexed": true,
          "internalType": "address",
          "name": "account",
          "type": "address"
        },
        {
          "indexed": true,
          "internalType": "address",
          "name": "sender",
          "type": "address"
        }
      ],
      "name": "RoleGranted",
      "type": "event"
    },
    {
      "anonymous": false,
      "inputs": [
        {
          "indexed": true,
          "internalType": "bytes32",
          "name": "role",
          "type": "bytes32"
        },
        {
          "indexed": true,
          "internalType": "address",
          "name": "account",
          "type": "address"
        },
        {
          "indexed": true,
          "internalType": "address",
          "name": "sender",
          "type": "address"
        }
      ],
      "name": "RoleRevoked",
      "type": "event"
    },
    {
      "anonymous": false,
      "inputs": [
        {
          "indexed": true,
          "internalType": "address",
          "name": "operator",
          "type": "address"
        },
        {
          "indexed": true,
          "internalType": "address",
          "name": "from",
          "type": "address"
        },
        {
          "indexed": true,
          "internalType": "address",
          "name": "to",
          "type": "address"
        },
        {
          "indexed": false,
          "internalType": "uint256[]",
          "name": "ids",
          "type": "uint256[]"
        },
        {
          "indexed": false,
          "internalType": "uint256[]",
          "name": "values",
          "type": "uint256[]"
        }
      ],
      "name": "TransferBatch",
      "type": "event"
    },
    {
      "anonymous": false,
      "inputs": [
        {
          "indexed": true,
          "internalType": "address",
          "name": "operator",
          "type": "address"
        },
        {
          "indexed": true,
          "internalType": "address",
          "name": "from",
          "type": "address"
        },
        {
          "indexed": true,
          "internalType": "address",
          "name": "to",
          "type": "address"
        },
        {
          "indexed": false,
          "internalType": "uint256",
          "name": "id",
          "type": "uint256"
        },
        {
          "indexed": false,
          "internalType": "uint256",
          "name": "value",
          "type": "uint256"
        }
      ],
      "name": "TransferSingle",
      "type": "event"
    },
    {
      "anonymous": false,
      "inputs": [
        {
          "indexed": false,
          "internalType": "string",
          "name": "value",
          "type": "string"
        },
        {
          "indexed": true,
          "internalType": "uint256",
          "name": "id",
          "type": "uint256"
        }
      ],
      "name": "URI",
      "type": "event"
    },
    {
      "anonymous": false,
      "inputs": [
        {
          "indexed": false,
          "internalType": "address",
          "name": "account",
          "type": "address"
        }
      ],
      "name": "Unpaused",
      "type": "event"
    },
    {
      "inputs": [],
      "name": "DEFAULT_ADMIN_ROLE",
      "outputs": [
        {
          "internalType": "bytes32",
          "name": "",
          "type": "bytes32"
        }
      ],
      "stateMutability": "view",
      "type": "function"
    },
    {
      "inputs": [],
      "name": "MINTER_ROLE",
      "outputs": [
        {
          "internalType": "bytes32",
          "name": "",
          "type": "bytes32"
        }
      ],
      "stateMutability": "view",
      "type": "function"
    },
    {
      "inputs": [],
      "name": "PAUSER_ROLE",
      "outputs": [
        {
          "internalType": "bytes32",
          "name": "",
          "type": "bytes32"
        }
      ],
      "stateMutability": "view",
      "type": "function"
    },
    {
      "inputs": [],
      "name": "TRUSTED_FORWARDER",
      "outputs": [
        {
          "internalType": "address",
          "name": "",
          "type": "address"
        }
      ],
      "stateMutability": "view",
      "type": "function"
    },
    {
      "inputs": [
        {
          "internalType": "address",
          "name": "account",
          "type": "address"
        },
        {
          "internalType": "uint256",
          "name": "id",
          "type": "uint256"
        }
      ],
      "name": "balanceOf",
      "outputs": [
        {
          "internalType": "uint256",
          "name": "",
          "type": "uint256"
        }
      ],
      "stateMutability": "view",
      "type": "function"
    },
    {
      "inputs": [
        {
          "internalType": "address[]",
          "name": "accounts",
          "type": "address[]"
        },
        {
          "internalType": "uint256[]",
          "name": "ids",
          "type": "uint256[]"
        }
      ],
      "name": "balanceOfBatch",
      "outputs": [
        {
          "internalType": "uint256[]",
          "name": "",
          "type": "uint256[]"
        }
      ],
      "stateMutability": "view",
      "type": "function"
    },
    {
      "inputs": [
        {
          "internalType": "address",
          "name": "account",
          "type": "address"
        },
        {
          "internalType": "uint256",
          "name": "id",
          "type": "uint256"
        },
        {
          "internalType": "uint256",
          "name": "value",
          "type": "uint256"
        }
      ],
      "name": "burn",
      "outputs": [],
      "stateMutability": "nonpayable",
      "type": "function"
    },
    {
      "inputs": [
        {
          "internalType": "address",
          "name": "account",
          "type": "address"
        },
        {
          "internalType": "uint256[]",
          "name": "ids",
          "type": "uint256[]"
        },
        {
          "internalType": "uint256[]",
          "name": "values",
          "type": "uint256[]"
        }
      ],
      "name": "burnBatch",
      "outputs": [],
      "stateMutability": "nonpayable",
      "type": "function"
    },
    {
      "inputs": [
        {
          "internalType": "address",
          "name": "_to",
          "type": "address"
        }
      ],
      "name": "getLatestTierId",
      "outputs": [
        {
          "internalType": "uint256",
          "name": "",
          "type": "uint256"
        }
      ],
      "stateMutability": "view",
      "type": "function"
    },
    {
      "inputs": [
        {
          "internalType": "bytes32",
          "name": "role",
          "type": "bytes32"
        }
      ],
      "name": "getRoleAdmin",
      "outputs": [
        {
          "internalType": "bytes32",
          "name": "",
          "type": "bytes32"
        }
      ],
      "stateMutability": "view",
      "type": "function"
    },
    {
      "inputs": [
        {
          "internalType": "bytes32",
          "name": "role",
          "type": "bytes32"
        },
        {
          "internalType": "uint256",
          "name": "index",
          "type": "uint256"
        }
      ],
      "name": "getRoleMember",
      "outputs": [
        {
          "internalType": "address",
          "name": "",
          "type": "address"
        }
      ],
      "stateMutability": "view",
      "type": "function"
    },
    {
      "inputs": [
        {
          "internalType": "bytes32",
          "name": "role",
          "type": "bytes32"
        }
      ],
      "name": "getRoleMemberCount",
      "outputs": [
        {
          "internalType": "uint256",
          "name": "",
          "type": "uint256"
        }
      ],
      "stateMutability": "view",
      "type": "function"
    },
    {
      "inputs": [
        {
          "internalType": "uint256",
          "name": "composableId",
          "type": "uint256"
        },
        {
          "internalType": "uint256",
          "name": "tokenID",
          "type": "uint256"
        }
      ],
      "name": "getUri",
      "outputs": [
        {
          "internalType": "string",
          "name": "",
          "type": "string"
        }
      ],
      "stateMutability": "view",
      "type": "function"
    },
    {
      "inputs": [
        {
          "internalType": "bytes32",
          "name": "role",
          "type": "bytes32"
        },
        {
          "internalType": "address",
          "name": "account",
          "type": "address"
        }
      ],
      "name": "grantRole",
      "outputs": [],
      "stateMutability": "nonpayable",
      "type": "function"
    },
    {
      "inputs": [
        {
          "internalType": "bytes32",
          "name": "role",
          "type": "bytes32"
        },
        {
          "internalType": "address",
          "name": "account",
          "type": "address"
        }
      ],
      "name": "hasRole",
      "outputs": [
        {
          "internalType": "bool",
          "name": "",
          "type": "bool"
        }
      ],
      "stateMutability": "view",
      "type": "function"
    },
    {
      "inputs": [
        {
          "internalType": "address",
          "name": "_to",
          "type": "address"
        },
        {
          "internalType": "uint256",
          "name": "_tierId",
          "type": "uint256"
        }
      ],
      "name": "hasTier",
      "outputs": [
        {
          "internalType": "bool",
          "name": "",
          "type": "bool"
        }
      ],
      "stateMutability": "view",
      "type": "function"
    },
    {
      "inputs": [
        {
          "internalType": "address",
          "name": "account",
          "type": "address"
        },
        {
          "internalType": "address",
          "name": "operator",
          "type": "address"
        }
      ],
      "name": "isApprovedForAll",
      "outputs": [
        {
          "internalType": "bool",
          "name": "",
          "type": "bool"
        }
      ],
      "stateMutability": "view",
      "type": "function"
    },
    {
      "inputs": [
        {
          "internalType": "address",
          "name": "forwarder",
          "type": "address"
        }
      ],
      "name": "isTrustedForwarder",
      "outputs": [
        {
          "internalType": "bool",
          "name": "",
          "type": "bool"
        }
      ],
      "stateMutability": "view",
      "type": "function"
    },
    {
      "inputs": [
        {
          "internalType": "address",
          "name": "to",
          "type": "address"
        },
        {
          "internalType": "uint256",
          "name": "id",
          "type": "uint256"
        },
        {
          "internalType": "uint256",
          "name": "amount",
          "type": "uint256"
        },
        {
          "internalType": "bytes",
          "name": "data",
          "type": "bytes"
        }
      ],
      "name": "mint",
      "outputs": [],
      "stateMutability": "nonpayable",
      "type": "function"
    },
    {
      "inputs": [
        {
          "internalType": "address",
          "name": "to",
          "type": "address"
        },
        {
          "internalType": "uint256[]",
          "name": "ids",
          "type": "uint256[]"
        },
        {
          "internalType": "uint256[]",
          "name": "amounts",
          "type": "uint256[]"
        },
        {
          "internalType": "bytes",
          "name": "data",
          "type": "bytes"
        }
      ],
      "name": "mintBatch",
      "outputs": [],
      "stateMutability": "nonpayable",
      "type": "function"
    },
    {
      "inputs": [
        {
          "internalType": "address",
          "name": "_to",
          "type": "address"
        },
        {
          "internalType": "uint256",
          "name": "_amount",
          "type": "uint256"
        },
        {
          "internalType": "bytes",
          "name": "_data",
          "type": "bytes"
        }
      ],
      "name": "mintEngagementPoints",
      "outputs": [],
      "stateMutability": "nonpayable",
      "type": "function"
    },
    {
      "inputs": [
        {
          "internalType": "address",
          "name": "",
          "type": "address"
        }
      ],
      "name": "ownerToTierId",
      "outputs": [
        {
          "internalType": "uint256",
          "name": "",
          "type": "uint256"
        }
      ],
      "stateMutability": "view",
      "type": "function"
    },
    {
      "inputs": [],
      "name": "pause",
      "outputs": [],
      "stateMutability": "nonpayable",
      "type": "function"
    },
    {
      "inputs": [],
      "name": "paused",
      "outputs": [
        {
          "internalType": "bool",
          "name": "",
          "type": "bool"
        }
      ],
      "stateMutability": "view",
      "type": "function"
    },
    {
      "inputs": [
        {
          "internalType": "bytes32",
          "name": "role",
          "type": "bytes32"
        },
        {
          "internalType": "address",
          "name": "account",
          "type": "address"
        }
      ],
      "name": "renounceRole",
      "outputs": [],
      "stateMutability": "nonpayable",
      "type": "function"
    },
    {
      "inputs": [
        {
          "internalType": "bytes32",
          "name": "role",
          "type": "bytes32"
        },
        {
          "internalType": "address",
          "name": "account",
          "type": "address"
        }
      ],
      "name": "revokeRole",
      "outputs": [],
      "stateMutability": "nonpayable",
      "type": "function"
    },
    {
      "inputs": [
        {
          "internalType": "address",
          "name": "from",
          "type": "address"
        },
        {
          "internalType": "address",
          "name": "to",
          "type": "address"
        },
        {
          "internalType": "uint256[]",
          "name": "ids",
          "type": "uint256[]"
        },
        {
          "internalType": "uint256[]",
          "name": "amounts",
          "type": "uint256[]"
        },
        {
          "internalType": "bytes",
          "name": "data",
          "type": "bytes"
        }
      ],
      "name": "safeBatchTransferFrom",
      "outputs": [],
      "stateMutability": "nonpayable",
      "type": "function"
    },
    {
      "inputs": [
        {
          "internalType": "address",
          "name": "from",
          "type": "address"
        },
        {
          "internalType": "address",
          "name": "to",
          "type": "address"
        },
        {
          "internalType": "uint256",
          "name": "id",
          "type": "uint256"
        },
        {
          "internalType": "uint256",
          "name": "amount",
          "type": "uint256"
        },
        {
          "internalType": "bytes",
          "name": "data",
          "type": "bytes"
        }
      ],
      "name": "safeTransferFrom",
      "outputs": [],
      "stateMutability": "nonpayable",
      "type": "function"
    },
    {
      "inputs": [
        {
          "internalType": "address",
          "name": "operator",
          "type": "address"
        },
        {
          "internalType": "bool",
          "name": "approved",
          "type": "bool"
        }
      ],
      "name": "setApprovalForAll",
      "outputs": [],
      "stateMutability": "nonpayable",
      "type": "function"
    },
    {
      "inputs": [
        {
          "internalType": "bytes4",
          "name": "interfaceId",
          "type": "bytes4"
        }
      ],
      "name": "supportsInterface",
      "outputs": [
        {
          "internalType": "bool",
          "name": "",
          "type": "bool"
        }
      ],
      "stateMutability": "view",
      "type": "function"
    },
    {
      "inputs": [],
      "name": "unpause",
      "outputs": [],
      "stateMutability": "nonpayable",
      "type": "function"
    },
    {
      "inputs": [
        {
          "internalType": "uint256",
          "name": "_composableId",
          "type": "uint256"
        },
        {
          "internalType": "uint256",
          "name": "_upgradeToTierId",
          "type": "uint256"
        },
        {
          "internalType": "string",
          "name": "_uri",
          "type": "string"
        },
        {
          "internalType": "bytes",
          "name": "data",
          "type": "bytes"
        }
      ],
      "name": "upgradeSNFT",
      "outputs": [
        {
          "internalType": "bool",
          "name": "",
          "type": "bool"
        }
      ],
      "stateMutability": "nonpayable",
      "type": "function"
    },
    {
      "inputs": [
        {
          "internalType": "uint256",
          "name": "",
          "type": "uint256"
        }
      ],
      "name": "uri",
      "outputs": [
        {
          "internalType": "string",
          "name": "",
          "type": "string"
        }
      ],
      "stateMutability": "view",
      "type": "function"
    },
    {
      "inputs": [
        {
          "internalType": "uint256",
          "name": "tokenId",
          "type": "uint256"
        },
        {
          "internalType": "uint256",
          "name": "composableId",
          "type": "uint256"
        }
      ],
      "name": "uri",
      "outputs": [
        {
          "internalType": "string",
          "name": "",
          "type": "string"
        }
      ],
      "stateMutability": "view",
      "type": "function"
    },
    {
      "inputs": [],
      "name": "versionRecipient",
      "outputs": [
        {
          "internalType": "string",
          "name": "",
          "type": "string"
        }
      ],
      "stateMutability": "view",
      "type": "function"
    }
  ],
  "bytecode": "0x60a06040819052600060808190526200001b9160089162000387565b50600980546001600160a01b031916739399bb24dbb5c4b782c70c2969f58716ebbd6a3b1790553480156200004f57600080fd5b5060405162003a7938038062003a79833981016040819052620000729162000460565b600954600080546001600160a01b0319166001600160a01b039092169190911790558180620000a181620001af565b506006805460ff19169055620000c26000620000bc620001c8565b620001e4565b620000f17f9f2df0fed2c77648de5860a4cc508cd0818c85b8b8a1ab4ceeef8d981c8956a6620000bc620001c8565b620001207f65d7a28e3265b37a6474929f336521b332c1681b933f6cb9f3376673440d862a620000bc620001c8565b506001600160a01b038116620001885760405162461bcd60e51b8152602060048201526024808201527f4552433939383a207472616e7366657220746f20746865207a65726f206164646044820152637265737360e01b606482015260840160405180910390fd5b600a80546001600160a01b0319166001600160a01b0392909216919091179055506200058e565b8051620001c490600590602084019062000387565b5050565b6000620001df620001f060201b6200125f1760201c565b905090565b620001c4828262000227565b600080546001600160a01b031633141562000212575060131936013560601c90565b620001df6200026a60201b6200128d1760201c565b6200023e82826200026e60201b620012911760201c565b6000828152600260209081526040909120620002659183906200131962000315821b17901c565b505050565b3390565b60008281526001602090815260408083206001600160a01b038516845290915290205460ff16620001c45760008281526001602081815260408084206001600160a01b0386168552909152909120805460ff19169091179055620002d1620001c8565b6001600160a01b0316816001600160a01b0316837f2f8788117e7eff1d82e926ec794901d17c78024a50270940304540a733656f0d60405160405180910390a45050565b60006200032c836001600160a01b03841662000335565b90505b92915050565b60008181526001830160205260408120546200037e575081546001818101845560008481526020808220909301849055845484825282860190935260409020919091556200032f565b5060006200032f565b828054620003959062000551565b90600052602060002090601f016020900481019282620003b9576000855562000404565b82601f10620003d457805160ff191683800117855562000404565b8280016001018555821562000404579182015b8281111562000404578251825591602001919060010190620003e7565b506200041292915062000416565b5090565b5b8082111562000412576000815560010162000417565b634e487b7160e01b600052604160045260246000fd5b80516001600160a01b03811681146200045b57600080fd5b919050565b600080604083850312156200047457600080fd5b82516001600160401b03808211156200048c57600080fd5b818501915085601f830112620004a157600080fd5b815181811115620004b657620004b66200042d565b604051601f8201601f19908116603f01168101908382118183101715620004e157620004e16200042d565b81604052828152602093508884848701011115620004fe57600080fd5b600091505b8282101562000522578482018401518183018501529083019062000503565b82821115620005345760008484830101525b95506200054691505085820162000443565b925050509250929050565b600181811c908216806200056657607f821691505b602082108114156200058857634e487b7160e01b600052602260045260246000fd5b50919050565b6134db806200059e6000396000f3fe608060405234801561001057600080fd5b50600436106102105760003560e01c80636b20c45411610125578063ca15c873116100ad578063d6c3fca71161007c578063d6c3fca7146104e5578063e63ab1e914610505578063e985e9c51461052c578063f242432a14610568578063f5298aca1461057b57600080fd5b8063ca15c87314610481578063cb2e6b0a14610494578063d5391393146104bd578063d547741f146104d257600080fd5b806391d14854116100f457806391d148541461042d578063a217fddf14610440578063a22cb46514610448578063af8351191461045b578063be234d421461046e57600080fd5b80636b20c454146103d4578063731133e9146103e75780638456cb59146103fa5780639010d07c1461040257600080fd5b80632f2ff15d116101a8578063486ff0cd11610177578063486ff0cd146103575780634e1273f4146103745780635438d3fe14610394578063572b6c05146103a75780635c975abb146103c957600080fd5b80632f2ff15d1461031657806336568abe146103295780633b65bcfe1461033c5780633f4ba83a1461034f57600080fd5b80631d3372e7116101e45780631d3372e7146102b75780631f7fdffa146102ca578063248a9ca3146102df5780632eb2c2d61461030357600080fd5b8062fdd58e1461021557806301a035331461023b57806301ffc9a7146102845780630e89341c14610297575b600080fd5b61022861022336600461265d565b61058e565b6040519081526020015b60405180910390f35b61027461024936600461265d565b6001600160a01b03919091166000908152600c60209081526040808320938352929052205460ff1690565b6040519015158152602001610232565b61027461029236600461269d565b61062a565b6102aa6102a53660046126ba565b610635565b604051610232919061272b565b6102746102c53660046127dd565b6106c9565b6102dd6102d836600461294f565b610ae4565b005b6102286102ed3660046126ba565b6000908152600160208190526040909120015490565b6102dd6103113660046129e7565b610b2c565b6102dd610324366004612a90565b610bd5565b6102dd610337366004612a90565b610c00565b6102aa61034a366004612abc565b610c8e565b6102dd610ca1565b6040805180820190915260018152603160f81b60208201526102aa565b610387610382366004612ade565b610d49565b6040516102329190612be3565b6102dd6103a2366004612bf6565b610e72565b6102746103b5366004612c4c565b6000546001600160a01b0391821691161490565b60065460ff16610274565b6102dd6103e2366004612c67565b610ef8565b6102dd6103f5366004612cd0565b610f4d565b6102dd610f8f565b610415610410366004612abc565b611035565b6040516001600160a01b039091168152602001610232565b61027461043b366004612a90565b61104d565b610228600081565b6102dd610456366004612d24565b611078565b600954610415906001600160a01b031681565b6102aa61047c366004612abc565b61108a565b61022861048f3660046126ba565b611176565b6102286104a2366004612c4c565b6001600160a01b03166000908152600b602052604090205490565b61022860008051602061348683398151915281565b6102dd6104e0366004612a90565b61118d565b6102286104f3366004612c4c565b600b6020526000908152604090205481565b6102287f65d7a28e3265b37a6474929f336521b332c1681b933f6cb9f3376673440d862a81565b61027461053a366004612d60565b6001600160a01b03918216600090815260046020908152604080832093909416825291909152205460ff1690565b6102dd610576366004612d8a565b6111b3565b6102dd610589366004612dee565b61120a565b60006001600160a01b0383166105ff5760405162461bcd60e51b815260206004820152602b60248201527f455243313135353a2062616c616e636520717565727920666f7220746865207a60448201526a65726f206164647265737360a81b60648201526084015b60405180910390fd5b5060008181526003602090815260408083206001600160a01b03861684529091529020545b92915050565b60006106248261132e565b60606005805461064490612e21565b80601f016020809104026020016040519081016040528092919081815260200182805461067090612e21565b80156106bd5780601f10610692576101008083540402835291602001916106bd565b820191906000526020600020905b8154815290600101906020018083116106a057829003601f168201915b50505050509050919050565b6000846107115760405162461bcd60e51b815260206004820152601660248201527501f24b731b7b93932b1ba103a34b2b924b216102618160551b60448201526064016105f6565b600a5486906001600160a01b0316634e18b76261072c61136e565b6040516001600160e01b031960e084901b1681526001600160a01b039091166004820152602401602060405180830381865afa158015610770573d6000803e3d6000fd5b505050506040513d601f19601f820116820180604052508101906107949190612e5c565b146107d85760405162461bcd60e51b81526020600482015260146024820152731f2ab730baba3437b934bd32b21031b0b63632b960611b60448201526064016105f6565b600a54604051633e49357b60e11b8152600481018790526000916001600160a01b031690637c926af690602401602060405180830381865afa158015610822573d6000803e3d6000fd5b505050506040513d601f19601f820116820180604052508101906108469190612e5c565b90508061085b61085461136e565b600061058e565b10156108a95760405162461bcd60e51b815260206004820181905260248201527f3e20696e73756666696369656e7420656e676167656d656e7420706f696e747360448201526064016105f6565b6108dd6108b461136e565b6001600160a01b03166000908152600c602090815260408083208a845290915290205460ff1690565b156108e757600080fd5b8560011415610943576108fb6104a261136e565b6001141561093e5760405162461bcd60e51b815260206004820152601060248201526f185b1c9958591e481d5c19dc9859195960821b60448201526064016105f6565b610a24565b61094e600187612e8b565b6109596104a261136e565b146109b15760405162461bcd60e51b815260206004820152602260248201527f3e4e6f6e2d73657175656e7469616c207469657220757067726164652065727260448201526137b960f11b60648201526084016105f6565b6109c76109bc61136e565b610249600189612e8b565b1515600114610a245760405162461bcd60e51b815260206004820152602360248201527f3e3e4e6f6e2d73657175656e7469616c207469657220757067726164652065726044820152623937b960e91b60648201526084016105f6565b610a37610a2f61136e565b60008361120a565b600a54604080516020601f8701819004810282018101909252858152610a86926001600160a01b0316918991600191899089908190840183828082843760009201919091525061137892505050565b610a9187878761146e565b610ad7610a9c61136e565b876001600160a01b039091166000908152600b60209081526040808320849055600c825280832093835292905220805460ff19166001179055565b5060019695505050505050565b610afe60008051602061348683398151915261043b61136e565b610b1a5760405162461bcd60e51b81526004016105f690612ea2565b610b26848484846114db565b50505050565b610b3461136e565b6001600160a01b0316856001600160a01b03161480610b5a5750610b5a8561053a61136e565b610bc15760405162461bcd60e51b815260206004820152603260248201527f455243313135353a207472616e736665722063616c6c6572206973206e6f74206044820152711bdddb995c881b9bdc88185c1c1c9bdd995960721b60648201526084016105f6565b610bce8585858585611641565b5050505050565b60008281526001602081905260409091200154610bf1816117f9565b610bfb838361180d565b505050565b610c0861136e565b6001600160a01b0316816001600160a01b031614610c805760405162461bcd60e51b815260206004820152602f60248201527f416363657373436f6e74726f6c3a2063616e206f6e6c792072656e6f756e636560448201526e103937b632b9903337b91039b2b63360891b60648201526084016105f6565b610c8a828261182f565b5050565b6060610c9a838361108a565b9392505050565b610ccd7f65d7a28e3265b37a6474929f336521b332c1681b933f6cb9f3376673440d862a61043b61136e565b610d3f5760405162461bcd60e51b815260206004820152603b60248201527f455243313135355072657365744d696e7465725061757365723a206d7573742060448201527f686176652070617573657220726f6c6520746f20756e7061757365000000000060648201526084016105f6565b610d47611851565b565b60608151835114610dae5760405162461bcd60e51b815260206004820152602960248201527f455243313135353a206163636f756e747320616e6420696473206c656e677468604482015268040dad2e6dac2e8c6d60bb1b60648201526084016105f6565b600083516001600160401b03811115610dc957610dc961273e565b604051908082528060200260200182016040528015610df2578160200160208202803683370190505b50905060005b8451811015610e6a57610e3d858281518110610e1657610e16612eff565b6020026020010151858381518110610e3057610e30612eff565b602002602001015161058e565b828281518110610e4f57610e4f612eff565b6020908102919091010152610e6381612f15565b9050610df8565b509392505050565b610e8c60008051602061348683398151915261043b61136e565b610eeb5760405162461bcd60e51b815260206004820152602a60248201527f4552433131353554554d5020756e617574686f72697a656420656e676167656d60448201526932b73a1036b4b73a32b960b11b60648201526084016105f6565b610bfb8360008484610f4d565b610f0061136e565b6001600160a01b0316836001600160a01b03161480610f265750610f268361053a61136e565b610f425760405162461bcd60e51b81526004016105f690612f30565b610bfb8383836118ea565b610f6760008051602061348683398151915261043b61136e565b610f835760405162461bcd60e51b81526004016105f690612ea2565b610b2684848484611378565b610fbb7f65d7a28e3265b37a6474929f336521b332c1681b933f6cb9f3376673440d862a61043b61136e565b61102d5760405162461bcd60e51b815260206004820152603960248201527f455243313135355072657365744d696e7465725061757365723a206d7573742060448201527f686176652070617573657220726f6c6520746f2070617573650000000000000060648201526084016105f6565b610d47611a90565b6000828152600260205260408120610c9a9083611b0c565b60009182526001602090815260408084206001600160a01b0393909316845291905290205460ff1690565b610c8a61108361136e565b8383611b18565b60008181526007602090815260408083208584529091528120805460609291906110b390612e21565b80601f01602080910402602001604051908101604052809291908181526020018280546110df90612e21565b801561112c5780601f106111015761010080835404028352916020019161112c565b820191906000526020600020905b81548152906001019060200180831161110f57829003601f168201915b50505050509050600081511161114a5761114584610635565b61116e565b60088160405160200161115e929190612f95565b6040516020818303038152906040525b949350505050565b600081815260026020526040812061062490611bf9565b600082815260016020819052604090912001546111a9816117f9565b610bfb838361182f565b6111bb61136e565b6001600160a01b0316856001600160a01b031614806111e157506111e18561053a61136e565b6111fd5760405162461bcd60e51b81526004016105f690612f30565b610bce8585858585611c03565b61121261136e565b6001600160a01b0316836001600160a01b0316148061123857506112388361053a61136e565b6112545760405162461bcd60e51b81526004016105f690612f30565b610bfb838383611d4a565b600080546001600160a01b0316331415611280575060131936013560601c90565b503390565b905090565b90565b3390565b61129b828261104d565b610c8a5760008281526001602081815260408084206001600160a01b0386168552909152909120805460ff191690911790556112d561136e565b6001600160a01b0316816001600160a01b0316837f2f8788117e7eff1d82e926ec794901d17c78024a50270940304540a733656f0d60405160405180910390a45050565b6000610c9a836001600160a01b038416611e71565b60006001600160e01b03198216636cdb3d1360e11b148061135f57506001600160e01b031982166303a24d0760e21b145b80610624575061062482611ec0565b600061128561125f565b6001600160a01b03841661139e5760405162461bcd60e51b81526004016105f69061303c565b60006113a861136e565b905060006113b585611ee5565b905060006113c285611ee5565b90506113d383600089858589611f30565b60008681526003602090815260408083206001600160a01b038b1684529091528120805487929061140590849061307d565b909155505060408051878152602081018790526001600160a01b03808a1692600092918716917fc3d58168c5ae7397731d063d5bbf3d657854427343f4c083240f7aacaa2d0f62910160405180910390a461146583600089898989611f3e565b50505050505050565b600082815260076020908152604080832086845282529091208251611495928401906125a8565b50827f6bb7ff708619ba0610cba295a58592e0451dee2622938c8755667688daf3529b6114c185610635565b6040516114ce919061272b565b60405180910390a2505050565b6001600160a01b0384166115015760405162461bcd60e51b81526004016105f69061303c565b81518351146115225760405162461bcd60e51b81526004016105f690613095565b600061152c61136e565b905061153d81600087878787611f30565b60005b84518110156115d95783818151811061155b5761155b612eff565b60200260200101516003600087848151811061157957611579612eff565b602002602001015181526020019081526020016000206000886001600160a01b03166001600160a01b0316815260200190815260200160002060008282546115c1919061307d565b909155508190506115d181612f15565b915050611540565b50846001600160a01b031660006001600160a01b0316826001600160a01b03167f4a39dc06d4c0dbc64b70af90fd698a233a518aa5d07e595d983b8c0526c8f7fb878760405161162a9291906130dd565b60405180910390a4610bce8160008787878761209a565b81518351146116625760405162461bcd60e51b81526004016105f690613095565b6001600160a01b0384166116885760405162461bcd60e51b81526004016105f690613102565b600061169261136e565b90506116a2818787878787611f30565b60005b845181101561178b5760008582815181106116c2576116c2612eff565b6020026020010151905060008583815181106116e0576116e0612eff565b60209081029190910181015160008481526003835260408082206001600160a01b038e1683529093529190912054909150818110156117315760405162461bcd60e51b81526004016105f690613147565b60008381526003602090815260408083206001600160a01b038e8116855292528083208585039055908b1682528120805484929061177090849061307d565b925050819055505050508061178490612f15565b90506116a5565b50846001600160a01b0316866001600160a01b0316826001600160a01b03167f4a39dc06d4c0dbc64b70af90fd698a233a518aa5d07e595d983b8c0526c8f7fb87876040516117db9291906130dd565b60405180910390a46117f181878787878761209a565b505050505050565b61180a8161180561136e565b612155565b50565b6118178282611291565b6000828152600260205260409020610bfb9082611319565b61183982826121b9565b6000828152600260205260409020610bfb908261223e565b60065460ff1661189a5760405162461bcd60e51b815260206004820152601460248201527314185d5cd8589b194e881b9bdd081c185d5cd95960621b60448201526064016105f6565b6006805460ff191690557f5db9ee0a495bf2e6ff9c91a7834c1ba4fdd244a5e8aa4e537bd38aeae4b073aa6118cd61136e565b6040516001600160a01b03909116815260200160405180910390a1565b6001600160a01b0383166119105760405162461bcd60e51b81526004016105f690613191565b80518251146119315760405162461bcd60e51b81526004016105f690613095565b600061193b61136e565b905061195b81856000868660405180602001604052806000815250611f30565b60005b8351811015611a2357600084828151811061197b5761197b612eff565b60200260200101519050600084838151811061199957611999612eff565b60209081029190910181015160008481526003835260408082206001600160a01b038c1683529093529190912054909150818110156119ea5760405162461bcd60e51b81526004016105f6906131d4565b60009283526003602090815260408085206001600160a01b038b1686529091529092209103905580611a1b81612f15565b91505061195e565b5060006001600160a01b0316846001600160a01b0316826001600160a01b03167f4a39dc06d4c0dbc64b70af90fd698a233a518aa5d07e595d983b8c0526c8f7fb8686604051611a749291906130dd565b60405180910390a4604080516020810190915260009052610b26565b60065460ff1615611ad65760405162461bcd60e51b815260206004820152601060248201526f14185d5cd8589b194e881c185d5cd95960821b60448201526064016105f6565b6006805460ff191660011790557f62e78cea01bee320cd4e420270b5ea74000d11b0c9f74754ebdbfc544b05a2586118cd61136e565b6000610c9a8383612253565b816001600160a01b0316836001600160a01b03161415611b8c5760405162461bcd60e51b815260206004820152602960248201527f455243313135353a2073657474696e6720617070726f76616c20737461747573604482015268103337b91039b2b63360b91b60648201526084016105f6565b6001600160a01b03838116600081815260046020908152604080832094871680845294825291829020805460ff191686151590811790915591519182527f17307eab39ab6107e8899845ad3d59bd9653f200f220920489ca2b5937696c31910160405180910390a3505050565b6000610624825490565b6001600160a01b038416611c295760405162461bcd60e51b81526004016105f690613102565b6000611c3361136e565b90506000611c4085611ee5565b90506000611c4d85611ee5565b9050611c5d838989858589611f30565b60008681526003602090815260408083206001600160a01b038c16845290915290205485811015611ca05760405162461bcd60e51b81526004016105f690613147565b60008781526003602090815260408083206001600160a01b038d8116855292528083208985039055908a16825281208054889290611cdf90849061307d565b909155505060408051888152602081018890526001600160a01b03808b16928c821692918816917fc3d58168c5ae7397731d063d5bbf3d657854427343f4c083240f7aacaa2d0f62910160405180910390a4611d3f848a8a8a8a8a611f3e565b505050505050505050565b6001600160a01b038316611d705760405162461bcd60e51b81526004016105f690613191565b6000611d7a61136e565b90506000611d8784611ee5565b90506000611d9484611ee5565b9050611db483876000858560405180602001604052806000815250611f30565b60008581526003602090815260408083206001600160a01b038a16845290915290205484811015611df75760405162461bcd60e51b81526004016105f6906131d4565b60008681526003602090815260408083206001600160a01b038b81168086529184528285208a8703905582518b81529384018a90529092908816917fc3d58168c5ae7397731d063d5bbf3d657854427343f4c083240f7aacaa2d0f62910160405180910390a4604080516020810190915260009052611465565b6000818152600183016020526040812054611eb857508154600181810184556000848152602080822090930184905584548482528286019093526040902091909155610624565b506000610624565b60006001600160e01b03198216635a05180f60e01b148061062457506106248261227d565b60408051600180825281830190925260609160009190602080830190803683370190505090508281600081518110611f1f57611f1f612eff565b602090810291909101015292915050565b6117f18686868686866122b2565b6001600160a01b0384163b156117f15760405163f23a6e6160e01b81526001600160a01b0385169063f23a6e6190611f829089908990889088908890600401613218565b6020604051808303816000875af1925050508015611fbd575060408051601f3d908101601f19168201909252611fba9181019061325d565b60015b61206a57611fc961327a565b806308c379a014156120035750611fde613295565b80611fe95750612005565b8060405162461bcd60e51b81526004016105f6919061272b565b505b60405162461bcd60e51b815260206004820152603460248201527f455243313135353a207472616e7366657220746f206e6f6e20455243313135356044820152732932b1b2b4bb32b91034b6b83632b6b2b73a32b960611b60648201526084016105f6565b6001600160e01b0319811663f23a6e6160e01b146114655760405162461bcd60e51b81526004016105f69061331e565b6001600160a01b0384163b156117f15760405163bc197c8160e01b81526001600160a01b0385169063bc197c81906120de9089908990889088908890600401613366565b6020604051808303816000875af1925050508015612119575060408051601f3d908101601f191682019092526121169181019061325d565b60015b61212557611fc961327a565b6001600160e01b0319811663bc197c8160e01b146114655760405162461bcd60e51b81526004016105f69061331e565b61215f828261104d565b610c8a57612177816001600160a01b0316601461231a565b61218283602061231a565b6040516020016121939291906133c4565b60408051601f198184030181529082905262461bcd60e51b82526105f69160040161272b565b6121c3828261104d565b15610c8a5760008281526001602090815260408083206001600160a01b03851684529091529020805460ff191690556121fa61136e565b6001600160a01b0316816001600160a01b0316837ff6391f5c32d9c69d2a47ea670b442974b53935d1edc7fd64eb21e047a839171b60405160405180910390a45050565b6000610c9a836001600160a01b0384166124b5565b600082600001828154811061226a5761226a612eff565b9060005260206000200154905092915050565b60006001600160e01b03198216637965db0b60e01b148061062457506301ffc9a760e01b6001600160e01b0319831614610624565b60065460ff16156117f15760405162461bcd60e51b815260206004820152602c60248201527f455243313135355061757361626c653a20746f6b656e207472616e736665722060448201526b1dda1a5b19481c185d5cd95960a21b60648201526084016105f6565b60606000612329836002613439565b61233490600261307d565b6001600160401b0381111561234b5761234b61273e565b6040519080825280601f01601f191660200182016040528015612375576020820181803683370190505b509050600360fc1b8160008151811061239057612390612eff565b60200101906001600160f81b031916908160001a905350600f60fb1b816001815181106123bf576123bf612eff565b60200101906001600160f81b031916908160001a90535060006123e3846002613439565b6123ee90600161307d565b90505b6001811115612466576f181899199a1a9b1b9c1cb0b131b232b360811b85600f166010811061242257612422612eff565b1a60f81b82828151811061243857612438612eff565b60200101906001600160f81b031916908160001a90535060049490941c9361245f81613458565b90506123f1565b508315610c9a5760405162461bcd60e51b815260206004820181905260248201527f537472696e67733a20686578206c656e67746820696e73756666696369656e7460448201526064016105f6565b6000818152600183016020526040812054801561259e5760006124d9600183612e8b565b85549091506000906124ed90600190612e8b565b905081811461255257600086600001828154811061250d5761250d612eff565b906000526020600020015490508087600001848154811061253057612530612eff565b6000918252602080832090910192909255918252600188019052604090208390555b85548690806125635761256361346f565b600190038181906000526020600020016000905590558560010160008681526020019081526020016000206000905560019350505050610624565b6000915050610624565b8280546125b490612e21565b90600052602060002090601f0160209004810192826125d6576000855561261c565b82601f106125ef57805160ff191683800117855561261c565b8280016001018555821561261c579182015b8281111561261c578251825591602001919060010190612601565b5061262892915061262c565b5090565b5b80821115612628576000815560010161262d565b80356001600160a01b038116811461265857600080fd5b919050565b6000806040838503121561267057600080fd5b61267983612641565b946020939093013593505050565b6001600160e01b03198116811461180a57600080fd5b6000602082840312156126af57600080fd5b8135610c9a81612687565b6000602082840312156126cc57600080fd5b5035919050565b60005b838110156126ee5781810151838201526020016126d6565b83811115610b265750506000910152565b600081518084526127178160208601602086016126d3565b601f01601f19169290920160200192915050565b602081526000610c9a60208301846126ff565b634e487b7160e01b600052604160045260246000fd5b601f8201601f191681016001600160401b03811182821017156127795761277961273e565b6040525050565b60006001600160401b038311156127995761279961273e565b6040516127b0601f8501601f191660200182612754565b8091508381528484840111156127c557600080fd5b83836020830137600060208583010152509392505050565b6000806000806000608086880312156127f557600080fd5b853594506020860135935060408601356001600160401b038082111561281a57600080fd5b818801915088601f83011261282e57600080fd5b61283d89833560208501612780565b9450606088013591508082111561285357600080fd5b818801915088601f83011261286757600080fd5b81358181111561287657600080fd5b89602082850101111561288857600080fd5b9699959850939650602001949392505050565b60006001600160401b038211156128b4576128b461273e565b5060051b60200190565b600082601f8301126128cf57600080fd5b813560206128dc8261289b565b6040516128e98282612754565b83815260059390931b850182019282810191508684111561290957600080fd5b8286015b84811015612924578035835291830191830161290d565b509695505050505050565b600082601f83011261294057600080fd5b610c9a83833560208501612780565b6000806000806080858703121561296557600080fd5b61296e85612641565b935060208501356001600160401b038082111561298a57600080fd5b612996888389016128be565b945060408701359150808211156129ac57600080fd5b6129b8888389016128be565b935060608701359150808211156129ce57600080fd5b506129db8782880161292f565b91505092959194509250565b600080600080600060a086880312156129ff57600080fd5b612a0886612641565b9450612a1660208701612641565b935060408601356001600160401b0380821115612a3257600080fd5b612a3e89838a016128be565b94506060880135915080821115612a5457600080fd5b612a6089838a016128be565b93506080880135915080821115612a7657600080fd5b50612a838882890161292f565b9150509295509295909350565b60008060408385031215612aa357600080fd5b82359150612ab360208401612641565b90509250929050565b60008060408385031215612acf57600080fd5b50508035926020909101359150565b60008060408385031215612af157600080fd5b82356001600160401b0380821115612b0857600080fd5b818501915085601f830112612b1c57600080fd5b81356020612b298261289b565b604051612b368282612754565b83815260059390931b8501820192828101915089841115612b5657600080fd5b948201945b83861015612b7b57612b6c86612641565b82529482019490820190612b5b565b96505086013592505080821115612b9157600080fd5b50612b9e858286016128be565b9150509250929050565b600081518084526020808501945080840160005b83811015612bd857815187529582019590820190600101612bbc565b509495945050505050565b602081526000610c9a6020830184612ba8565b600080600060608486031215612c0b57600080fd5b612c1484612641565b92506020840135915060408401356001600160401b03811115612c3657600080fd5b612c428682870161292f565b9150509250925092565b600060208284031215612c5e57600080fd5b610c9a82612641565b600080600060608486031215612c7c57600080fd5b612c8584612641565b925060208401356001600160401b0380821115612ca157600080fd5b612cad878388016128be565b93506040860135915080821115612cc357600080fd5b50612c42868287016128be565b60008060008060808587031215612ce657600080fd5b612cef85612641565b9350602085013592506040850135915060608501356001600160401b03811115612d1857600080fd5b6129db8782880161292f565b60008060408385031215612d3757600080fd5b612d4083612641565b915060208301358015158114612d5557600080fd5b809150509250929050565b60008060408385031215612d7357600080fd5b612d7c83612641565b9150612ab360208401612641565b600080600080600060a08688031215612da257600080fd5b612dab86612641565b9450612db960208701612641565b9350604086013592506060860135915060808601356001600160401b03811115612de257600080fd5b612a838882890161292f565b600080600060608486031215612e0357600080fd5b612e0c84612641565b95602085013595506040909401359392505050565b600181811c90821680612e3557607f821691505b60208210811415612e5657634e487b7160e01b600052602260045260246000fd5b50919050565b600060208284031215612e6e57600080fd5b5051919050565b634e487b7160e01b600052601160045260246000fd5b600082821015612e9d57612e9d612e75565b500390565b60208082526038908201527f455243313135355072657365744d696e7465725061757365723a206d7573742060408201527f68617665206d696e74657220726f6c6520746f206d696e740000000000000000606082015260800190565b634e487b7160e01b600052603260045260246000fd5b6000600019821415612f2957612f29612e75565b5060010190565b60208082526029908201527f455243313135353a2063616c6c6572206973206e6f74206f776e6572206e6f7260408201526808185c1c1c9bdd995960ba1b606082015260800190565b60008151612f8b8185602086016126d3565b9290920192915050565b600080845481600182811c915080831680612fb157607f831692505b6020808410821415612fd157634e487b7160e01b86526022600452602486fd5b818015612fe55760018114612ff657613023565b60ff19861689528489019650613023565b60008b81526020902060005b8681101561301b5781548b820152908501908301613002565b505084890196505b5050505050506130338185612f79565b95945050505050565b60208082526021908201527f455243313135353a206d696e7420746f20746865207a65726f206164647265736040820152607360f81b606082015260800190565b6000821982111561309057613090612e75565b500190565b60208082526028908201527f455243313135353a2069647320616e6420616d6f756e7473206c656e677468206040820152670dad2e6dac2e8c6d60c31b606082015260800190565b6040815260006130f06040830185612ba8565b82810360208401526130338185612ba8565b60208082526025908201527f455243313135353a207472616e7366657220746f20746865207a65726f206164604082015264647265737360d81b606082015260800190565b6020808252602a908201527f455243313135353a20696e73756666696369656e742062616c616e636520666f60408201526939103a3930b739b332b960b11b606082015260800190565b60208082526023908201527f455243313135353a206275726e2066726f6d20746865207a65726f206164647260408201526265737360e81b606082015260800190565b60208082526024908201527f455243313135353a206275726e20616d6f756e7420657863656564732062616c604082015263616e636560e01b606082015260800190565b6001600160a01b03868116825285166020820152604081018490526060810183905260a060808201819052600090613252908301846126ff565b979650505050505050565b60006020828403121561326f57600080fd5b8151610c9a81612687565b600060033d111561128a5760046000803e5060005160e01c90565b600060443d10156132a35790565b6040516003193d81016004833e81513d6001600160401b0381602484011181841117156132d257505050505090565b82850191508151818111156132ea5750505050505090565b843d87010160208285010111156133045750505050505090565b61331360208286010187612754565b509095945050505050565b60208082526028908201527f455243313135353a204552433131353552656365697665722072656a656374656040820152676420746f6b656e7360c01b606082015260800190565b6001600160a01b0386811682528516602082015260a06040820181905260009061339290830186612ba8565b82810360608401526133a48186612ba8565b905082810360808401526133b881856126ff565b98975050505050505050565b7f416363657373436f6e74726f6c3a206163636f756e74200000000000000000008152600083516133fc8160178501602088016126d3565b7001034b99036b4b9b9b4b733903937b6329607d1b601791840191820152835161342d8160288401602088016126d3565b01602801949350505050565b600081600019048311821515161561345357613453612e75565b500290565b60008161346757613467612e75565b506000190190565b634e487b7160e01b600052603160045260246000fdfe9f2df0fed2c77648de5860a4cc508cd0818c85b8b8a1ab4ceeef8d981c8956a6a264697066735822122054b66f3764ee33c70c897eb9b4321114ca7da0eeb82f4c6067c3616ff500f22964736f6c634300080c0033",
  "linkReferences": {},
  "deployedLinkReferences": {}
}