{
  "_format": "hh-sol-artifact-1",
  "contractName": "ComposableChildrenERC1155",
  "sourceName": "contracts/ComposableChildrenERC1155.sol",
  "abi": [
    {
      "inputs": [
        {
          "internalType": "string",
          "name": "tierUri",
          "type": "string"
        },
        {
          "internalType": "address",
          "name": "_csnftContractAdr",
          "type": "address"
        }
      ],
      "stateMutability": "nonpayable",
      "type": "constructor"
    },
    {
      "anonymous": false,
      "inputs": [
        {
          "indexed": true,
          "internalType": "address",
          "name": "account",
          "type": "address"
        },
        {
          "indexed": true,
          "internalType": "address",
          "name": "operator",
          "type": "address"
        },
        {
          "indexed": false,
          "internalType": "bool",
          "name": "approved",
          "type": "bool"
        }
      ],
      "name": "ApprovalForAll",
      "type": "event"
    },
    {
      "anonymous": false,
      "inputs": [
        {
          "indexed": false,
          "internalType": "address",
          "name": "account",
          "type": "address"
        }
      ],
      "name": "Paused",
      "type": "event"
    },
    {
      "anonymous": false,
      "inputs": [
        {
          "indexed": true,
          "internalType": "bytes32",
          "name": "role",
          "type": "bytes32"
        },
        {
          "indexed": true,
          "internalType": "bytes32",
          "name": "previousAdminRole",
          "type": "bytes32"
        },
        {
          "indexed": true,
          "internalType": "bytes32",
          "name": "newAdminRole",
          "type": "bytes32"
        }
      ],
      "name": "RoleAdminChanged",
      "type": "event"
    },
    {
      "anonymous": false,
      "inputs": [
        {
          "indexed": true,
          "internalType": "bytes32",
          "name": "role",
          "type": "bytes32"
        },
        {
          "indexed": true,
          "internalType": "address",
          "name": "account",
          "type": "address"
        },
        {
          "indexed": true,
          "internalType": "address",
          "name": "sender",
          "type": "address"
        }
      ],
      "name": "RoleGranted",
      "type": "event"
    },
    {
      "anonymous": false,
      "inputs": [
        {
          "indexed": true,
          "internalType": "bytes32",
          "name": "role",
          "type": "bytes32"
        },
        {
          "indexed": true,
          "internalType": "address",
          "name": "account",
          "type": "address"
        },
        {
          "indexed": true,
          "internalType": "address",
          "name": "sender",
          "type": "address"
        }
      ],
      "name": "RoleRevoked",
      "type": "event"
    },
    {
      "anonymous": false,
      "inputs": [
        {
          "indexed": true,
          "internalType": "address",
          "name": "operator",
          "type": "address"
        },
        {
          "indexed": true,
          "internalType": "address",
          "name": "from",
          "type": "address"
        },
        {
          "indexed": true,
          "internalType": "address",
          "name": "to",
          "type": "address"
        },
        {
          "indexed": false,
          "internalType": "uint256[]",
          "name": "ids",
          "type": "uint256[]"
        },
        {
          "indexed": false,
          "internalType": "uint256[]",
          "name": "values",
          "type": "uint256[]"
        }
      ],
      "name": "TransferBatch",
      "type": "event"
    },
    {
      "anonymous": false,
      "inputs": [
        {
          "indexed": true,
          "internalType": "address",
          "name": "operator",
          "type": "address"
        },
        {
          "indexed": true,
          "internalType": "address",
          "name": "from",
          "type": "address"
        },
        {
          "indexed": true,
          "internalType": "address",
          "name": "to",
          "type": "address"
        },
        {
          "indexed": false,
          "internalType": "uint256",
          "name": "id",
          "type": "uint256"
        },
        {
          "indexed": false,
          "internalType": "uint256",
          "name": "value",
          "type": "uint256"
        }
      ],
      "name": "TransferSingle",
      "type": "event"
    },
    {
      "anonymous": false,
      "inputs": [
        {
          "indexed": false,
          "internalType": "string",
          "name": "value",
          "type": "string"
        },
        {
          "indexed": true,
          "internalType": "uint256",
          "name": "id",
          "type": "uint256"
        }
      ],
      "name": "URI",
      "type": "event"
    },
    {
      "anonymous": false,
      "inputs": [
        {
          "indexed": false,
          "internalType": "address",
          "name": "account",
          "type": "address"
        }
      ],
      "name": "Unpaused",
      "type": "event"
    },
    {
      "inputs": [],
      "name": "DEFAULT_ADMIN_ROLE",
      "outputs": [
        {
          "internalType": "bytes32",
          "name": "",
          "type": "bytes32"
        }
      ],
      "stateMutability": "view",
      "type": "function"
    },
    {
      "inputs": [],
      "name": "MINTER_ROLE",
      "outputs": [
        {
          "internalType": "bytes32",
          "name": "",
          "type": "bytes32"
        }
      ],
      "stateMutability": "view",
      "type": "function"
    },
    {
      "inputs": [],
      "name": "PAUSER_ROLE",
      "outputs": [
        {
          "internalType": "bytes32",
          "name": "",
          "type": "bytes32"
        }
      ],
      "stateMutability": "view",
      "type": "function"
    },
    {
      "inputs": [
        {
          "internalType": "address",
          "name": "account",
          "type": "address"
        },
        {
          "internalType": "uint256",
          "name": "id",
          "type": "uint256"
        }
      ],
      "name": "balanceOf",
      "outputs": [
        {
          "internalType": "uint256",
          "name": "",
          "type": "uint256"
        }
      ],
      "stateMutability": "view",
      "type": "function"
    },
    {
      "inputs": [
        {
          "internalType": "address[]",
          "name": "accounts",
          "type": "address[]"
        },
        {
          "internalType": "uint256[]",
          "name": "ids",
          "type": "uint256[]"
        }
      ],
      "name": "balanceOfBatch",
      "outputs": [
        {
          "internalType": "uint256[]",
          "name": "",
          "type": "uint256[]"
        }
      ],
      "stateMutability": "view",
      "type": "function"
    },
    {
      "inputs": [
        {
          "internalType": "address",
          "name": "account",
          "type": "address"
        },
        {
          "internalType": "uint256",
          "name": "id",
          "type": "uint256"
        },
        {
          "internalType": "uint256",
          "name": "value",
          "type": "uint256"
        }
      ],
      "name": "burn",
      "outputs": [],
      "stateMutability": "nonpayable",
      "type": "function"
    },
    {
      "inputs": [
        {
          "internalType": "address",
          "name": "account",
          "type": "address"
        },
        {
          "internalType": "uint256[]",
          "name": "ids",
          "type": "uint256[]"
        },
        {
          "internalType": "uint256[]",
          "name": "values",
          "type": "uint256[]"
        }
      ],
      "name": "burnBatch",
      "outputs": [],
      "stateMutability": "nonpayable",
      "type": "function"
    },
    {
      "inputs": [
        {
          "internalType": "address",
          "name": "_to",
          "type": "address"
        }
      ],
      "name": "getLatestTierId",
      "outputs": [
        {
          "internalType": "uint256",
          "name": "",
          "type": "uint256"
        }
      ],
      "stateMutability": "nonpayable",
      "type": "function"
    },
    {
      "inputs": [
        {
          "internalType": "bytes32",
          "name": "role",
          "type": "bytes32"
        }
      ],
      "name": "getRoleAdmin",
      "outputs": [
        {
          "internalType": "bytes32",
          "name": "",
          "type": "bytes32"
        }
      ],
      "stateMutability": "view",
      "type": "function"
    },
    {
      "inputs": [
        {
          "internalType": "bytes32",
          "name": "role",
          "type": "bytes32"
        },
        {
          "internalType": "uint256",
          "name": "index",
          "type": "uint256"
        }
      ],
      "name": "getRoleMember",
      "outputs": [
        {
          "internalType": "address",
          "name": "",
          "type": "address"
        }
      ],
      "stateMutability": "view",
      "type": "function"
    },
    {
      "inputs": [
        {
          "internalType": "bytes32",
          "name": "role",
          "type": "bytes32"
        }
      ],
      "name": "getRoleMemberCount",
      "outputs": [
        {
          "internalType": "uint256",
          "name": "",
          "type": "uint256"
        }
      ],
      "stateMutability": "view",
      "type": "function"
    },
    {
      "inputs": [
        {
          "internalType": "bytes32",
          "name": "role",
          "type": "bytes32"
        },
        {
          "internalType": "address",
          "name": "account",
          "type": "address"
        }
      ],
      "name": "grantRole",
      "outputs": [],
      "stateMutability": "nonpayable",
      "type": "function"
    },
    {
      "inputs": [
        {
          "internalType": "bytes32",
          "name": "role",
          "type": "bytes32"
        },
        {
          "internalType": "address",
          "name": "account",
          "type": "address"
        }
      ],
      "name": "hasRole",
      "outputs": [
        {
          "internalType": "bool",
          "name": "",
          "type": "bool"
        }
      ],
      "stateMutability": "view",
      "type": "function"
    },
    {
      "inputs": [
        {
          "internalType": "address",
          "name": "_to",
          "type": "address"
        },
        {
          "internalType": "uint256",
          "name": "_tierId",
          "type": "uint256"
        }
      ],
      "name": "hasTier",
      "outputs": [
        {
          "internalType": "bool",
          "name": "",
          "type": "bool"
        }
      ],
      "stateMutability": "nonpayable",
      "type": "function"
    },
    {
      "inputs": [
        {
          "internalType": "address",
          "name": "account",
          "type": "address"
        },
        {
          "internalType": "address",
          "name": "operator",
          "type": "address"
        }
      ],
      "name": "isApprovedForAll",
      "outputs": [
        {
          "internalType": "bool",
          "name": "",
          "type": "bool"
        }
      ],
      "stateMutability": "view",
      "type": "function"
    },
    {
      "inputs": [
        {
          "internalType": "address",
          "name": "to",
          "type": "address"
        },
        {
          "internalType": "uint256",
          "name": "id",
          "type": "uint256"
        },
        {
          "internalType": "uint256",
          "name": "amount",
          "type": "uint256"
        },
        {
          "internalType": "bytes",
          "name": "data",
          "type": "bytes"
        }
      ],
      "name": "mint",
      "outputs": [],
      "stateMutability": "nonpayable",
      "type": "function"
    },
    {
      "inputs": [
        {
          "internalType": "address",
          "name": "to",
          "type": "address"
        },
        {
          "internalType": "uint256[]",
          "name": "ids",
          "type": "uint256[]"
        },
        {
          "internalType": "uint256[]",
          "name": "amounts",
          "type": "uint256[]"
        },
        {
          "internalType": "bytes",
          "name": "data",
          "type": "bytes"
        }
      ],
      "name": "mintBatch",
      "outputs": [],
      "stateMutability": "nonpayable",
      "type": "function"
    },
    {
      "inputs": [
        {
          "internalType": "address",
          "name": "_to",
          "type": "address"
        },
        {
          "internalType": "uint256",
          "name": "_amount",
          "type": "uint256"
        },
        {
          "internalType": "bytes",
          "name": "_data",
          "type": "bytes"
        }
      ],
      "name": "mintEngagementPoints",
      "outputs": [],
      "stateMutability": "nonpayable",
      "type": "function"
    },
    {
      "inputs": [
        {
          "internalType": "address",
          "name": "",
          "type": "address"
        }
      ],
      "name": "ownerToTierId",
      "outputs": [
        {
          "internalType": "uint256",
          "name": "",
          "type": "uint256"
        }
      ],
      "stateMutability": "view",
      "type": "function"
    },
    {
      "inputs": [],
      "name": "pause",
      "outputs": [],
      "stateMutability": "nonpayable",
      "type": "function"
    },
    {
      "inputs": [],
      "name": "paused",
      "outputs": [
        {
          "internalType": "bool",
          "name": "",
          "type": "bool"
        }
      ],
      "stateMutability": "view",
      "type": "function"
    },
    {
      "inputs": [
        {
          "internalType": "bytes32",
          "name": "role",
          "type": "bytes32"
        },
        {
          "internalType": "address",
          "name": "account",
          "type": "address"
        }
      ],
      "name": "renounceRole",
      "outputs": [],
      "stateMutability": "nonpayable",
      "type": "function"
    },
    {
      "inputs": [
        {
          "internalType": "bytes32",
          "name": "role",
          "type": "bytes32"
        },
        {
          "internalType": "address",
          "name": "account",
          "type": "address"
        }
      ],
      "name": "revokeRole",
      "outputs": [],
      "stateMutability": "nonpayable",
      "type": "function"
    },
    {
      "inputs": [
        {
          "internalType": "address",
          "name": "from",
          "type": "address"
        },
        {
          "internalType": "address",
          "name": "to",
          "type": "address"
        },
        {
          "internalType": "uint256[]",
          "name": "ids",
          "type": "uint256[]"
        },
        {
          "internalType": "uint256[]",
          "name": "amounts",
          "type": "uint256[]"
        },
        {
          "internalType": "bytes",
          "name": "data",
          "type": "bytes"
        }
      ],
      "name": "safeBatchTransferFrom",
      "outputs": [],
      "stateMutability": "nonpayable",
      "type": "function"
    },
    {
      "inputs": [
        {
          "internalType": "address",
          "name": "from",
          "type": "address"
        },
        {
          "internalType": "address",
          "name": "to",
          "type": "address"
        },
        {
          "internalType": "uint256",
          "name": "id",
          "type": "uint256"
        },
        {
          "internalType": "uint256",
          "name": "amount",
          "type": "uint256"
        },
        {
          "internalType": "bytes",
          "name": "data",
          "type": "bytes"
        }
      ],
      "name": "safeTransferFrom",
      "outputs": [],
      "stateMutability": "nonpayable",
      "type": "function"
    },
    {
      "inputs": [
        {
          "internalType": "address",
          "name": "operator",
          "type": "address"
        },
        {
          "internalType": "bool",
          "name": "approved",
          "type": "bool"
        }
      ],
      "name": "setApprovalForAll",
      "outputs": [],
      "stateMutability": "nonpayable",
      "type": "function"
    },
    {
      "inputs": [
        {
          "internalType": "bytes4",
          "name": "interfaceId",
          "type": "bytes4"
        }
      ],
      "name": "supportsInterface",
      "outputs": [
        {
          "internalType": "bool",
          "name": "",
          "type": "bool"
        }
      ],
      "stateMutability": "view",
      "type": "function"
    },
    {
      "inputs": [],
      "name": "unpause",
      "outputs": [],
      "stateMutability": "nonpayable",
      "type": "function"
    },
    {
      "inputs": [
        {
          "internalType": "uint256",
          "name": "_composableId",
          "type": "uint256"
        },
        {
          "internalType": "uint256",
          "name": "_upgradeToTierId",
          "type": "uint256"
        },
        {
          "internalType": "bytes",
          "name": "data",
          "type": "bytes"
        }
      ],
      "name": "upgradeSNFT",
      "outputs": [
        {
          "internalType": "bool",
          "name": "",
          "type": "bool"
        }
      ],
      "stateMutability": "nonpayable",
      "type": "function"
    },
    {
      "inputs": [
        {
          "internalType": "uint256",
          "name": "",
          "type": "uint256"
        }
      ],
      "name": "uri",
      "outputs": [
        {
          "internalType": "string",
          "name": "",
          "type": "string"
        }
      ],
      "stateMutability": "view",
      "type": "function"
    }
  ],
  "bytecode": "0x60806040523480156200001157600080fd5b5060405162003a1338038062003a13833981810160405260408110156200003757600080fd5b81019080805160405193929190846401000000008211156200005857600080fd5b9083019060208201858111156200006e57600080fd5b82516401000000008111828201881017156200008957600080fd5b82525081516020918201929091019080838360005b83811015620000b85781810151838201526020016200009e565b50505050905090810190601f168015620000e65780820380516001836020036101000a031916815260200191505b50604052602001519150829050806200010f6301ffc9a760e01b6001600160e01b036200027116565b62000123816001600160e01b03620002f916565b6200013e636cdb3d1360e11b6001600160e01b036200027116565b620001596303a24d0760e21b6001600160e01b036200027116565b506005805460ff191690556200018c60006200017d6001600160e01b036200031216565b6001600160e01b036200031716565b604080516a4d494e5445525f524f4c4560a81b8152905190819003600b019020620001c4906200017d6001600160e01b036200031216565b604080516a5041555345525f524f4c4560a81b8152905190819003600b019020620001fc906200017d6001600160e01b036200031216565b506001600160a01b038116620002445760405162461bcd60e51b8152600401808060200182810382526024815260200180620039ef6024913960400191505060405180910390fd5b600580546001600160a01b0390921661010002610100600160a81b031990921691909117905550620004e9565b6001600160e01b03198082161415620002d1576040805162461bcd60e51b815260206004820152601c60248201527f4552433136353a20696e76616c696420696e7465726661636520696400000000604482015290519081900360640190fd5b6001600160e01b0319166000908152600160208190526040909120805460ff19169091179055565b80516200030e90600490602084019062000447565b5050565b335b90565b6200030e82826001600160e01b036200032c16565b6000828152602081815260409091206200035191839062002ef5620003ae821b17901c565b156200030e576200036a6001600160e01b036200031216565b6001600160a01b0316816001600160a01b0316837f2f8788117e7eff1d82e926ec794901d17c78024a50270940304540a733656f0d60405160405180910390a45050565b6000620003ce836001600160a01b0384166001600160e01b03620003d716565b90505b92915050565b6000620003ee83836001600160e01b036200042f16565b6200042657508154600181810184556000848152602080822090930184905584548482528286019093526040902091909155620003d1565b506000620003d1565b60009081526001919091016020526040902054151590565b828054600181600116156101000203166002900490600052602060002090601f016020900481019282601f106200048a57805160ff1916838001178555620004ba565b82800160010185558215620004ba579182015b82811115620004ba5782518255916020019190600101906200049d565b50620004c8929150620004cc565b5090565b6200031491905b80821115620004c85760008155600101620004d3565b6134f680620004f96000396000f3fe608060405234801561001057600080fd5b50600436106101d95760003560e01c80638456cb5911610104578063d5391393116100a2578063e985e9c511610071578063e985e9c514610c82578063ef44dc6514610cb0578063f242432a14610d2a578063f5298aca14610df3576101d9565b8063d539139314610c20578063d547741f14610c28578063d6c3fca714610c54578063e63ab1e914610c7a576101d9565b8063a217fddf116100de578063a217fddf14610ba7578063a22cb46514610baf578063ca15c87314610bdd578063cb2e6b0a14610bfa576101d9565b80638456cb5914610b345780639010d07c14610b3c57806391d1485414610b7b576101d9565b80632f2ff15d1161017c5780635438d3fe1161014b5780635438d3fe146108805780635c975abb146109395780636b20c45414610941578063731133e914610a74576101d9565b80632f2ff15d146106ad57806336568abe146106d95780633f4ba83a146107055780634e1273f41461070d576101d9565b80630e89341c116101b85780630e89341c146102835780631f7fdffa14610315578063248a9ca3146104cf5780632eb2c2d6146104ec576101d9565b8062fdd58e146101de57806301a035331461021c57806301ffc9a71461025c575b600080fd5b61020a600480360360408110156101f457600080fd5b506001600160a01b038135169060200135610e25565b60408051918252519081900360200190f35b6102486004803603604081101561023257600080fd5b506001600160a01b038135169060200135610e97565b604080519115158252519081900360200190f35b6102486004803603602081101561027257600080fd5b50356001600160e01b031916610ec2565b6102a06004803603602081101561029957600080fd5b5035610ee1565b6040805160208082528351818301528351919283929083019185019080838360005b838110156102da5781810151838201526020016102c2565b50505050905090810190601f1680156103075780820380516001836020036101000a031916815260200191505b509250505060405180910390f35b6104cd6004803603608081101561032b57600080fd5b6001600160a01b038235169190810190604081016020820135600160201b81111561035557600080fd5b82018360208201111561036757600080fd5b803590602001918460208302840111600160201b8311171561038857600080fd5b9190808060200260200160405190810160405280939291908181526020018383602002808284376000920191909152509295949360208101935035915050600160201b8111156103d757600080fd5b8201836020820111156103e957600080fd5b803590602001918460208302840111600160201b8311171561040a57600080fd5b9190808060200260200160405190810160405280939291908181526020018383602002808284376000920191909152509295949360208101935035915050600160201b81111561045957600080fd5b82018360208201111561046b57600080fd5b803590602001918460018302840111600160201b8311171561048c57600080fd5b91908080601f016020809104026020016040519081016040528093929190818152602001838380828437600092019190915250929550610f79945050505050565b005b61020a600480360360208110156104e557600080fd5b5035610ff7565b6104cd600480360360a081101561050257600080fd5b6001600160a01b038235811692602081013590911691810190606081016040820135600160201b81111561053557600080fd5b82018360208201111561054757600080fd5b803590602001918460208302840111600160201b8311171561056857600080fd5b9190808060200260200160405190810160405280939291908181526020018383602002808284376000920191909152509295949360208101935035915050600160201b8111156105b757600080fd5b8201836020820111156105c957600080fd5b803590602001918460208302840111600160201b831117156105ea57600080fd5b9190808060200260200160405190810160405280939291908181526020018383602002808284376000920191909152509295949360208101935035915050600160201b81111561063957600080fd5b82018360208201111561064b57600080fd5b803590602001918460018302840111600160201b8311171561066c57600080fd5b91908080601f01602080910402602001604051908101604052809392919081815260200183838082843760009201919091525092955061100c945050505050565b6104cd600480360360408110156106c357600080fd5b50803590602001356001600160a01b031661130f565b6104cd600480360360408110156106ef57600080fd5b50803590602001356001600160a01b0316611376565b6104cd6113d7565b6108306004803603604081101561072357600080fd5b810190602081018135600160201b81111561073d57600080fd5b82018360208201111561074f57600080fd5b803590602001918460208302840111600160201b8311171561077057600080fd5b9190808060200260200160405190810160405280939291908181526020018383602002808284376000920191909152509295949360208101935035915050600160201b8111156107bf57600080fd5b8201836020820111156107d157600080fd5b803590602001918460208302840111600160201b831117156107f257600080fd5b919080806020026020016040519081016040528093929190818152602001838360200280828437600092019190915250929550611448945050505050565b60408051602080825283518183015283519192839290830191858101910280838360005b8381101561086c578181015183820152602001610854565b505050509050019250505060405180910390f35b6104cd6004803603606081101561089657600080fd5b6001600160a01b0382351691602081013591810190606081016040820135600160201b8111156108c557600080fd5b8201836020820111156108d757600080fd5b803590602001918460018302840111600160201b831117156108f857600080fd5b91908080601f0160208091040260200160405190810160405280939291908181526020018383808284376000920191909152509295506115af945050505050565b6102486115c1565b6104cd6004803603606081101561095757600080fd5b6001600160a01b038235169190810190604081016020820135600160201b81111561098157600080fd5b82018360208201111561099357600080fd5b803590602001918460208302840111600160201b831117156109b457600080fd5b9190808060200260200160405190810160405280939291908181526020018383602002808284376000920191909152509295949360208101935035915050600160201b811115610a0357600080fd5b820183602082011115610a1557600080fd5b803590602001918460208302840111600160201b83111715610a3657600080fd5b9190808060200260200160405190810160405280939291908181526020018383602002808284376000920191909152509295506115ca945050505050565b6104cd60048036036080811015610a8a57600080fd5b6001600160a01b038235169160208101359160408201359190810190608081016060820135600160201b811115610ac057600080fd5b820183602082011115610ad257600080fd5b803590602001918460018302840111600160201b83111715610af357600080fd5b91908080601f01602080910402602001604051908101604052809392919081815260200183838082843760009201919091525092955061163e945050505050565b6104cd6116b1565b610b5f60048036036040811015610b5257600080fd5b5080359060200135611720565b604080516001600160a01b039092168252519081900360200190f35b61024860048036036040811015610b9157600080fd5b50803590602001356001600160a01b0316611745565b61020a611763565b6104cd60048036036040811015610bc557600080fd5b506001600160a01b0381351690602001351515611768565b61020a60048036036020811015610bf357600080fd5b5035611857565b61020a60048036036020811015610c1057600080fd5b50356001600160a01b031661186e565b61020a611889565b6104cd60048036036040811015610c3e57600080fd5b50803590602001356001600160a01b03166118ac565b61020a60048036036020811015610c6a57600080fd5b50356001600160a01b0316611905565b61020a611917565b61024860048036036040811015610c9857600080fd5b506001600160a01b038135811691602001351661193a565b61024860048036036060811015610cc657600080fd5b813591602081013591810190606081016040820135600160201b811115610cec57600080fd5b820183602082011115610cfe57600080fd5b803590602001918460018302840111600160201b83111715610d1f57600080fd5b509092509050611968565b6104cd600480360360a0811015610d4057600080fd5b6001600160a01b03823581169260208101359091169160408201359160608101359181019060a081016080820135600160201b811115610d7f57600080fd5b820183602082011115610d9157600080fd5b803590602001918460018302840111600160201b83111715610db257600080fd5b91908080601f016020809104026020016040519081016040528093929190818152602001838380828437600092019190915250929550611cda945050505050565b6104cd60048036036060811015610e0957600080fd5b506001600160a01b038135169060208101359060400135611eab565b60006001600160a01b038316610e6c5760405162461bcd60e51b815260040180806020018281038252602b81526020018061315d602b913960400191505060405180910390fd5b5060008181526002602090815260408083206001600160a01b03861684529091529020545b92915050565b6001600160a01b03919091166000908152600760209081526040808320938352929052205460ff1690565b6001600160e01b03191660009081526001602052604090205460ff1690565b60048054604080516020601f6002600019610100600188161502019095169490940493840181900481028201810190925282815260609390929091830182828015610f6d5780601f10610f4257610100808354040283529160200191610f6d565b820191906000526020600020905b815481529060010190602001808311610f5057829003601f168201915b50505050509050919050565b604080516a4d494e5445525f524f4c4560a81b8152905190819003600b019020610faa90610fa5611f1f565b611745565b610fe55760405162461bcd60e51b81526004018080602001828103825260388152602001806132fe6038913960400191505060405180910390fd5b610ff184848484611f23565b50505050565b60009081526020819052604090206002015490565b815183511461104c5760405162461bcd60e51b81526004018080602001828103825260288152602001806134266028913960400191505060405180910390fd5b6001600160a01b0384166110915760405162461bcd60e51b81526004018080602001828103825260258152602001806132846025913960400191505060405180910390fd5b611099611f1f565b6001600160a01b0316856001600160a01b031614806110c457506110c4856110bf611f1f565b61193a565b6110ff5760405162461bcd60e51b81526004018080602001828103825260328152602001806132a96032913960400191505060405180910390fd5b6000611109611f1f565b9050611119818787878787612178565b60005b845181101561121f57600085828151811061113357fe5b60200260200101519050600085838151811061114b57fe5b602002602001015190506111b8816040518060600160405280602a8152602001613336602a91396002600086815260200190815260200160002060008d6001600160a01b03166001600160a01b03168152602001908152602001600020546121869092919063ffffffff16565b60008381526002602090815260408083206001600160a01b038e811685529252808320939093558a16815220546111ef908261221d565b60009283526002602090815260408085206001600160a01b038c168652909152909220919091555060010161111c565b50846001600160a01b0316866001600160a01b0316826001600160a01b03167f4a39dc06d4c0dbc64b70af90fd698a233a518aa5d07e595d983b8c0526c8f7fb8787604051808060200180602001838103835285818151815260200191508051906020019060200280838360005b838110156112a557818101518382015260200161128d565b50505050905001838103825284818151815260200191508051906020019060200280838360005b838110156112e45781810151838201526020016112cc565b5050505090500194505050505060405180910390a4611307818787878787612277565b505050505050565b60008281526020819052604090206002015461132d90610fa5611f1f565b6113685760405162461bcd60e51b815260040180806020018281038252602f81526020018061312e602f913960400191505060405180910390fd5b61137282826125b5565b5050565b61137e611f1f565b6001600160a01b0316816001600160a01b0316146113cd5760405162461bcd60e51b815260040180806020018281038252602f815260200180613492602f913960400191505060405180910390fd5b6113728282612624565b604080516a5041555345525f524f4c4560a81b8152905190819003600b01902061140390610fa5611f1f565b61143e5760405162461bcd60e51b815260040180806020018281038252603b815260200180613360603b913960400191505060405180910390fd5b611446612693565b565b6060815183511461148a5760405162461bcd60e51b81526004018080602001828103825260298152602001806133fd6029913960400191505060405180910390fd5b606083516040519080825280602002602001820160405280156114b7578160200160208202803683370190505b50905060005b84518110156115a75760006001600160a01b03168582815181106114dd57fe5b60200260200101516001600160a01b0316141561152b5760405162461bcd60e51b81526004018080602001828103825260318152602001806131886031913960400191505060405180910390fd5b6002600085838151811061153b57fe5b60200260200101518152602001908152602001600020600086838151811061155f57fe5b60200260200101516001600160a01b03166001600160a01b031681526020019081526020016000205482828151811061159457fe5b60209081029190910101526001016114bd565b509392505050565b6115bc8360008484612731565b505050565b60055460ff1690565b6115d2611f1f565b6001600160a01b0316836001600160a01b031614806115f857506115f8836110bf611f1f565b6116335760405162461bcd60e51b81526004018080602001828103825260298152602001806132096029913960400191505060405180910390fd5b6115bc838383612838565b604080516a4d494e5445525f524f4c4560a81b8152905190819003600b01902061166a90610fa5611f1f565b6116a55760405162461bcd60e51b81526004018080602001828103825260388152602001806132fe6038913960400191505060405180910390fd5b610ff184848484612731565b604080516a5041555345525f524f4c4560a81b8152905190819003600b0190206116dd90610fa5611f1f565b6117185760405162461bcd60e51b815260040180806020018281038252603981526020018061339b6039913960400191505060405180910390fd5b611446612aa6565b600082815260208190526040812061173e908363ffffffff612b2716565b9392505050565b600082815260208190526040812061173e908363ffffffff612b3316565b600081565b816001600160a01b031661177a611f1f565b6001600160a01b031614156117c05760405162461bcd60e51b81526004018080602001828103825260298152602001806133d46029913960400191505060405180910390fd5b80600360006117cd611f1f565b6001600160a01b03908116825260208083019390935260409182016000908120918716808252919093529120805460ff191692151592909217909155611811611f1f565b60408051841515815290516001600160a01b0392909216917f17307eab39ab6107e8899845ad3d59bd9653f200f220920489ca2b5937696c319181900360200190a35050565b6000818152602081905260408120610e9190612b48565b6001600160a01b031660009081526006602052604090205490565b604080516a4d494e5445525f524f4c4560a81b8152905190819003600b01902081565b6000828152602081905260409020600201546118ca90610fa5611f1f565b6113cd5760405162461bcd60e51b81526004018080602001828103825260308152602001806132326030913960400191505060405180910390fd5b60066020526000908152604090205481565b604080516a5041555345525f524f4c4560a81b8152905190819003600b01902081565b6001600160a01b03918216600090815260036020908152604080832093909416825291909152205460ff1690565b6000836119b5576040805162461bcd60e51b815260206004820152601660248201527501f24b731b7b93932b1ba103a34b2b924b216102618160551b604482015290519081900360640190fd5b6005546040805163270c5bb160e11b81523360048201529051879261010090046001600160a01b031691634e18b762916024808301926020929190829003018186803b158015611a0457600080fd5b505afa158015611a18573d6000803e3d6000fd5b505050506040513d6020811015611a2e57600080fd5b505114611a79576040805162461bcd60e51b81526020600482015260146024820152731f2ab730baba3437b934bd32b21031b0b63632b960611b604482015290519081900360640190fd5b60055460408051633e49357b60e11b815260048101879052905160009261010090046001600160a01b031691637c926af6916024808301926020929190829003018186803b158015611aca57600080fd5b505afa158015611ade573d6000803e3d6000fd5b505050506040513d6020811015611af457600080fd5b5051905080611b04336000610e25565b1015611b57576040805162461bcd60e51b815260206004820181905260248201527f3e20696e73756666696369656e7420656e676167656d656e7420706f696e7473604482015290519081900360640190fd5b611b613386610e97565b15611b6b57600080fd5b8460011415611bca57611b7d3361186e565b60011415611bc5576040805162461bcd60e51b815260206004820152601060248201526f185b1c9958591e481d5c19dc9859195960821b604482015290519081900360640190fd5b611c60565b60018503611bd73361186e565b14611c135760405162461bcd60e51b81526004018080602001828103825260228152602001806132626022913960400191505060405180910390fd5b611c203360018703610e97565b1515600114611c605760405162461bcd60e51b815260040180806020018281038252602381526020018061346f6023913960400191505060405180910390fd5b611c6c33600083611eab565b611cc4600560019054906101000a90046001600160a01b031686600187878080601f01602080910402602001604051908101604052809392919081815260200183838082843760009201919091525061273192505050565b611cce3386612b53565b50600195945050505050565b6001600160a01b038416611d1f5760405162461bcd60e51b81526004018080602001828103825260258152602001806132846025913960400191505060405180910390fd5b611d27611f1f565b6001600160a01b0316856001600160a01b03161480611d4d5750611d4d856110bf611f1f565b611d885760405162461bcd60e51b81526004018080602001828103825260298152602001806132096029913960400191505060405180910390fd5b6000611d92611f1f565b9050611db2818787611da388612b8d565b611dac88612b8d565b87612178565b611dff836040518060600160405280602a8152602001613336602a913960008781526002602090815260408083206001600160a01b038d168452909152902054919063ffffffff61218616565b60008581526002602090815260408083206001600160a01b038b81168552925280832093909355871681522054611e36908461221d565b60008581526002602090815260408083206001600160a01b03808b168086529184529382902094909455805188815291820187905280518a8416938616927fc3d58168c5ae7397731d063d5bbf3d657854427343f4c083240f7aacaa2d0f6292908290030190a4611307818787878787612bd1565b611eb3611f1f565b6001600160a01b0316836001600160a01b03161480611ed95750611ed9836110bf611f1f565b611f145760405162461bcd60e51b81526004018080602001828103825260298152602001806132096029913960400191505060405180910390fd5b6115bc838383612d64565b3390565b6001600160a01b038416611f685760405162461bcd60e51b815260040180806020018281038252602181526020018061344e6021913960400191505060405180910390fd5b8151835114611fa85760405162461bcd60e51b81526004018080602001828103825260288152602001806134266028913960400191505060405180910390fd5b6000611fb2611f1f565b9050611fc381600087878787612178565b60005b84518110156120875761203e60026000878481518110611fe257fe5b602002602001015181526020019081526020016000206000886001600160a01b03166001600160a01b031681526020019081526020016000205485838151811061202857fe5b602002602001015161221d90919063ffffffff16565b6002600087848151811061204e57fe5b602090810291909101810151825281810192909252604090810160009081206001600160a01b038b168252909252902055600101611fc6565b50846001600160a01b031660006001600160a01b0316826001600160a01b03167f4a39dc06d4c0dbc64b70af90fd698a233a518aa5d07e595d983b8c0526c8f7fb8787604051808060200180602001838103835285818151815260200191508051906020019060200280838360005b8381101561210e5781810151838201526020016120f6565b50505050905001838103825284818151815260200191508051906020019060200280838360005b8381101561214d578181015183820152602001612135565b5050505090500194505050505060405180910390a461217181600087878787612277565b5050505050565b611307868686868686612e9d565b600081848411156122155760405162461bcd60e51b81526004018080602001828103825283818151815260200191508051906020019080838360005b838110156121da5781810151838201526020016121c2565b50505050905090810190601f1680156122075780820380516001836020036101000a031916815260200191505b509250505060405180910390fd5b505050900390565b60008282018381101561173e576040805162461bcd60e51b815260206004820152601b60248201527f536166654d6174683a206164646974696f6e206f766572666c6f770000000000604482015290519081900360640190fd5b612289846001600160a01b0316612eef565b1561130757836001600160a01b031663bc197c8187878686866040518663ffffffff1660e01b815260040180866001600160a01b03166001600160a01b03168152602001856001600160a01b03166001600160a01b03168152602001806020018060200180602001848103845287818151815260200191508051906020019060200280838360005b83811015612329578181015183820152602001612311565b50505050905001848103835286818151815260200191508051906020019060200280838360005b83811015612368578181015183820152602001612350565b50505050905001848103825285818151815260200191508051906020019080838360005b838110156123a457818101518382015260200161238c565b50505050905090810190601f1680156123d15780820380516001836020036101000a031916815260200191505b5098505050505050505050602060405180830381600087803b1580156123f657600080fd5b505af192505050801561241b57506040513d602081101561241657600080fd5b505160015b61255d576040516000815260443d1015612437575060006124d4565b60046000803e60005160e01c6308c379a081146124585760009150506124d4565b60043d036004833e81513d602482011167ffffffffffffffff82111715612484576000925050506124d4565b808301805167ffffffffffffffff8111156124a65760009450505050506124d4565b8060208301013d86018111156124c4576000955050505050506124d4565b601f01601f191660405250925050505b806124df5750612526565b60405162461bcd60e51b81526020600482018181528351602484015283518493919283926044019190850190808383600083156121da5781810151838201526020016121c2565b60405162461bcd60e51b81526004018080602001828103825260348152602001806130b06034913960400191505060405180910390fd5b6001600160e01b0319811663bc197c8160e01b146125ac5760405162461bcd60e51b81526004018080602001828103825260288152602001806131066028913960400191505060405180910390fd5b50505050505050565b60008281526020819052604090206125d3908263ffffffff612ef516565b15611372576125e0611f1f565b6001600160a01b0316816001600160a01b0316837f2f8788117e7eff1d82e926ec794901d17c78024a50270940304540a733656f0d60405160405180910390a45050565b6000828152602081905260409020612642908263ffffffff612f0a16565b156113725761264f611f1f565b6001600160a01b0316816001600160a01b0316837ff6391f5c32d9c69d2a47ea670b442974b53935d1edc7fd64eb21e047a839171b60405160405180910390a45050565b60055460ff166126e1576040805162461bcd60e51b815260206004820152601460248201527314185d5cd8589b194e881b9bdd081c185d5cd95960621b604482015290519081900360640190fd5b6005805460ff191690557f5db9ee0a495bf2e6ff9c91a7834c1ba4fdd244a5e8aa4e537bd38aeae4b073aa612714611f1f565b604080516001600160a01b039092168252519081900360200190a1565b6001600160a01b0384166127765760405162461bcd60e51b815260040180806020018281038252602181526020018061344e6021913960400191505060405180910390fd5b6000612780611f1f565b905061279281600087611da388612b8d565b60008481526002602090815260408083206001600160a01b03891684529091529020546127c5908463ffffffff61221d16565b60008581526002602090815260408083206001600160a01b03808b16808652918452828520959095558151898152928301889052815190948616927fc3d58168c5ae7397731d063d5bbf3d657854427343f4c083240f7aacaa2d0f6292908290030190a461217181600087878787612bd1565b6001600160a01b03831661287d5760405162461bcd60e51b81526004018080602001828103825260238152602001806132db6023913960400191505060405180910390fd5b80518251146128bd5760405162461bcd60e51b81526004018080602001828103825260288152602001806134266028913960400191505060405180910390fd5b60006128c7611f1f565b90506128e781856000868660405180602001604052806000815250612178565b60005b83518110156129c55761297c83828151811061290257fe5b60200260200101516040518060600160405280602481526020016131b9602491396002600088868151811061293357fe5b602002602001015181526020019081526020016000206000896001600160a01b03166001600160a01b03168152602001908152602001600020546121869092919063ffffffff16565b6002600086848151811061298c57fe5b602090810291909101810151825281810192909252604090810160009081206001600160a01b038a1682529092529020556001016128ea565b5060006001600160a01b0316846001600160a01b0316826001600160a01b03167f4a39dc06d4c0dbc64b70af90fd698a233a518aa5d07e595d983b8c0526c8f7fb8686604051808060200180602001838103835285818151815260200191508051906020019060200280838360005b83811015612a4c578181015183820152602001612a34565b50505050905001838103825284818151815260200191508051906020019060200280838360005b83811015612a8b578181015183820152602001612a73565b5050505090500194505050505060405180910390a450505050565b60055460ff1615612af1576040805162461bcd60e51b815260206004820152601060248201526f14185d5cd8589b194e881c185d5cd95960821b604482015290519081900360640190fd5b6005805460ff191660011790557f62e78cea01bee320cd4e420270b5ea74000d11b0c9f74754ebdbfc544b05a258612714611f1f565b600061173e8383612f1f565b600061173e836001600160a01b038416612f83565b6000610e9182612f9b565b6001600160a01b0390911660009081526006602090815260408083208490556007825280832093835292905220805460ff19166001179055565b604080516001808252818301909252606091829190602080830190803683370190505090508281600081518110612bc057fe5b602090810291909101015292915050565b612be3846001600160a01b0316612eef565b1561130757836001600160a01b031663f23a6e6187878686866040518663ffffffff1660e01b815260040180866001600160a01b03166001600160a01b03168152602001856001600160a01b03166001600160a01b0316815260200184815260200183815260200180602001828103825283818151815260200191508051906020019080838360005b83811015612c84578181015183820152602001612c6c565b50505050905090810190601f168015612cb15780820380516001836020036101000a031916815260200191505b509650505050505050602060405180830381600087803b158015612cd457600080fd5b505af1925050508015612cf957506040513d6020811015612cf457600080fd5b505160015b612d15576040516000815260443d1015612437575060006124d4565b6001600160e01b0319811663f23a6e6160e01b146125ac5760405162461bcd60e51b81526004018080602001828103825260288152602001806131066028913960400191505060405180910390fd5b6001600160a01b038316612da95760405162461bcd60e51b81526004018080602001828103825260238152602001806132db6023913960400191505060405180910390fd5b6000612db3611f1f565b9050612de381856000612dc587612b8d565b612dce87612b8d565b60405180602001604052806000815250612178565b612e30826040518060600160405280602481526020016131b96024913960008681526002602090815260408083206001600160a01b038b168452909152902054919063ffffffff61218616565b60008481526002602090815260408083206001600160a01b03808a16808652918452828520959095558151888152928301879052815193949093908616927fc3d58168c5ae7397731d063d5bbf3d657854427343f4c083240f7aacaa2d0f6292908290030190a450505050565b612eab868686868686611307565b612eb36115c1565b156113075760405162461bcd60e51b815260040180806020018281038252602c8152602001806131dd602c913960400191505060405180910390fd5b3b151590565b600061173e836001600160a01b038416612f9f565b600061173e836001600160a01b038416612fe9565b81546000908210612f615760405162461bcd60e51b81526004018080602001828103825260228152602001806130e46022913960400191505060405180910390fd5b826000018281548110612f7057fe5b9060005260206000200154905092915050565b60009081526001919091016020526040902054151590565b5490565b6000612fab8383612f83565b612fe157508154600181810184556000848152602080822090930184905584548482528286019093526040902091909155610e91565b506000610e91565b600081815260018301602052604081205480156130a5578354600019808301919081019060009087908390811061301c57fe5b906000526020600020015490508087600001848154811061303957fe5b60009182526020808320909101929092558281526001898101909252604090209084019055865487908061306957fe5b60019003818190600052602060002001600090559055866001016000878152602001908152602001600020600090556001945050505050610e91565b6000915050610e9156fe455243313135353a207472616e7366657220746f206e6f6e2045524331313535526563656976657220696d706c656d656e746572456e756d657261626c655365743a20696e646578206f7574206f6620626f756e6473455243313135353a204552433131353552656365697665722072656a656374656420746f6b656e73416363657373436f6e74726f6c3a2073656e646572206d75737420626520616e2061646d696e20746f206772616e74455243313135353a2062616c616e636520717565727920666f7220746865207a65726f2061646472657373455243313135353a2062617463682062616c616e636520717565727920666f7220746865207a65726f2061646472657373455243313135353a206275726e20616d6f756e7420657863656564732062616c616e6365455243313135355061757361626c653a20746f6b656e207472616e73666572207768696c6520706175736564455243313135353a2063616c6c6572206973206e6f74206f776e6572206e6f7220617070726f766564416363657373436f6e74726f6c3a2073656e646572206d75737420626520616e2061646d696e20746f207265766f6b653e4e6f6e2d73657175656e7469616c20746965722075706772616465206572726f72455243313135353a207472616e7366657220746f20746865207a65726f2061646472657373455243313135353a207472616e736665722063616c6c6572206973206e6f74206f776e6572206e6f7220617070726f766564455243313135353a206275726e2066726f6d20746865207a65726f2061646472657373455243313135355072657365744d696e7465725061757365723a206d7573742068617665206d696e74657220726f6c6520746f206d696e74455243313135353a20696e73756666696369656e742062616c616e636520666f72207472616e73666572455243313135355072657365744d696e7465725061757365723a206d75737420686176652070617573657220726f6c6520746f20756e7061757365455243313135355072657365744d696e7465725061757365723a206d75737420686176652070617573657220726f6c6520746f207061757365455243313135353a2073657474696e6720617070726f76616c2073746174757320666f722073656c66455243313135353a206163636f756e747320616e6420696473206c656e677468206d69736d61746368455243313135353a2069647320616e6420616d6f756e7473206c656e677468206d69736d61746368455243313135353a206d696e7420746f20746865207a65726f20616464726573733e3e4e6f6e2d73657175656e7469616c20746965722075706772616465206572726f72416363657373436f6e74726f6c3a2063616e206f6e6c792072656e6f756e636520726f6c657320666f722073656c66a264697066735822122003f7769dae2846804e0290b101b068993b9366df8dd55fbcafb6d21785b2cace64736f6c634300060300334552433939383a207472616e7366657220746f20746865207a65726f2061646472657373",
  "linkReferences": {},
  "deployedLinkReferences": {}
}